:020000040800F2
:10000000000002206D350008A1350008A135000868
:10001000A1350008A1350008A13500080000000046
:10002000000000000000000000000000B5150008FE
:10003000A1350008000000004B1600085B16000800
:10004000A1350008A1350008A1350008A135000838
:10005000A1350008A1350008A1350008A135000828
:10006000A1350008A1350008A1350008A135000818
:10007000A1350008A1350008A1350008A135000808
:10008000A1350008A1350008A13500085D4C000825
:10009000614C0008A1350008514C0008A13500084A
:1000A000A1350008A1350008A1350008A1350008D8
:1000B000A1350008A1350008A1350008A1350008C8
:1000C000A1350008A1350008A1350008A1350008B8
:1000D000A1350008A1350008A1350008A1350008A8
:1000E000A1350008A1350008A1350008A135000898
:1000F000A1350008A1350008A1350008A135000888
:10010000A1350008A1350008A1350008A135000877
:10011000A1350008A1350008A1350008A135000867
:10012000A1350008A1350008A1350008A135000857
:10013000A13500080000000000000000714C00081C
:10014000754C0008A1350008654C0008A135000871
:10015000A1350008A1350008A1350008A135000827
:10016000A1350008A1350008A1350008A135000817
:10017000A1350008A1350008A135000800000000E5
:1001800000000000A1350008000000000000000091
:10019000A13500080000000000000000A1350008A3
:1001A000000000000000000000000000A135000871
:1001B000A1350008A1350008A1350008A1350008C7
:1001C000A135000810B5054C237833B9044B13B1A1
:1001D0000448AFF300800123237010BD500C0020B1
:1001E00000000000C0100108084B10B51BB1084901
:1001F0000848AFF300800848036803B910BD074BF7
:10020000002BFBD0BDE81040184700BF00000000E5
:10021000540C0020C0100108480C00200000000011
:10022000154B002B08BF134B9D46A3F5803A0021C8
:100230008B460F461348144A121A06F06FFC0F4BF8
:10024000002B00D098470E4B002B00D09847002081
:10025000002104000D000D48002802D00C4800F0D9
:1002600082FF05F069FF2000290001F063F900F02A
:1002700077FF00BF0000080000000220000000001F
:1002800045150008500C0020342A00206711000892
:10029000000000002DE9F047089D099F06468A46A8
:1002A0001C4600F1BC0802F1FF39304600F05AFA52
:1002B00000B3404600F03AFDC0B20D280FD12368CC
:1002C000002628463D440AF803607A1E514607F08E
:1002D000B5FA05F8016C01202660BDE8F0870A2810
:1002E000E3D023689945E0DD0AF803002368013371
:1002F0002360DAE7BDE8F08710B5002494B01C2233
:10030000214605A8049406F009FC204920480394DE
:1003100000F01EFD1F491E481F4C00F019FD1F492B
:100320001B4800F015FD1E49194800F011FD0CABEB
:1003300020220093019203AB04A91A48FFF7AAFFF9
:100340000028F4D09DF83030612B03D116491048B5
:1003500000F0FEFC9DF83030622B03D113490C48AD
:1003600000F0F6FC9DF83030632BE0D163681A682A
:1003700023681A4202D0E2681B0400E0A2681360FE
:100380000B49034800F0E4FCD1E700BF5801010825
:10039000480E00206B0101086C0C0020750101085B
:1003A000800101088C0D00209001010897010108CF
:1003B0009F01010810B54FF4165194B0124800F097
:1003C000BDF90024114800F0CFFF1C22214605A8EA
:1003D000049406F0A3FB039420220CAC0192009439
:1003E00003AB04A90A48FFF755FF0028F4D09DF895
:1003F00030306D2B01D1FFF77FFF224605490648BB
:1004000000F0A6FCE8E700BF880C00206F12833ADA
:100410008C0D0020A5010108480E0020C36810B50E
:1004200004460BB19B689847204610BD70B5064640
:100430000D4B46F8983B04465EB100F1B805B54255
:1004400007D0103DEB68002BF9D09B6828469847F1
:10045000F5E704F13800FFF7E1FF04F12800FFF7AA
:10046000DDFF204670BD00BFBC02010810B5044688
:10047000FFF7DCFF204600F0A5FE204610BD00007F
:100480000B4B10B503F1200203607C330446C0F827
:10049000BC20C0F8C030D43000F0B5FF04F1BC007F
:1004A00000F032FC2046FFF7C1FF204610BD00BF20
:1004B0000C020108A0F1BC00E2E7A0F1C000DFE7F8
:1004C00010B50446FFF7DCFF204600F07BFE204617
:1004D00010BDA0F1BC00F3E7A0F1C000F0E7000000
:1004E000F7B5154C154E164D4FF4165700230097CF
:1004F0000A220921204600F0D1F82046114C32464C
:10050000294600F02BFE00230097032202212046FB
:1005100000F0C4F820460C4C3246294600F01EFE7E
:100520001C220021204606F0F9FA0521204603B0DE
:10053000BDE8F04000F0C8B9880C0020C8010020D8
:10054000810400088C0D00206C0C00200368184703
:1005500008B10B68036070477047C36810B5044664
:100560000BB19B689847204610BD884238B50446B9
:100570000D460AD0FFF7F1FF3CB1EB681BB15B6899
:10058000294620469847EB68E360204638BD0000C6
:1005900070B50446054654F8043B7BB90C4E4FF049
:1005A000FF31306802F0BAF82B6823B914B1204645
:1005B00000F01CFF2C60306802F0CEF82B68A342DC
:1005C00004D05B220349044800F0E8FB286870BDB2
:1005D00020270020C8010108ED01010838B50446B4
:1005E00048B100F15805A54205D02C3D05F1180091
:1005F000FFF714FFF7E7204638BD000070B50E4C3A
:100600002046002528263246294640F8045B06F09D
:1006100085FA3246294604F13000E56206F07EFA9A
:10062000A5652046E565054A84F860500449BDE8A3
:10063000704000F093BD00BF900E0020C801002064
:10064000DD05000803681B69184703689B691847A4
:1006500003689B6A18474FF0FF30704711207047BE
:10066000704700F090B8A0F1BC00FFF7FABF00F0AF
:100670008DB8A0F1BC00FFF7FABF4FF0FF31D430C6
:1006800000F0BBBEA0F1BC00FFF7F7BFD43000F014
:10069000B7BEA0F1BC00FFF7F9BF000038B50446B3
:1006A0001D46049B00F07AF8294604F1BC0000F0D6
:1006B00003FB084B03F10802226003F12802843394
:1006C000C4F8BC20C4F8C03004F1D40000F08EFEA1
:1006D000204638BD040201087047704710B480B14D
:1006E000146853680CB9DA070BD513F0010F4FEA01
:1006F00063031CBFC2581459184423465DF8044BC9
:1007000018475DF8044B704770B50901441801F1B2
:100710009805D4F8A43005442BB940F20E220549BF
:10072000054800F03BFBD4F8A43028461B68BDE820
:100730007040184790020108AF02010870B50546E5
:10074000044655F84C3B0E461B68984728463146F0
:1007500004F0C8F92368C4F8B86020465B68BDE8B7
:100760007040184738B50546044655F84C3B1B68A1
:100770009847284604F04CFD236805465B682046F0
:100780009847284638BD4C3004F0BCB910B54C3001
:100790000C4604F0C9F9204610BD00002DE9F043D5
:1007A00087B000259146009502460195044688468B
:1007B0001F469DE80300274B42F8083B264B82E882
:1007C0000300236148F207036361244BE561A461E0
:1007D00022626362BFF36F8FBFF34F8F04F14C0649
:1007E0004C226563656484F8485084F8495030466B
:1007F00006F094F902A9C4F8A450C4F8B450C4F89F
:10080000B870174D174F029704F198000595FFF740
:10081000ACFE02A8FFF7A1FE02A904F1A80002970E
:100820000595FFF7A2FE02A8FFF797FE4A4641464C
:10083000304604F05DF8D4F8B810304604F052F9B0
:1008400030462246084904F051F9204607B0BDE879
:10085000F08300BFBC02010801A090E8DD0600089B
:10086000BC010108D9060008090700080368012235
:100870001B6900211847036800221B6911461847AD
:1008800038B504460D4603680AB1826801E0C268C3
:100890001B0420461360012104F0B6FA29462046C5
:1008A000BDE8384004F0ACBA70B50E4604461546B3
:1008B00004F086FA013606D02A4620460021BDE81B
:1008C0007040FFF7DDBF70BD0022FFF7EDBF0000F5
:1008D00010B50446013001D110BD0C31B1F9003022
:1008E0005A1C0BD09C42F8D12046896804F07CFB4E
:1008F00020460021BDE8104004F012BC0248BDE8CB
:10090000104000F0F9BA00BFCC020108884208B5D7
:100910000AD0431C07D0013106D0044800F0ECFA9D
:100920004FF0FF3008BD084608BD00BFDD020108DA
:10093000B1F900305A1C05D0834201D14868704794
:100940000C31F5E718467047421C10B5044607D035
:10095000FFF7EEFF431C044602D1024800F0CCFA38
:10096000204610BDEE0201080368D0B544685B68FC
:10097000D4E9026798470022B04242EA00023B46AF
:1009800002D2003247F10103C4E90223D0BD2DE9B0
:1009900070430646FFF7E8FF71684B68ABB1D1E9D9
:1009A0000245D3E90023AB4208BFA2420BD3B2EB0E
:1009B000040863EB0509B9F1000F08BFB8F1E04F77
:1009C00003D2121B03E0002201E04FF0E042336843
:1009D00088681B691044BDE870431847036870B508
:1009E000DB680446984763685B68A3B12046FFF75D
:1009F000BBFF65686E68D5E90201D6E9002399421C
:100A000008BF904207D3F3686B602B68002BEAD0D5
:100A1000B0689847E7E72046BDE87040FFF7B7BFEA
:100A20000148FFF7DBBF00BF40030108007B7047B0
:100A300038B504460D4B036000234360A160027388
:100A40000B480D46FFF7A4FD4FF0FF3100F0D5FC39
:100A500025B1084B1A6862601C6000E065600448BC
:100A6000FFF796FD00F0CCFC204638BD500301088E
:100A7000140F0020100F0020134B10B50360044624
:100A80001248FFF785FD4FF0FF3100F0B6FCA36878
:100A90006BB10F4A13689C4202D16368136006E091
:100AA0005A68944201D01346FAE762685A600748D0
:100AB000FFF76EFD00F0A4FC237B13B9201F00F0AC
:100AC00083FB204610BD00BF50030108140F002017
:100AD000100F002010B50446FFF7CEFF204600F0AF
:100AE00071FB204610BD000070B506460F480D464C
:100AF000FFF74EFD4FF0FF3100F07FFC0C4B1C6800
:100B00005CB1A06880B12A46314606F047FE58B96C
:100B1000A06806F0D5FD854206D10448FFF738FDF0
:100B200000F06EFC204670BD6468E9E7140F0020F9
:100B3000100F00200020704700207047036870B538
:100B40001B690122002105469847041E0EDB2B6815
:100B500002221B690021284698472B6806461B691C
:100B60000022214628469847304670BD204670BD79
:100B700000F0FEBA10B50023036043600A782F2A04
:100B8000044613D14A788AB1481C2060194623686C
:100B90001A782F2A02D10133236004E01AB10133FD
:100BA00001312360F3E7FFF79FFF6060204610BD2F
:100BB00000687047406808B520B1FFF737FF431E53
:100BC0005842584108BD10B50446FFF7F3FF10B175
:100BD000606800B1043810BD406808B520B1FFF767
:100BE00025FFB0FA80F0400908BD10B50446FFF7B4
:100BF000F3FF10B1606800B1043810BD40680030E8
:100C000018BF0120704770477047F8B50368DB6C68
:100C10000E4604468F1898473546BD4208D02368D3
:100C200015F8011B5B6C204698470130F5D12F4623
:100C3000236820461B6D9847B81BF8BDF8B50368BC
:100C4000DB6C0E4604468F1898473546BD4208D0E7
:100C5000236820469B6C9847431C02D005F8010B83
:100C6000F4E7236820461B6D9847A81BF8BD0020B9
:100C700070477047002070470020704710B5054B43
:100C800003604C33044640F8043FFFF7F5FE20466E
:100C900010BD00BFAC030108A0F10400EEE700BFE7
:100CA00010B50446FFF7EAFF204600F08BFA204615
:100CB00010BDA0F10400F3E70F4B10B5002204466D
:100CC00040F8043BFFF7B4FE0C4B23605C336360D9
:100CD000002363610A492046FFF74AFF606110B1B3
:100CE00000F043FA05E004F03DFB0168054800F020
:100CF00003F9204610BD00BF600301080804010885
:100D00006C0401086F04010810B5074B03F10802D9
:100D10006433044602604360406904F06BFB204684
:100D2000FFF7ACFF204610BD0004010838B503688A
:100D30000446DB6C9847606904F01EFC606900F0B3
:100D400033FA236805461B6D20469847284638BD70
:100D50000EB477B5036807AD044655F8046BDB6C39
:100D600098476069019504F007FC019A6069314673
:100D70000AF0F2FB236805461B6D2046984728467B
:100D800003B0BDE8704003B0704705F0A9BA05F0A4
:100D900029BF04F0A1BD04F0B5BA000070B5044647
:100DA0000D46164600F05EF833462A4621460348B3
:100DB00000F044F8BDE8704000F002B88E0401086D
:100DC00000B589B000F04EF8052101A8FFF77CFDC1
:100DD000039B019A1A60962000F0D4FA019B049AB2
:100DE0001B041360962000F0CDFAF1E730B50D46F4
:100DF000A1B0044600F036F82B4622468021684612
:100E00000AF026FC051E03DC00F058F821B030BDC6
:100E1000084B1B6823B903220221074803F068FD31
:100E200000241DF804100448013403F07DFEA5429F
:100E3000F7D1E9E70C160020A82700200FB407B56A
:100E400004A951F8040B0191FFF7D0FF03B05DF83E
:100E500004EB04B07047EFF3108000F0010080F065
:100E60000100704738B5FFF7F6FF054672B60E4C25
:100E7000236823B980F001030C4ADBB213702368A6
:100E8000013304D145220A490A48FFF787FF236846
:100E90002BB125B1492206490748FFF77FFF236898
:100EA0000133236038BD00BF480F00204C0F0020E5
:100EB000BF040108E30401080905010810B50A4C44
:100EC000236883B1FFF7C7FF20B15A2207490848BA
:100ED000FFF764FF2368013B236023681BB9054BC0
:100EE0001B7803B962B610BD480F0020BF0401088B
:100EF000090501084C0F00200FB413B5084B1A78F0
:100F00004AB9012405A904981C700191FFF76EFFEE
:100F1000204600F025F902B0BDE8104004B070474B
:100F20004D0F002008B5084B1B685BB9022107482C
:100F3000032203F0DDFC4FF416510448BDE80840DD
:100F400003F0D0BD08BD00BF0C160020A82700206C
:100F5000022810B501DC002010BDC31E0B4A52F858
:100F60002300002142F8231020B904F0FBF90923E3
:100F7000036008E003685B699847041EEBDA04F03D
:100F8000F1F9644204604FF0FF3010BD880F00207B
:100F9000022870B50D4614460DDC124B1B680BB9C8
:100FA000FFF7C0FF2E19B5421AD015F8011B0E48E5
:100FB00003F0BAFDF7E703380C4B53F8200030B9C3
:100FC00004F0D0F9092303604FF0FF3070BD0368CF
:100FD000DB689847041E03DA04F0C4F96342036037
:100FE000204670BD0C160020A8270020880F002086
:100FF000022810B50C460ADC104B1B680BB9FFF732
:1010000091FF0F4803F07EFD2070012010BD0338D2
:101010000C4B53F8200030B904F0A4F90923036005
:101020004FF0FF3010BD03689B689847041E03DA39
:1010300004F098F963420360204610BD0C160020AE
:10104000A8270020880F0020022810B515DD0338DE
:101050000C4B53F8204024B904F084F909230360B1
:101060000DE023682046DB699847041E07DA04F088
:1010700079F964420460002010BD012010BD2046B3
:1010800010BD00BF880F0020022810B503DC04F05B
:1010900069F91D2307E003380B4B53F8200020B9F2
:1010A00004F060F90923036008E003681B699847AE
:1010B000041E06DA04F056F9644204604FF0FF3073
:1010C00010BD204610BD00BF880F0020022808B5C3
:1010D00004DC4FF400534B60002008BD04F042F9DB
:1010E000092303604FF0FF3008BD08B5012000F070
:1010F00037F800000C4A136810B51844EFF3088164
:10110000884205D3094B0C221A604FF0FF3010BD06
:101110000749096821B1074C246821448842F1D26B
:101120001060184610BD00BFCC010020302A0020FE
:10113000840F002088100020074C08B5236805465E
:10114000986804F019FA2368D86804F015FA0DB10C
:10115000FFF736FEFEE700BFB8060020012070470B
:1011600008B5FFF7E9FF01207047002105F0EABF4D
:1011700030B585B00C4602460A49054601A806F07E
:1011800091F8214601A804F051FB044638B12B68C0
:101190002846DB69984710B12046FFF7E6FF204656
:1011A00005B030BD3605010804F0F8B908B500F007
:1011B000E9F908BD08B500F0EDF908BD08B105F082
:1011C00087B87047FFF7FABF10B504460C48FFF721
:1011D000DFF94FF0FF3100F010F90023094A1946FA
:1011E00052F82300A04208BF42F823100133402BDD
:1011F000F6D10348FFF7CCF9BDE8104000F000B984
:10120000500F0020880F00202DE9FF4789464449F0
:10121000054606F0E9F8044610B9FFF783FE7BE0C7
:101220004049284606F0E0F818B9FFF77BFE012494
:1012300072E03D49284606F0D7F818B9FFF772FE6C
:10124000022469E03948FFF7A3F94FF0FF3100F0BD
:10125000D4F8374B0024364E53F82470B04667B1AB
:101260000134402CF7D104F07DF8182303602F4897
:10127000FFF78EF900F0C4F84CE04FF0FF332B4835
:1012800046F82430FFF784F900F0BAF82B7801977C
:101290003A2B07D102AA2749284606F029F8029BD3
:1012A000019332E0294602A8FFF764FC02A8FFF789
:1012B000A5FC054668B102A8FFF78EFC074602A808
:1012C0001FB1FFF792FC01901FE0FFF77CFC054681
:1012D00030B904F047F80223036046F8245019E0BF
:1012E000036802A8D3F808A0FFF762FC29F4803352
:1012F000024601A92846D047054630B104F032F82D
:101300006D42056046F8247004E0019B48F82430E3
:10131000033401E04FF0FF34204604B0BDE8F0870D
:101320001D0501080106010824050108500F0020D1
:10133000880F00203605010870B5054603F0A6FFAA
:101340004FF47A7495FBF4F4002C064602DDFFF7A7
:1013500082FD28B903F09AFF801BA842FAD370BD22
:10136000204600F057F8F5E707EE100ADFED047AA3
:1013700067EE277AFDEEE77A17EE900AFFF7DCBFFB
:10138000002474494FF47A735843FFF7D5BF000027
:10139000F8B5044600F114070D461C220021261D55
:1013A000384605F0BBFB10220021304605F0B6FBA5
:1013B0000B4BE760002D08BF1D461C2323610B2348
:1013C0006560A360304601F07DF9206030B93122BC
:1013D00004490548BDE8F840FFF7E0BCF8BD00BF90
:1013E00009060108220601083C06010810B5002183
:1013F0000446FFF7CDFF204610BD006801F08EB90E
:10140000006801F0A9B910B50446006801F0C0F900
:10141000204610BD00F038B9154838B5154B0360AB
:101420000B251C24144B4560C460836001F04AF90D
:10143000124B18601248134BC46080E82800124B0E
:10144000836001F03FF9114B18601148114BC460E3
:1014500080E82800104B836001F034F90F4B1860CE
:1014600004F06AFE00210846BDE8384000F062B88A
:101470005C270020400601082427002020270020A8
:10148000102700205006010840270020E816002001
:10149000902700205D060108F4260020F026002099
:1014A0000A4A0B48C2F1005303F50033B3F5806FCD
:1014B000194628BF4FF480615B1A016005499818EE
:1014C000086005490B60054B1A607047342A0020FC
:1014D000901000208C100020840F00208810002025
:1014E000704700000D4A0E4808B50E4B13614FF4CB
:1014F000805353614823D3600B4B9360182393614F
:1015000000210A4B136001F025FE10B90848FFF7CF
:10151000F3FCBDE8084000F093BA00BF6C27002040
:1015200019140008F0160020A01600206706010814
:101530007306010808B5FFF7D3FFBDE80840FEF7C2
:1015400039BF000010B5FFF7ABFF0B4B0B499A6892
:101550000B48043A52F8044F41F8044F8142F9D144
:101560004FF000529A6003F0B8F900F01FFABDE89E
:101570001040FFF7B7BF00BF00ED00E0FCFFFF1F0A
:10158000C0010020024B4FF0FF31186801F0C6B8CF
:10159000E8160020014B186801F0DEB8E8160020BC
:1015A00003F056BE08B5024C23689847FCE700BF1D
:1015B000D0010020EFF30980816911F8021CB9BB4A
:1015C00001B590E80F10E047BDE800508CE803003B
:1015D000264B93E80600914208BF704741B91EF0C0
:1015E000100F10D12249086820F0010008600AE0BD
:1015F0002CE9F00F1EF0100F08BF2CED108AC1F877
:1016000038C081F822E001F07FFB184B93E8060018
:101610001A6092F82210906B61F0FF0E1EF0100F0E
:1016200008BFB0EC108AB0E8F00F80F3098870476B
:1016300010B5104A1368994206D852F821400FC8D5
:10164000A047EFF30984206010BD10B501F0CAF87F
:10165000BDE81040EFF3098CBAE710B501F060F96E
:10166000BDE81040EFF3098CB2E70000F401002060
:1016700034EF00E06007010808B5014610B11320FF
:1016800001F0D6FC002008BD10B5044600F031F88A
:10169000EFF305832BB9EFF3108313B9EFF3118345
:1016A0003BB16FF00501002000F016F86FF0050067
:1016B00010BD2046DFF804C000DF10BD7916000819
:1016C0007047704770477047704770477047704762
:1016D0007047704770477047704770477047704752
:1016E0007047704770477047704770477047704742
:1016F0007047704770477047704770477047704732
:101700007047704770477047704770477047704721
:101710007047704770477047704770477047704711
:101720007047704770477047704770477047704701
:101730007047000070B56348017A0129044600F043
:10174000BD8011B14FF0FF3009E05F4DA822083095
:1017500005F0E4F96B6D472B06D86FF00A00FFF730
:10176000B5FF4FF0FF3070BDEA68002AEAD02B8A3F
:10177000002BE7D0EE6AA4F85C30296BAB68626698
:101780003046A36400F092F908B1C4F888606E692D
:10179000A969304600F08AF908B1E66702E0D4F89A
:1017A0008830E367EE69296A304600F07FF910B1AE
:1017B000C4F8806003E0D4F88830C4F880306E6AE2
:1017C000A96A304600F072F910B1C4F8846003E0F1
:1017D000D4F88830C4F884306E6B46B1F368B268D0
:1017E0003168304600F0DDF908B1C4F88C60AE6BAA
:1017F00046B1F368B2683168304600F0D2F908B1FA
:10180000C4F89060EE6B46B1F368B2683168304658
:1018100000F0C7F908B1C4F894602E6C46B1F368C3
:10182000B2683168304600F0BCF908B1C4F898607D
:101830006E6C46B1F368B2683168304600F0B1F9B9
:1018400008B1C4F89C60AE6C46B1F368B268316808
:10185000304600F0A6F908B1C4F8A060EE6C46B1BD
:10186000F368B2683168304600F09BF908B1C4F8FB
:10187000A4602D6D45B1EB68AA682968284600F080
:1018800090F908B1C4F8A850104AFF2382F822301A
:1018900092F82230D16863F0FF03DB43B3FA83F39D
:1018A000C3F12003C1F302218B4298BF4B1CFE21E0
:1018B00001FA03F3DBB2D37701232372FFF708FFAA
:1018C000002070BDD8010020D406010800ED00E022
:1018D00010B5034C207AFFF7FCFE207A10BD00BF44
:1018E000D801002038B52A4C237A012B02D06FF0A2
:1018F00006000BE0236B274D6BB9AA6D26481946ED
:1019000001F094FA206330B94FF0FF30FFF7DEFEAC
:101910004FF0FF3038BD6B6E5BB1236D4BB91D4A84
:101920001E48D26D194601F081FA194B186500283E
:10193000EAD01B4801F0E5F80028E5D001F006FAEE
:101940002B68DB074CBF0223032383F31488154B5A
:101950001B68E36000F0BEFF0028A0610FDB00F110
:10196000604303F56143FF2283F800234211012302
:1019700000F01F0003FA00F00B4B43F8220000F0C8
:10198000C3FF02232372FFF7A6FE002038BD00BF6D
:10199000D8010020D4060108913200084532000821
:1019A000FC0100208802002000E100E008B5FFF7FC
:1019B0008EFEEFF305832BB9EFF3108313B9EFF32A
:1019C000118333B16FF00500FFF780FE6FF0050063
:1019D00008BDDFF828C0EFF3148313F0020F0AD11B
:1019E00013F0040FEFF308830CBF203B683B23F098
:1019F000070383F3098800DF08BD00BF351700081F
:101A000008B5EFF305832BB9EFF3108313B9EFF3A8
:101A1000118333B14FF0FF30FFF75BFE4FF0FF3023
:101A200008BDEFF31483DB0703D4BDE80840FFF7DC
:101A30004FBFDFF808C000DF08BD00BFD1180008A5
:101A400008B5FFF747FEEFF305832BB9EFF31083DB
:101A500013B9EFF3118333B16FF00500FFF736FED2
:101A60006FF0050008BDFFF7CBFF022805D00D4B36
:101A70001B6813B15B6803B19847DFF82CC0EFF324
:101A8000148313F0020F0AD113F0040FEFF308834D
:101A90000CBF203B683B23F0070383F3098800DF7A
:101AA00008BD00BFA0270020E518000838B50C4687
:101AB000034630B140EA010212F0070201D11729B2
:101AC00006D8184600222146FFF7FAFD002038BD4F
:101AD000A1F1080410251960456025188560225081
:101AE000C2600122FFF7ECFD012038BDF8B518B146
:101AF00011B132F0030304D00023FFF7E2FD002010
:101B0000F8BD0F3121F0070100F108052E68D5F866
:101B100004E0731B2EF003041B1B994205D93468A3
:101B20003546002CF2D12346E7E743680B44436077
:101B300042EA0107BEF1000F03D16F6005F108040E
:101B400005E02B192E515F6003F108042B6023463A
:101B5000FFF7B7FD2046F8BD38B500B121B9002226
:101B6000FFF7B0FD002038BDA1F1080500F1080322
:101B70000022AB4205D01C681A46002CEFD0234649
:101B8000F7E75C6824F003054468641B44600AB905
:101B90005A6001E01B6813600122FFF793FD0120EA
:101BA00038BD2DE9F0410D4617461C460646F8B1F2
:101BB00001B312B323B34FF0000E02FB01F8316002
:101BC000C0F804E003EB080EF3607361B260C0F884
:101BD00010E0FFF778FD2346013D03D0DA191A60C3
:101BE0001346F9E7C7EB080025500120BDE8F08156
:101BF000BDE8F0810846BDE8F0811046BDE8F081FF
:101C00001846BDE8F08138B5054620B90146FFF712
:101C10005BFD284638BD031D026853E8001F8A4259
:101C200002D8BFF32F8F04E0481C43E8000404B13E
:101C3000F3E72B688B420ED905F1140353E8000F2C
:101C400010B9BFF32F8F04E0026843E8002101B10F
:101C5000F4E7044600E0002428462146FFF734FD5F
:101C6000204638BD38B528B1C3688B4202D8036915
:101C7000994206D36FF00302FFF727FD6FF00300D0
:101C800038BD031D53E8002F12B9BFF32F8F04E0B6
:101C9000541E43E8004505B1F4E782B100F1140396
:101CA0001A680A60BFF35F8F53E8002F0C689442F4
:101CB000F6D143E8001505B1F2E7002401E06FF02A
:101CC00002042246FFF701FD204638BD036B30B504
:101CD000A3B1CD780024DA78AA4204D25A681C460F
:101CE0001AB11346F7E71A4623464A608B600AB1D9
:101CF000916000E0C16223B1596003E04B608B60EA
:101D0000C1620163283050E8003F5A1C40E80021BE
:101D100001B1F8E730BD4B688A680BB19A6000E00A
:101D2000C2628A680AB1536070470363704700005B
:101D30002DE9F74F804600B131B96FF00301002063
:101D4000FFF7E9FC00208EE0033121F0030303F1EB
:101D50000C090193B9FA89F1B0FA80F30B441F2BF7
:101D6000EBDD09FB00FAE2B19468D2F800B0166925
:101D700050693CB1A30702D1D368332B05D86FF06B
:101D80000801DCE7D368002BF9D13EB116F003035C
:101D900001D182455FD96FF00901D0E700285ED0FC
:101DA000F9E793461646314BD3F8A80010B1FFF778
:101DB0002AFF05E001223421D3F88800FFF796FEC0
:101DC000044620B96FF00401FFF7A5FC41E026BBF3
:101DD0000125264F00225146D7F88400FFF786FEE2
:101DE000064690B96FF00401FFF795FC002DA9D0CD
:101DF000D7F8A85021461DB12846FFF733FFA1E7C9
:101E0000D7F88800FFF7A8FE9CE75246002104F0AF
:101E100085FE45F00200C0B200E0012008232370D7
:101E20000123019A63700023A070A3606262A36221
:101E3000E36223634A463346C4F804B0414604F1E2
:101E40000C00FFF7AEFE094B094A9A672046FFF7E0
:101E500064FC204607E0002CA5D01846DEE7002CE5
:101E6000A1D00546B5E703B0BDE8F08FD80100204A
:101E7000711F00082DE9F0410E4690461D460446AC
:101E800018B10378082B00D141B920466FF0030147
:101E9000FFF741FC6FF00300BDE8F081437823B900
:101EA0006FF00201FFF737FC5CE0836803B35B78F7
:101EB000832B1DD1FFF736FC204600F022FE0122C5
:101EC0000546002100F080FF284600F09BFE0546F5
:101ED000626A8068314604F023FDEB680BB183F839
:101EE00000802046A968FFF722FC0020BDE8F081B1
:101EF00004F10C00FFF787FE0746B8B1626A31466D
:101F00000C3004F00DFD07233B70002501237B708E
:101F100039462046BD7087F80380FFF7D7FE20467C
:101F20003146FFF7FFFB2846BDE8F081B5B12A46F0
:101F300031462046FFF7F3FB0C4B2046D96900F0F1
:101F4000CDFD2946932001F073F8EFF309836FF07C
:101F500001009E60C3F80C80BDE8F0813146204648
:101F6000FFF7E1FB6FF00200BDE8F081D80100202F
:101F7000F8B543780446002B7AD08678002E3ED000
:101F8000C5686B78002B73D001460026284605F102
:101F90000C07FFF7C0FE667021463846FFF762FE69
:101FA000AB68002B64D05B78932B61D13846FFF788
:101FB0002AFE044600285BD0284600F0A2FD3246E7
:101FC0003146074600F000FF384600F01BFE6A6A03
:101FD0008168074604F10C0004F0A2FC072323707B
:101FE00001236370A670FB68E37021462846FFF763
:101FF0006DFEB9682846BDE8F840FFF793BB8568D9
:102000006B78ABB3AB684BB35B78832B26D141685D
:102010002846FFF787FB284600F073FD324631461D
:10202000074600F0D1FE384600F0ECFD06466A6A2D
:10203000806804F10C0104F073FCF3680BB1E278E2
:102040001A70B1682846FFF772FB002363702146BF
:1020500005F10C00BDE8F840FFF704BE61682846B2
:10206000FFF760FB21462846BDE8F840FFF72EBE8B
:10207000F8BD10B500F1280353E8002F12B9BFF3E3
:102080002F8F04E0511E43E8001404B1F4E70AB9AD
:10209000002010BDC06A01230028F9D0821CD2E8BC
:1020A0004F1FC2E8443F04B1F9E711F0FF0F01D020
:1020B0008068F1E710BD00002DE9F0410D4617469C
:1020C0009846044618B10378082B00D141B9204640
:1020D0006FF00301FFF71FFB6FF00300BDE8F08115
:1020E000437823B96FF00201FFF715FB3EE0FFF7DD
:1020F000C0FF0646E8B101462046FFF70CFE626AC3
:1021000006F10C01284604F00BFC0FB1F3783B708C
:1021100029462046002504F10C07FFF708FB7570DF
:1021200031463846FFF79EFDA3681BBB0020BDE883
:10213000F081B8F1000F15D0424629462046FFF73E
:10214000F4FA234B2046D96900F0C8FC41468320AD
:1021500000F06EFFEFF309836FF001009D60DF6018
:10216000BDE8F08129462046FFF7E2FA6FF0020051
:10217000BDE8F0815B78932BD8D13846FFF743FD5B
:1021800006460028D2D0204600F0BBFC2946074670
:10219000012200F019FE384600F034FD626A8168C1
:1021A000074606F10C0004F0BBFB07233370012344
:1021B0007370B570FB68F37031462046FFF786FDFB
:1021C0002046B968FFF7AEFA2846BDE8F08100BFA7
:1021D000D801002070B506460D461446FFF79CFA5C
:1021E000EFF305832BB9EFF3108313B9EFF31183EA
:1021F00033B16FF005010020FFF78DFA002070BDAC
:10220000304629462246DFF828C0EFF3148313F046
:10221000020F0AD113F0040FEFF308830CBF203B29
:10222000683B23F0070383F3098800DF70BD00BF1C
:10223000311D00082DE9F04104460F4690461D4629
:10224000FFF76CFAEFF3058333B9EFF310831BB993
:10225000EFF31183002B3CD024B12378082B01D15C
:1022600007B145B120466FF00301FFF754FA6FF054
:102270000300BDE8F08163782BB96FF002012046BE
:10228000FFF749FA21E004F10C00FFF7BCFC064619
:10229000B8B1626A39460C3004F042FB0723337050
:1022A000012373703046B57086F803807760B460A0
:1022B00000F0DEFA20463946FFF733FA2846BDE83B
:1022C000F08139462046FFF72EFA6FF00200BDE894
:1022D000F0812046394642462B46DFF808C000DF31
:1022E000BDE8F081751E0008F8B504460D46174696
:1022F0001E46FFF719FAEFF305832BB9EFF31083AE
:1023000013B9EFF31183A3B324B12378082B01D1C0
:1023100005B13EB120466FF00301FFF7FCF96FF005
:102320000300F8BD63782BB96FF002012046FFF778
:10233000F2F91BE02046FFF79CFE064690B100F143
:102340000C01626A284604F0EBFA0FB1F3783B7097
:1023500029462046FFF7EBF93046F46000F088FA92
:102360000020F8BD29462046FFF7E2F96FF0020091
:10237000F8BD204629463A463346DFF808C000DF5C
:10238000F8BD00BFB920000870B530B3846890E88C
:10239000600064B114F0030302D1C2681B2A0AD89A
:1023A0006FF008010020FFF7A8F9002070BDC36896
:1023B000ABB1F5E7012304222270A37001220023B0
:1023C0006270E6706560A360E360236163612376F9
:1023D0002046FFF794F9204670BD054606460A4B95
:1023E000D3F89C0010B1FFF70EFC05E001221C2180
:1023F000D3F88800FFF77AFB04460028DAD16FF0A3
:102400000401FFF77AF9E6E7D8010020F8B5314B6F
:10241000DE6905460F4636B96FF00701FFF76DF923
:102420004FF0FF30F8BD10B10378042B07D02846D9
:102430006FF00301FFF761F96FF00300F8BD437817
:1024400013B96FF0020116E0047E54B9F36AC66056
:10245000012143610461F0620176FFF754F92046DF
:10246000F8BDC378DA0710D5C26896420DD1FF2CAB
:1024700004D16FF00F01FFF740F927E0611CC9B2EA
:102480000176FFF740F90020F8BDE7B19B070BD5B7
:10249000EB6896F9202093F92010914204DA83F832
:1024A0002020E86800F048FB39462846FFF729F964
:1024B0003146284600F012FB3946532000F0B8FDA3
:1024C0006FF00100F8BD2846FFF71EF96FF002001B
:1024D000F8BD00BFD801002038B5344BDD69044693
:1024E00035B96FF00701FFF708F94FF0FF3038BD3D
:1024F00010B10378042B07D020466FF00301FFF7DB
:10250000FCF86FF0030038BD437813B96FF0020197
:1025100009E0C3689D4202D06FF00D0103E0017E27
:1025200031B96FF00E01FFF7E8F86FF0020038BD27
:102530000139C9B20176FFF7E9F8237E002B32D1C9
:1025400063690BB122691A6122690AB1536100E023
:10255000EB62E3789B070ED595F92120EB6A43B136
:10256000996821B191F920108A42B8BF0A465B6987
:10257000F5E785F82020A36893B1204600F0C1FA62
:1025800000220546114600F01FFCEB6A6361012141
:102590000023E56023612046EC622176FFF7B3F863
:1025A000002000F0E3FB002038BD00BFD801002070
:1025B00010B5044610B10378042B07D020466FF005
:1025C0000301FFF79AF86FF0030010BD437833B9A9
:1025D0006FF00201FFF791F86FF0020010BD0023C9
:1025E0004370037E83B36369C0680BB122691A61CB
:1025F00022690AB1536100E0C362E3789A0714D5F7
:1026000090F92130C26A42B1916821B191F920104C
:102610008B42B8BF0B465269F5E790F920209A42E9
:1026200003D080F8203000F087FAA3681BB900209F
:1026300000F09CFB08E0204600F063FA00226FF0F7
:10264000020100F0C1FBF0E7A378DB070BD5084BD4
:10265000D3F89C00214610B1FFF704FB03E0D3F848
:102660008800FFF779FA2046FFF752F8002010BDE6
:10267000D80100202DE9F041044600260127FCB1D5
:10268000E378D4F814801B0718D52676002120465D
:10269000FFF73CF8A3688BB1204600F032FA002225
:1026A0000546114600F090FBEB6AE5606361266128
:1026B0000121EC6220462776FFF725F84446DEE745
:1026C000BDE8F08110B50446FFF718F8EFF3058375
:1026D0002BB9EFF3108313B9EFF3118333B16FF01C
:1026E00005010020FFF709F8002010BD2046DFF8A3
:1026F00028C0EFF3148313F0020F0AD113F0040F74
:10270000EFF308830CBF203B683B23F0070383F300
:10271000098800DF10BD00BF8923000838B50446D2
:102720000D46FEF7EDFFEFF305832BB9EFF31083B2
:1027300013B9EFF311833BB120466FF00501FEF7AB
:10274000DCFF6FF0050038BD20462946DFF804C0E5
:1027500000DF38BD0D24000810B50446FEF7D5FF94
:10276000EFF305832BB9EFF3108313B9EFF3118364
:102770003BB120466FF00501FEF7BFFF6FF005008B
:1027800010BD2046DFF804C000DF10BDD9240008CA
:1027900010B50446FEF7BBFFEFF305832BB9EFF34B
:1027A000108313B9EFF311833BB120466FF005019D
:1027B000FEF7A3FF6FF0050010BD2046DFF804C050
:1027C00000DF10BDB125000810B5D0E85F3F5A1CEE
:1027D000914200D80022C0E8542F04B1F5E798B226
:1027E00010BD000070B51F4D2C461F4EB5F85C1093
:1027F000D6E85F3F13B9BFF32F8F04E05A1EC6E837
:10280000502F00B1F4E79BB23BB31848FFF7DCFF51
:102810006B6E53F8200000B30378013B062BE5D81C
:1028200001A252F823F000BF45280008ED27000858
:1028300049280008ED2700084D2800085128000805
:1028400055280008A36E06E0E36E04E0236F02E063
:10285000636F00E0A36F9847C7E70020BDE87040B2
:1028600000F084BAD8010020360200203A0200208D
:1028700070B5164C0546B4F85C1004F15E02D2E85F
:102880005F3F994202D8BFF32F8F04E0581CC2E883
:10289000560F06B1F3E79BB28B4210D204F16000F1
:1028A000FFF792FF636E43F82050637A23B9084B19
:1028B0004FF080525A6070BD0123E37270BD29460B
:1028C0000220BDE8704000F0E7BC00BFD801002046
:1028D00000ED00E0084B094ADB685268B3FBF2F3F5
:1028E000074A013B536000239360064BFF2283F8A5
:1028F00023204FF0FF307047D8010020D406010894
:1029000010E000E000ED00E0014B07221A60704784
:1029100010E000E0014B1B68704700BF10E000E0D2
:1029200038B5FFF7F7FF1D4BD3E904019A6D01306D
:1029300041F10001C3E904011D4602B1904700F0D6
:102940006BF9002000F012FAAA6C144B22B3196C38
:10295000186A814202D018645A6438BD5A6C0AB1B0
:10296000013A5A646B6C0D4CB3B9237A022B13D124
:10297000E56A8DB195F9202091F920309A420BD16A
:10298000284600F0CFF8206C00F0E8F8284600F068
:10299000DDF9A36C2564636438BD00BFD801002055
:1029A00010B5034BDC692046FEF79AFE204610BDA9
:1029B000D801002008B5FEF798FEDFF810C000DF50
:1029C0004FF0FF310020FEF787FEFEE77930000868
:1029D00012F0020F10B502F0010222D100F128031B
:1029E00082B153E8000F00EA01028A4203D0BFF32C
:1029F0002F8F002005E020EA010243E8002404B103
:102A0000EFE710BD53E8000F084203D1BFF32F8F4B
:102A1000002005E020EA010243E8002404B1F1E7C8
:102A200010BD806A01EA00031AB1994218BF002064
:102A300010BD002B08BF002010BD000010B5002302
:102A4000437083789A0704460CD513F0100F016B7E
:102A50000E4B04D0D3F88C00FFF704F902E0D86FD6
:102A6000FFF77AF8A378DB070ED5084BD3F8900070
:102A7000214618B1BDE81040FFF7F4B8D3F888003C
:102A8000BDE81040FFF768B810BD00BFD8010020B6
:102A900010B5044610B10378012B05D02046002163
:102AA000FEF71DFE002010BD4378002BF6D04168D4
:102AB000FEF715FE606810BD074A936B10B5002441
:102AC00013B11C461B69FBE7C161446103610CB192
:102AD000206110BD906310BDD801002010B579B100
:102AE00091F92020836833B193F92040944202DBAE
:102AF00018469B68F7E7C8608B60816003B1D960B6
:102B000010BD83682BB19A68826002B1D060002248
:102B1000DA601846704720B10378012B01D1C068F4
:102B2000F9E77047C36833B182689A60826802B17E
:102B3000D3600023C360704710B501460446237874
:102B4000012B03D1E468002CF9D110BD0846FFF732
:102B5000E9FF2046BDE81040FFF7C0BF0123014652
:102B600043700148FFF7BABFFC0100204B1C30B492
:102B700002460C4602D130BCFFF79EBF0C494B6B9E
:102B8000002033B1DD69AC4203D31846641B1B69D6
:102B9000F7E7D4615061136108B1026100E04A6354
:102BA0001BB1D9695A610C1BDC6130BC704700BF96
:102BB000D8010020C16942694B1C10B50CD11AB96B
:102BC0000F4B9B6B98421AD1036903B15A6142695A
:102BD0007AB90B4A936310BD1AB9094B5B6B9842E3
:102BE0000DD103691BB1DC695A612144D961426985
:102BF0001AB113610023436110BD014A536310BD34
:102C0000D801002090F82230806B13F0100F0CBF19
:102C1000603020307047000038B52E4B5C6B1D468D
:102C2000002C56D0E369013BE361002B51D163785E
:102C3000532B27D008D8332B1BD0432B1CD0132B5E
:102C400031D1FEF757FD2EE0732B21D007D8632B2F
:102C500029D12046FFF75FFFFEF75BFD23E0832BC2
:102C60001CD0932B1FD12046FFF755FFFEF758FDD0
:102C700019E0FEF73CFD16E02046FFF74CFFFEF79B
:102C80003BFD10E02046FFF746FFFEF73BFD0AE064
:102C90002046FFF740FFFEF73DFD04E02046FFF72A
:102CA0003AFFFEF743FD2046FFF7ACFF01682046E0
:102CB000FEF719FD2046FFF735FF2046FFF74EFFD0
:102CC000246924B1E369002BB1D0002363616C63F4
:102CD00038BD38BDD801002010B50123094A437022
:102CE00090F92010D36A243233B193F920408C42FA
:102CF00002DD1A469B68F7E7C2608360906003B10B
:102D0000D86010BDD8010020044B1B682BB11B6993
:102D10001BB1034A126A506C18477047A027002065
:102D2000D8010020074BD96951B10B6B8A6B9342D4
:102D300003D21A68044B9A4202D0012000F0ACBAC8
:102D4000704700BFD8010020A52E5AE210B502231B
:102D50004370054B04461862FFF7E4FF2046BDE8C8
:102D60001040FEF7C1BC00BFD801002010B5154BC4
:102D700004461A7AD96970B9022ADC6A21D101B3F2
:102D8000FCB194F9202091F920309A4219DD2046B7
:102D9000FFF7C8FE08E0022A0ED169B190F92020A1
:102DA00091F920309A4207DD0846FFF795FF20464B
:102DB000BDE81040FFF7CABF2046BDE81040FFF74E
:102DC000CDBE10BDD801002070B504460E46154694
:102DD000FEF789FC2046FFF715FF06602046FFF747
:102DE000E9FE20461DB1BDE87040FFF7BFBFBDE85A
:102DF0007040FFF7B3BE38B54378332B044613D188
:102E000090F82320416AFFF7E3FD054660B10146D3
:102E100000222046FFF7D8FF2A4694F82310606A64
:102E2000BDE83840FEF764BC38BD00002DE9F04F26
:102E300085B081460391029310B96FF003011EE043
:102E400082B3946802F11005E0CD3CB1A30702D132
:102E5000D368472B05D86FF008010FE0D368002B2B
:102E6000F9D12DB1680700D17EB96FF00A0105E0F4
:102E700047B17B1E372B06D96FF00B010020FEF700
:102E80002BFC56E018273EB102E0002FF1D11827A5
:102E90007107EAD1472EE8D913680193D2F804B03C
:102EA000CCB904E0182716460192154693465A4BB2
:102EB000D3F8900010B1FEF7A6FE05E001224821EC
:102EC000D3F88800FEF712FE044638B96FF004010B
:102ED000FEF702FC9BE04FF0000A01E04FF0010A10
:102EE0008DBBDFF83481A6B94C4AD8F88C00566DFA
:102EF00078B1FEF788FE054640B96FF00401002066
:102F0000FEF7EAFBBAF1000F0CD112E04AF0100A0A
:102F100017E02A463146D8F87C00FEF7E7FD054663
:102F200078B9EAE7D8F89050214625B12846FEF74F
:102F300099FE00206CE0384BD3F88800FEF70CFEB9
:102F4000F7E74AF0020A019B63600023A360E36095
:102F500023616361A361E36184F823306362A36248
:102F6000E362A6F1400301222B44227062707FB21B
:102F7000A363FD222A4B84F802A084F803B084F8EE
:102F8000207084F8217084F8222025636663C4F8D9
:102F90003C902B60214B1B685B0711D50435B608AC
:102FA000A6F111032A464FF0CC311BB142F8041BA5
:102FB000013BFAE706F18046113E05EB860500E08D
:102FC000A56B05F134022B46002143F8041B934204
:102FD000FBD1144B6B634FF08073EB63039B2B624D
:102FE0000D4BC5F83890104A9A662046FEF776FBDE
:102FF0000E4B1B6833B19B6823B10299204698475A
:10300000606401E0029B63642046FFF7AFFE204648
:1030100005B0BDE8F08F00BFD8010020D40601083C
:10302000A52E5AE2B5290008F72D0008A027002098
:10303000F8B5104DEC6907460E46CCB12B7A022B41
:1030400004D02046FFF76EFD0020F8BDE86A80B18D
:103050002046FEF747FB314620466770FFF786FDA6
:1030600005F12400FFF74DFDFFF770FE0120F8BDCC
:103070002046F8BDD801002070B51C4DEC69002C2D
:1030800032D0E06AFFF7F6FAA06930B100221146AB
:10309000FFF79AFEA069FEF724FB2B7A134E022B52
:1030A00022D1F36A03B3EFF30983A36306F124008B
:1030B000FFF727FDFFF74AFE0023F361E378DB0704
:1030C00001D5A3691BB12046FFF7B8FC07E0042235
:1030D0006270E360F36BA36003B1DC60EC632046D5
:1030E000BDE87040FEF702BB70BD00BFD8010020F4
:1030F000F8B507460E4615461C46FEF7EEFAEFF306
:1031000005832BB9EFF3108313B9EFF3118333B1B8
:103110006FF005010020FEF7DFFA0020F8BD384609
:1031200031462A462346DFF828C0EFF3148414F012
:10313000020F0AD114F0040FEFF308840CBF203CF7
:10314000683C24F0070484F3098800DFF8BD00BF61
:103150002D2E00080023FFF7CBBF000008B5034663
:10316000EFF305822AB9EFF3108212B9EFF311825F
:103170002AB118460021FEF7B2FA002008BDDFF898
:1031800008C000DF08BD00BF912A000808B5EFF3B2
:1031900005832BB9EFF3108313B9EFF3118323B138
:1031A0000020FEF79DFA002008BDDFF808C000DF10
:1031B00008BD00BFA12900080C4AD36C30B500241B
:1031C00033B11D69A94203D31C46491BDB68F7E7ED
:1031D00001618460C3601BB11D699860691A19613F
:1031E0000CB1E06030BDD06430BD00BFD80100201C
:1031F00070B5134DEC6C14B32369013B23610126B8
:103200002369E3B9E3680BB1A2689A60EB64002319
:103210001A4604F11801686DFFF70CF818B1214641
:10322000032000F039F8E378012B04D161692046CE
:10323000FFF7C2FF00E06670EC6C002CE0D170BDBF
:10324000D80100200F4B13B51A6E586E0E4C082192
:10325000FEF7C0FF606590B10C4BA3654FF0FF33E4
:1032600000226946606DFFF73FF80028F6D19DE81F
:103270000300FEF740FA0198009B9847EEE702B082
:1032800010BD00BFD4060108D8010020F1310008AC
:1032900008B5FEF787F9FCE708B505460C46FFF7C9
:1032A00075FF6B1E0246042B24D8DFE803F0030DE4
:1032B00013191E002046FFF751FF22460346012145
:1032C0000F48FDF719FE19E0234602210D48FDF7CE
:1032D00013FE13E0234603210B48FDF70DFE0DE01E
:1032E00004210A48FDF708FE08E005210848FDF71B
:1032F00003FE03E029460748FDF7FEFDFEE700BF99
:10330000A0070108F107010847080108AC080108F7
:1033100007090108670901080F49D1F8883043F40B
:103320007003C1F888300D4B1A68002042F001028A
:103330001A6098601A6822F0847222F480321A604F
:10334000074A5A601A6822F480221A60D8604FF047
:1033500000638B60704700BF00ED00E00038024062
:1033600010300024174A1849936803F00C03042B0B
:1033700003D0082B03D0154B18E0154B16E050680E
:10338000536810F4800F03F03F03506814BF104AD5
:103390000E4AB2FBF3F30B4A5268C2F30142C0F388
:1033A0008810013243435200B3FBF2F30B60054B2C
:1033B000084A9B68C3F30313D25C0B68D3400B60CD
:1033C000704700BF00380240880200200024F4004B
:1033D00000127A007C0A01082DE9F041ACB0314BB3
:1033E000002101911A6C42F080521A641B6C03F0A8
:1033F00080530193019B2C4B02911A6842F4404286
:103400001A601B6803F440430293029B0123089354
:10341000074610B94FF4803301E04FF4A02309931D
:103420004FF4B47302244FF480050826119308A8C2
:1034300007230E940F95109612941393149400F092
:10344000A5FE50BB00F0C0F9804630BB4FF4C073FE
:103450001C934FF48073159315A84FF000632A93C3
:103460001B961D9600F048FB0F2303934FF4A053C7
:10347000069305214FF4805303A80494CDF81480DB
:10348000079300F037FA024638B90FB94FF080625F
:10349000294600F0E5F9012000E000202CB0BDE84D
:1034A000F08100BF0038024000700040F0B595B0D8
:1034B0000024234B00941A6C42F080521A641B6C57
:1034C00003F080530093009B1E4B01941A6842F452
:1034D00040421A601B68089403F440430193019B27
:1034E0000E940323079310230B930F934FF4B4739D
:1034F000022610930127062307A80A970D96119616
:10350000129300F043FE0546B0B90F2302934FF427
:10351000A0530490059305214FF4805302A803960D
:10352000069300F0E7F9024620B9014600F098F949
:10353000384602E0284600E0204615B0F0BD00BF46
:10354000003802400070004008B50120FFF744FF3A
:1035500018B9FFF7ABFF00B9FEE74FF0C0620021DA
:103560000120BDE8084000F07BB90000DFF820D062
:10357000002103E0074B5B58435004310648074BDA
:1035800042189A42F6D3FFF7C7FEFCF749FE704790
:1035900000000220CC100108C80100204C0C0020C3
:1035A000FEE7000008B50A4B1A6842F400721A6080
:1035B0001A6842F480621A601A6842F480721A60D3
:1035C0000F2001F079FC00F0EDF8002008BD00BFED
:1035D000003C0240024A136801331360704700BF89
:1035E000A4270020014B1868704700BFA4270020C3
:1035F0002DE9F04F674F0B68DFF8A0C1DFF8A0811D
:1036000085B000220193BE460124019B944034EA18
:10361000030340F0B7804D6825F0100ABAF1020F9D
:1036200014D14FEAD20900EB890902F0070BD9F84F
:1036300020604FEA8B0B0F2303FA0BF326EA0306F5
:103640000B6903FA0BF33343C9F820304FEA420BFE
:103650004FF00309036809FA0BF96FEA090905F04D
:10366000030603EA090306FA0BF60AF1FF3A3343AD
:10367000BAF1010F03600FD88368CE6809EA03032B
:1036800006FA0BF61E4386604368C5F3001623EA6C
:103690000403964033434360C36809EA03098B6817
:1036A00003FA0BF343EA0903C360EB006AD5002376
:1036B0000393DCF84460384B46F48046CCF8446011
:1036C000DCF8446022F0030909F1804906F48046E1
:1036D00009F59C39039602F0030A039ED9F808B055
:1036E0004FEA8A0A0F2606FA0AF698422BEA0606DD
:1036F00018D003F58063984216D003F58063984292
:1037000014D003F58063984212D003F58063984289
:1037100010D0404510D003F50063984214BF072332
:1037200006230AE0002308E0012306E0022304E068
:10373000032302E0042300E0052303FA0AF33343E2
:10374000C9F808303B68E64315F4803F0CBF3340AE
:103750002343CEF80030DEF8043015F4003F0CBFF0
:10376000334023437B60BB6815F4801F0CBF33409C
:103770002343CEF80830DEF80C30AD0254BF33409E
:103780002343FB600132102A7FF43EAF05B0BDE851
:10379000F08F00BF003C01400000024000380240B2
:1037A0000014024070470000064A1369012923F003
:1037B0000403136101D130BF704740BF20BF20BF59
:1037C000704700BF00ED00E037B500230193224BA6
:1037D0001A6C42F080521A641B6C03F08053019300
:1037E000019B4FF4803393FAA3F3B3FA83F303F10D
:1037F000845303F560339B0001221A60FFF7F2FE49
:10380000164C05466368DA0307D4FFF7EBFE401B4E
:10381000B0F57A7FF6D903201BE04FF4003393FA1A
:10382000A3F3B3FA83F303F1845303F560339B00EE
:1038300001221A60FFF7D6FE084C054663689B0319
:1038400006D4FFF7CFFE401BB0F57A7FF6D9E2E74A
:10385000002003B030BD00BF0038024000700040BF
:1038600070B50D4688B016461F4CE0B90190236B29
:1038700043F001032363236B059003F001030193DD
:10388000019B07904FF4807303930223049303A9D1
:10389000032316480693FFF7ABFEA16821F0EC6105
:1038A000314329431DE000230293226B104842F06C
:1038B00004022263226B059302F004020292029A30
:1038C00007934FF4007203920222049203A9032289
:1038D0000692FFF78DFEA36845EAC60123F0784300
:1038E0001943A16008B070BD0038024000000240DA
:1038F00000080240554B1A6802F00F028A422DE977
:10390000F04105460E460AD32968880711D550486C
:10391000836823F0F002AB681343836009E0CAB206
:103920001A701B6803F00F039942EDD00120BDE827
:10393000F081C90706D4454B1A6802F00F0296427F
:1039400051D357E06B68424A012B03D1126812F43D
:10395000003F08E0991E0129126802D812F0007F8A
:1039600001E012F0020FE1D0394CA26822F003020C
:103970001343A360FFF736FE6B68012B074641F245
:1039800088380CD1A36803F00C03042BD3D0FFF7C5
:1039900029FEC01B4045F5D90320BDE8F081022B6C
:1039A0000AD1A36803F00C03082BC4D0FFF71AFE5A
:1039B000C01B4045F5D9EFE7032B0FD1A36803F0F7
:1039C0000C030C2BB7D0FFF70DFEC01B4045F5D9FB
:1039D000E2E7FFF707FEC01B4045DDD8A36813F000
:1039E0000C0FF6D1A7E7F2B21A701B6803F00F03B1
:1039F0009E429BD129684A0706D51548836823F45F
:103A0000E052EB68134383600B0707D5104A29691E
:103A1000936823F4604343EAC103936000F04EFBD4
:103A20000B4BF0229B6892FAA2F2B2FA82F203F0F8
:103A3000F003D340074AD35CD840074B18600F20EF
:103A400001F03AFA0020BDE8F08100BF003C0240DE
:103A5000003802407C0A010888020020084B4FF41D
:103A6000E0529B6892FAA2F2B2FA82F203F4E053B7
:103A7000D340044AD35C044A1068D840704700BF62
:103A8000003802408C0A010888020020084B4FF4DD
:103A900060429B6892FAA2F2B2FA82F203F46043A7
:103AA000D340044AD35C044A1068D840704700BF32
:103AB000003802408C0A0108880200200F230360AE
:103AC0000B4B9A6802F0030242609A6802F0F0021F
:103AD00082609A6802F4E052C2609B68DB0803F4DB
:103AE000E0530361034B1B6803F00F030B60704747
:103AF00000380240003C024003682DE9F74F13F004
:103B0000010604460BD07D49866BD1F88C2022F04B
:103B1000C0623243B6FA86F6C1F88C2076099D075A
:103B20000BD57648E16BD0F88C2022F0C0520A43C6
:103B30000029C0F88C2008BF012613F0040512D01C
:103B40006E49256BD1F88C20B5F5801F22F4401208
:103B500042EA050218BFB5FA85F5C1F88C2012BFFC
:103B60006D0900250126180710D56448616BD0F84F
:103B70008C2022F440020A43B1F5800FC0F88C205B
:103B800003D0002908BF012500E0012699065CD575
:103B900000230193594B5A4F1A6C42F080521A6419
:103BA0001B6C03F080530193019B3B6843F48073CB
:103BB0003B60FFF717FD80463B68DA0507D4FFF747
:103BC00011FDC8EB00000228F6D903206EE24B4F2E
:103BD0003B6F13F440730FD1226C02F44073B3F5C2
:103BE000407F464B28D1996821F4F81022F07041AB
:103BF00021F44071014322E0226C02F440729342AE
:103C0000EAD03B6F3F4A0121116023F44073002149
:103C100011603B673B6FDB07DED5FFF7E3FC41F24A
:103C2000883980463B6F9807D6D4FFF7DBFCC8EB9A
:103C300000004845F6D9C8E7996821F4F811996061
:103C4000196FC2F30B020A431A672368D90642BFF1
:103C50002D4B94F858201A6023681A0608D5274877
:103C6000D0F8942022F44001E26C0A43C0F894207A
:103C70005F0608D52148D0F8942022F08061A26C1C
:103C80000A43C0F89420D8050CD51C48616DD0F8C3
:103C9000942022F000620A43B1F1006FC0F8942032
:103CA00008BF0125990508D51448D0F8942022F0C2
:103CB0008051626C0A43C0F894205A0502D4012E48
:103CC00014D10BE00D48216DD0F8942022F0005261
:103CD0000A43B1F1005FC0F89420F0D10B4E074FBA
:103CE00000233360FFF77EFC804618E0B3F5006FD9
:103CF000F4D0012D40F05B813FE100BF003802406D
:103D000000700040400E4742E011474268004742C1
:103D1000FFF768FCC8EB000002283FF656AF3B688F
:103D20001B01F5D42068C70701D5A36B23B1810718
:103D300045D5E36B002B42D1DFF878E34FF44033F5
:103D4000DEF8841093FAA3F24FF07069B2FA82F8A9
:103D5000DEF8842099FAA9FA47F6C077BAFA8AFA07
:103D600097FAA7F7B7FA87F793FAA3F3B3FA83FCA6
:103D700099FAA9F94FF0E04BB9FA89F99BFAABFB34
:103D8000A36803FA07F76369BBFA8BFB03FA0BF32B
:103D90001F4302F07062636822FA0AF23B4302FAA0
:103DA00009F701F4403222FA08F2013222F000420F
:103DB000013A1F4302FA0CF33B43CEF8843042072A
:103DC00003D5236BB3F5801F05D003074FD5636B75
:103DD000B3F5800F4BD1DFF8DCE24FF44033DEF86F
:103DE000841093FAA3F24FF0E049B2FA82F8DEF8B9
:103DF000842099FAA9FA47F6C077BAFA8AFA97FAAC
:103E0000A7F7B7FA87F793FAA3F34FF0706BB3FAFB
:103E100083FC9BFAABFBBBFA8BFB99FAA9F9A3686D
:103E200003FA07F7236903FA0BF31F4302F0E0429A
:103E3000636822FA0AF2B9FA89F93B4302FA09F7F0
:103E400001F4403222FA08F2013222F00042013A33
:103E50001F4302FA0CF33B43CEF88430DEF88C307B
:103E6000A26A23F01F03013A1343CEF88C304705B2
:103E700045D5236DB3F1005F41D1DFF838E24FF44F
:103E80004033DEF8841093FAA3F24FF0E049B2FA1F
:103E900082F8DEF8842099FAA9FA47F6C07BBAFACC
:103EA0008AFA9BFAABFBBBFA8BFB93FAA3F34FF0B6
:103EB000706CB3FA83F39CFAACFCBCFA8CFC99FAF4
:103EC000A9F9E7687F08013F9F40A36803FA0BF355
:103ED0001F4302F0E042636822FA0AF2B9FA89F954
:103EE0003B4302FA09F701F4403222FA08F20132A8
:103EF00052001F4302FA0CF33B43CEF88430010515
:103F00002BD547F6C07292FAA2F24FF44033B2FAC0
:103F100082FE93FAA3F34FF07061B3FA83FC91FA37
:103F2000A1F14FF0E042B1FA81F792FAA2F2E36810
:103F30006168B2FA82F05B08A268013B02FA0EF2F5
:103F400003FA0CF313430B4321696269B940194327
:103F50008240584B0A43C3F8842001233360FFF7A3
:103F600041FB544E074633681A013FF5C2AEFFF7D6
:103F700039FBC01B0228F6D927E64F4D4D4E0023D2
:103F80002B60FFF72FFB074633689B0011D4206896
:103F9000460714D4010715D4C2054FD401232B6062
:103FA000FFF720FB434C054623689B0077D5002094
:103FB0007CE0FFF717FBC01B0228E5D905E6236B61
:103FC0001BB1E7E7636B002BE6D13A494FF440376A
:103FD000D1F8882097FAA7F347F6C07CB3FA83F3A9
:103FE0009CFAACFCBCFA8CFC97FAA7F74FF0706611
:103FF000B7FA87F796FAA6F6B6FA86FEE66902F4ED
:10400000403222FA03F306FA0CF2666A013306FA2A
:104010000EF6164323F00043A269013B3243BB4036
:104020001343C1F88830D1F88C30E26A23F4F85396
:10403000013A43EA0223C1F88C30ADE7636DB3F176
:10404000006FABD11B4F4FF07060D7F8882090FA0B
:10405000A0FE47F6C076BEFA8EFE96FAA6F64FF49C
:104060004031B6FA86FC91FAA1F1B1FA81F690FAE4
:10407000A0F0216AA36949080139B140E66902F05C
:10408000706206FA0CF6B0FA80F0314322FA0EF2B2
:10409000194302FA00F30B43C7F888307EE7FFF7B5
:1040A000A1FA401B02287FF67FAF8EE503B0BDE882
:1040B000F08F00BF003802407000474230498868E6
:1040C00000F00C00082808D00C282FD02D4A2E4BC9
:1040D00004280CBF18461046704748684B6800F02B
:1040E0003F0013F4800F47F6C0724B6892FAA2F2B9
:1040F00047F6C071B2FA82F201EA030121FA02F135
:1041000014BF214A1F4AB2FBF0F01D4A00FB01F325
:1041100052684FF4403090FAA0F0B0FA80F002F408
:10412000403222FA00F00130400025E048684B6838
:1041300000F03F0013F4800F47F6C0724B6892FA0C
:10414000A2F247F6C071B2FA82F201EA030121FA43
:1041500002F114BF0C4A0B4AB2FBF0F0084A00FB14
:1041600001F352684FF0E04090FAA0F0B0FA80F00E
:1041700002F0E04222FA00F0B3FBF0F0704700BF1B
:10418000003802400024F40000127A0003682DE990
:10419000F341DF07044603D423689E075CD4B5E0EF
:1041A000994B9A6802F00C02042A10D09A6802F027
:1041B0000C02082A02D15B685D0208D4924B9A680F
:1041C00002F00C020C2A0BD15A68500208D58E4B13
:1041D0001B689903E0D56368002BDDD101207EE1E7
:1041E0006268B2F5803F04D11A6842F480321A60E6
:1041F00014E0854DB2F5A02F2B6807D143F480233E
:104200002B602B6843F480332B6007E023F480336A
:104210002B602B6823F480232B607AB1FFF7E2F93F
:10422000794D064641F288372B689A03B4D4FFF7DC
:10423000D9F9801BB842F7D9032050E1FFF7D2F932
:1042400041F2883706462B689B03A5D5FFF7CAF9CC
:10425000801BB842F7D9EFE76B4B9A6812F00C0F4E
:1042600010D09A6802F00C02082A02D15B6858024A
:1042700008D5654A936803F00C030C2B17D15368DB
:10428000590214D4604B1A68920702D5E268012AD9
:10429000A4D11A68F82191FAA1F12069B1FA81F14B
:1042A00000FA01F122F0F8020A431A602EE0E268F7
:1042B000564BEAB101221A60FFF794F9524D0646B7
:1042C0002B6851489B0705D4FFF78CF9801B022807
:1042D000F6D9B1E70368F82292FAA2F22169B2FA9C
:1042E00082F201FA02F223F0F803134303600DE0B7
:1042F0001A60FFF777F9444D06462B689F0705D5EE
:10430000FFF770F9801B0228F7D995E723681E078D
:1043100003D423685D0748D51FE062693C4B72B146
:1043200001221A60FFF75EF9374D06466B6F98075A
:10433000EFD4FFF757F9801B0228F7D97CE71A6002
:10434000FFF750F9304D06466B6F9907E1D5FFF73F
:1043500049F9801B0228F7D96EE7002301932A4B05
:104360002C4D1A6C42F080521A641B6C03F080537F
:104370000193019B2B6843F480732B60FFF732F9A4
:1043800006462B68DA0513D5A3681F4D012B15D1FE
:104390002B6F43F001032B67FFF724F91A4D0646F4
:1043A00041F288372B6F9B0719D5A269A2BB7BE02E
:1043B000FFF718F9801B0228E3D93DE7052B04D14C
:1043C0002B6F43F004032B67E2E72A6F22F0010210
:1043D0002A672A6F22F004022A6733B1DCE7FFF76D
:1043E00001F9801BB842DDD926E7FFF7FBF841F25F
:1043F000883706462B6F9807D7D5FFF7F3F8801B51
:10440000B842F7D918E700BF003802400000474221
:10441000800E474200700040324DAB6803F00C0341
:10442000082B3FF4DBAE304E0023022A33604AD122
:10443000FFF7D8F880462B682A4F990136D447F603
:10444000C07292FAA2F24FF44033B2FA82FC93FAAD
:10445000A3F34FF07061B3FA83FE91FAA1F14FF02C
:10446000E042B1FA81F592FAA2F2E369B2FA82F07F
:10447000226A43EA0201626AA36A02FA0CF2114359
:104480005A08013A02FA0EF30B43E16A226BA94083
:104490000B43824013437B6001233360FFF7A2F894
:1044A00004463B689A0108D5002018E0FFF79AF807
:1044B000C8EB00000228BED9BEE6FFF793F8001B48
:1044C0000228EED9B8E6FFF78DF804462B689B0169
:1044D000EAD5FFF787F8001B0228F7D9ACE602B04F
:1044E000BDE8F0810038024060004742704700009C
:1044F0002E4A0368904212D0B0F1804F0FD0A2F53F
:104500007C4290420BD002F58062904207D002F5C7
:104510008062904203D002F57842904218D14A68F6
:1045200023F070031343214A904237D0B0F1804FFB
:1045300034D01F4A904231D002F5806290422DD093
:1045400002F58062904229D002F57842904225D04F
:10455000184A904222D002F5806290421ED002F5A5
:10456000806290421AD0A2F59832904216D002F59D
:104570008062904212D002F5806290420ED00360B9
:104580008B68C3620B688362084B98420BD003F5BB
:104590008063984207D0012343617047CA6823F4BF
:1045A00040731343EBE70B690363F4E7000001403A
:1045B000000400400040014010B50446A0B190F84E
:1045C000393003F0FF021BB980F83820FFF78EFF67
:1045D000022384F839302068211DFFF789FF012369
:1045E00084F83930002010BD012010BD10B5012322
:1045F000046A8B4024EA03030362036A8A4042EAA6
:104600000301016210BD000010B5044601220068DC
:10461000FFF7ECFF2368084A934203D002F580625B
:10462000934203D15A6C42F400425A641A6842F031
:1046300001021A60002010BD00000140FFF7E4BF36
:104640002DE9F04707683B69044623F44052C368EC
:10465000A168C069134322693B61FB681143626929
:1046600023F416430A43024323F00C031343FB6075
:104670007B6923F44072A369B0F5004F43EA02035B
:104680007B617C4B7CD19F4203D003F580639F42CA
:1046900031D1FFF7FBF9636819254FEA43086843F6
:1046A000B0FBF8F8FFF7F2F9666868437600B0FBF4
:1046B000F6F6FFF7EBF963684FF064095B006843B7
:1046C000B0FBF3F0B0FBF9F009FB1066FFF7DEF981
:1046D000B8FBF9F86168F6003236B6FBF9F67600F9
:1046E000684349004FEA081806F4F876B0FBF1FA7F
:1046F000FFF7CCF930E0FFF7B1F9636819254FEA0D
:1047000043086843B0FBF8F8FFF7A8F96668684308
:104710007600B0FBF6F6FFF7A1F963684FF0640985
:104720005B006843B0FBF3F0B0FBF9F009FB1066E7
:10473000FFF794F9B8FBF9F8F60061683236B6FB7A
:10474000F9F67600684349004FEA081806F4F8764F
:10475000B0FBF1FAFFF782F9454360684000B5FB12
:10476000F0F0B0FBF9F009FB10A2D2003232B2FB3C
:10477000F9F303F0070343441E44BE60BDE8F0872D
:104780009F4202D03C4B9F4230D1FFF77FF96368D4
:1047900019254FEA83086843B0FBF8F8FFF776F96C
:1047A00066686843B600B0FBF6F6FFF76FF963681A
:1047B0004FF064099B006843B0FBF3F0B0FBF9F0E5
:1047C00009FB1066FFF762F9B8FBF9F8616836017A
:1047D000684389004FEA08183236B0FBF1FAB6FB9D
:1047E000F9F606F0F006FFF751F92FE0FFF736F97A
:1047F000636819254FEA83086843B0FBF8F8FFF7B0
:104800002DF966686843B600B0FBF6F6FFF726F9A7
:1048100063684FF064099B006843B0FBF3F0B0FBA2
:10482000F9F009FB1066FFF719F9B8FBF9F86168B0
:10483000360132366843B6FBF9F689004FEA0818AC
:1048400006F0F006B0FBF1FAFFF708F9454360689F
:104850008000B5FBF0F0B0FBF9F009FB10A21201EB
:104860003232B2FBF9F303F00F0333444344BB602D
:10487000BDE8F0870010014000140140704710B5FA
:10488000044640B390F8393003F0FF021BB980F8BA
:104890003820FFF7F3FF2268242384F83930D368E7
:1048A00023F40053D3602046FFF7CAFE23681A6939
:1048B00022F490421A615A6922F02A025A61DA6897
:1048C00042F40052DA6000202023E06384F839309B
:1048D00084F83A3010BD012010BD08B5FEF742FD46
:1048E000FEF760FEFEF730FEBDE80840FEF73ABD79
:1048F000F0B50E4687B00446704930461546FCF7C1
:1049000023F86F4907462846FCF71EF8014638464B
:10491000FBF7FCFF2060013004D13E2269496A4860
:10492000FCF73CFA2368694A93426CD01ED8A2F582
:104930000062934251D002F58062934240F08F8032
:10494000634B1A6A42F480221A621A6A22F48022A5
:104950001A62002202921A6C42F480221A641B6CC2
:1049600003F480230293029B022377E0594A934287
:104970001DD002F5806293425BD0A2F5444293427F
:104980006DD1534B1A6A42F480121A621A6A22F4E9
:1049900080121A62002204921A6C42F480121A6485
:1049A0001B6C03F480130493049B042356E0484BD0
:1049B0005A6A42F010025A625A6A002122F010022A
:1049C0005A6200915A6C42F010025A645B6C61604A
:1049D00003F010030093009B41E03D4B1A6A42F440
:1049E00000321A621A6A22F400321A62002201921C
:1049F0001A6C42F400321A641B6C03F40033019306
:104A0000019B01232AE0324B1A6A42F400221A6207
:104A10001A6A22F400221A62002203921A6C42F4EB
:104A200000221A641B6C03F400230393039B0323EB
:104A300014E0274B5A6A42F020025A625A6A22F066
:104A400020025A62002205925A6C42F020025A64F7
:104A50005B6C03F020030593059B052363601749F6
:104A60003046FBF735FF16492846FBF731FF721C2D
:104A700003D00121304600F053FB6B1C03D0012111
:104A8000284600F04DFB4FF41653A3600023E3606B
:104A900023616361236226836583204600F086FBE1
:104AA00022680D4B9A4207D10C4B0D4801221A6027
:104AB00021464C2201F034FF07B0F0BD100A010876
:104AC000A4090108940A0108D10A0108004C004019
:104AD0000038024000100140004400400C16002045
:104AE000A8270020816000F061BB0000034B196023
:104AF0004168034B43F82120704700BF081600208F
:104B0000E815002038B544680546284600F080FBCB
:104B10000028FAD0A401034B1B595868C0F30800C1
:104B200038BD00BFF427002070B5456806460C4626
:104B3000304600F083FB0028FAD0AD01024B5B59F0
:104B4000C4F308045C6070BDF427002043692DE9BC
:104B5000F041394C0D46D907206029D58368374983
:104B6000374A1940836886681A40364B3340334EC3
:104B7000B14204BF01268660314EB24204BF4FF4F9
:104B8000807686602F4EB34204BF4FF48036866035
:104B90002A48814205D02A498A4202D0294A9342B2
:104BA00006D1294B294A1B6852F825000121984754
:104BB0002368DA685B69920708D09F0706D5224B05
:104BC000224A1B6852F825000021984723689969FA
:104BD0005A695B698E070AD5900508D5190406D570
:104BE000194B1A4A1B6852F825000521984722687C
:104BF00093695669526913F0040706F4806609D078
:104C000046B1120406D5104B104A1B6852F8250015
:104C10000721984723685B695FB156B11B0408D52B
:104C2000094B0A4A1B6852F825000221BDE8F041F1
:104C30001847BDE8F08100BF1016002003000004F3
:104C4000000300080000031054160020581600202E
:104C500000210148FFF77ABF00640040FFF7F8BF6A
:104C6000FFF7F6BF01210148FFF770BF0068004061
:104C7000FFF7F8BFFFF7F6BF00B5002389B007289C
:104C80006DD8DFE800F004111E2B3845525F009309
:104C9000364B37481A6B42F001021A631B6B03F064
:104CA00001030093009B5EE00193304B31481A6B87
:104CB00042F002021A631B6B03F002030193019B93
:104CC00051E00293294B2C481A6B42F004021A63FC
:104CD0001B6B03F004030293029B44E00393234BFA
:104CE00026481A6B42F008021A631B6B03F0080394
:104CF0000393039B37E004931C4B21481A6B42F04B
:104D000010021A631B6B03F010030493049B2AE048
:104D10000593164B1B481A6B42F020021A631B6B5B
:104D200003F020030593059B1DE006930F4B1648E7
:104D30001A6B42F040021A631B6B03F040030693A8
:104D4000069B10E00793094B10481A6B42F0800253
:104D50001A631B6B03F080030793079B03E00C4867
:104D6000FCF7CAF8002009B05DF804FB00380240E7
:104D7000000002400004024000080240000C024013
:104D8000001002400014024000180240001C0240C3
:104D90005D0B0108431C10B5044604D1742206497A
:104DA0000648FBF7FBFF2046002100F01DF904F048
:104DB0000F040120A04010BD7E0B0108A70B0108C5
:104DC00070B504464B1C0E46218216D0C1F3031069
:104DD000FFF752FF05463046FFF7DCFF238A074AFC
:104DE000656103F00F03206052F82330A36105F1E1
:104DF000100318356360A560E56070BDE40B010821
:104E0000B0F9100000F08CB910B58369446971B92C
:104E1000216893FAA3F2B2FA82F20320520000FA58
:104E200002F221EA020293FAA3F3226010BD206885
:104E300093FAA3F2B2FA82F293FAA3F30321520097
:104E400001FA02F2B3FA83F320EA02015B000122C5
:104E500002FA03F30B43236010BD000038B5144B76
:104E60001A68116911F0020F1C4607D0D368980721
:104E700004D56FF002031361FBF7D2FD23681A69B2
:104E8000510714D5DA68520711D56FF00402094DA5
:104E90001A615C6A2B68E31AB3F57A7F07D3FEF7D1
:104EA00099FB034B1B6804F57A729A632C6038BD3A
:104EB000F42900206016002030B589B001A903A8AC
:104EC000FEF7FCFDFEF7CAFD00230293244B019080
:104ED0001A6C244C42F008021A641A6C02F00802A0
:104EE0000292029A1A6A42F008021A621A6A22F0C0
:104EF00008021A62069AA3F50B3323604FF0FF33C2
:104F0000E360194B02B14000B0FBF3F0013800251B
:104F1000606014482561A5606561FFF74DFB134B88
:104F2000134A9B680F48C3F80821124B4FF48022A4
:104F30005A602946FFF782FB04210A48FFF77EFBEF
:104F400023680D4A596A1160126802F57A729A63F1
:104F5000DA68284642F00402DA6009B030BD00BFCA
:104F600000380240F429002040420F0000ED00E02C
:104F70005D4E000800E100E060160020034B044A8B
:104F80001360DA6822F00402DA607047000C004017
:104F9000F4290020034B044A1360DA6842F004024B
:104FA000DA607047000C0040F429002030B5C46876
:104FB00091FAA1F3B3FA83F391FAA1F10325B1FABF
:104FC00081F15B0005FA03F3490024EA030302FAC6
:104FD00001F11943C16030BD012A02D0022A18BF75
:104FE0000022FFF7E3BF00002DE9F0410E46411C0F
:104FF000044604D13E2246494648FBF7CFFE04F062
:105000000F08454BC4F3031053F82870FFF734FE24
:1050100006F007050446806897FAA7F2B2FA82F212
:1050200097FAA7F30321520001FA02F2B3FA83F3CD
:1050300020EA02015B00022202FA03F30B43A360A1
:10504000032D3AD8DFE805F03E02043701233AE0A9
:10505000B8F1070FC6F3032116D9D4F824E03B0AB0
:1050600093FAA3F0B0FA80F093FAA3F20F23B2FA06
:1050700082F2800003FA00F092002EEA000001FAAA
:1050800002F30343636214E0206A97FAA7F2B2FACC
:1050900082F297FAA7F34FF00F0EB3FA83F3920060
:1050A0000EFA02F29B0020EA020201FA03F3134314
:1050B0002362022307E0032305E06722144917480F
:1050C000FBF76CFE0023206897FAA7F1B1FA81F193
:1050D00097FAA7F24FF0030EB2FA82F249000EFAE5
:1050E00001F1520020EA01019340013D0B43012DE3
:1050F000236005D8636832074CBF3B43BB43636002
:10510000C6F3011239462046BDE8F041FFF764BFFF
:10511000BA0B0108A70B0108E40B01081B0B0108DF
:10512000431C70B506460D4604D188221C491D4813
:10513000FBF734FE06F00F021B4BC6F3031053F8C7
:105140002240FFF799FD04FB04F1026801EB4103E3
:105150001340B3FBF1F3013B012B0AD8EB1E022BEA
:10516000436802D82343436003E023EA0403436017
:1051700003E0032D01D1012206E0012DFBD0052D16
:1051800001D0022D05D102222146BDE87040FFF773
:1051900023BF21460022BDE87040FFF707BF00BFD4
:1051A000BA0B0108A70B0108E40B01084268164975
:1051B000920110B504685450531882685A60C2684E
:1051C0009A600269DA6042691A61026A9A61002291
:1051D000DA84DA619A84DA859A85B0F91A20013284
:1051E00001D1082205E0B0F9182001320CBF0422D9
:1051F0000C225A611846FFF742FB20B10348BDE874
:105200001040FBF779BE10BDF4270020240C0108E4
:105210004368094A9B0182B0D3581A68120706D521
:10522000002201921A6801925A680192019A186844
:10523000C0F3401002B07047F42700204368034ACF
:105240009B01D3581868C0F3C0107047F4270020A2
:1052500008B5FFF793FE01210020FEF7A5FABDE88F
:105260000840FFF797BE0000054B186830B90122CF
:105270001A60044B044A1A60FFF71EBE704700BF55
:1052800064160020F4290020000C004008B5044BEF
:105290001B680BB9FFF7E8FF024B586A08BD00BF57
:1052A00064160020000C0040084B094A1360586344
:1052B000DA6842F00202DA605A6A801A0028DEBF19
:1052C0005A6942F002025A61704700BF000C004068
:1052D000F4290020034B044A1360DA6822F002022A
:1052E000DA607047000C0040F4290020034A044BA8
:1052F00013606FF002021A61704700BFF4290020AA
:10530000000C004010B502FB01F1FBF73EFD044626
:10531000D8B150F8042C22F00302043A242A18D8F9
:10532000132A14D900231B2A0360436016D9242AA8
:105330008360C36011BF00F110020361436100F19B
:1053400018020023136053609360204610BD02468C
:10535000F7E7002101F0E2FB204610BD00F1080252
:10536000EFE700BF014B1868704700BFB806002088
:1053700000293DD070B505460C4608B1836B7BB360
:10538000B4F90C300BB9002070BD2146284600F05E
:1053900039F8E36A064633B1E169284698470028A0
:1053A000B8BF4FF0FF36A3891B061CD4216B41B157
:1053B00004F14003994202D02846FBF7EAFC00239F
:1053C0002363616C21B12846FBF7E3FC002363648F
:1053D00000F0E2F90023A38100F0E0F9304670BD4F
:1053E00000F0D4F9CCE721692846FBF7D2FCDDE7D1
:1053F00000207047024B01461868FFF7B9BF00BF95
:10540000B8060020B1F90C309AB22DE9F0410D46F2
:10541000110780463CD46A6843F40063002AAB81DC
:1054200073DDAC6A002C4BD09BB203F48052002198
:1054300092B2D8F80060C8F80010002A69D02A6D2E
:105440005F0705D569682B6B521A0BB1EB6BD21A4B
:105450000023E9694046A047441C3CD0B5F90C3014
:105460002A692A6023F400630022AB81DB046A60AE
:1054700049D4296BC8F8006011B305F14003994283
:1054800002D04046FBF785FC00202863BDE8F08190
:105490002E69AEB12C682E6090070CBF6B6900239B
:1054A000A41BAB600AE0234632466F6AE9694046B6
:1054B000B8470028A4EB0004064404DD002CF2DC0D
:1054C0000020BDE8F081AB8943F04003AB814FF091
:1054D000FF30BDE8F081D8F800201D2AF3D81A4B20
:1054E000D34003F0010383F00104002BEBD0B5F9A6
:1054F0000C302969296023F40063D9046C60AB8106
:10550000B7D5002AB5D12865B3E7EA6B002A88DC55
:10551000D6E70123E9694046A047431C024602D072
:10552000AB89AC6A8CE7D8F80030002BF8D01D2B83
:1055300001D0162B02D1C8F80060C1E7AB8943F057
:105540004003AB81BDE8F0810100402010B5044666
:1055500082B008B1836B53B1B1F90C0008B902B045
:1055600010BD204602B0BDE81040FFF74BBF0191CF
:1055700000F00CF90199EFE720B1054B01461868DE
:10558000FFF7E4BF034B0449186800F0ABBD00BF50
:10559000B8060020840C01084D55000838B50D4BA5
:1055A0001D6804460DB1AB6B4BB16368013B002B2A
:1055B000636008DB23685A1C2260187838BD2846CF
:1055C00000F0E4F8F1E721462846BDE8384001F054
:1055D0008DBD00BFB8060020014900F083BD00BFAB
:1055E000715300082DE9F04F354B4568C363002423
:1055F000074600F53B7204230321C0F8E412C0F80B
:10560000E822C0F8E04283B02C606C60AC606C664D
:10561000EC812C616C61AC61AB81214605F15C00D1
:10562000082201F07BFABE68DFF898B0DFF898A096
:10563000DFF89890DFF89880C5F820B001230922A0
:10564000C5F824A0C5F82890C5F82C80ED61214646
:10565000F381B28106F15C0034607460B4607466FA
:1056600034617461B4610822019301F057FAFD6856
:10567000F66112200222C6F820B0C6F824A0C6F8AF
:105680002890C6F82C802146A881EA812C606C60A5
:10569000AC606C662C616C61AC6105F15C00082249
:1056A00001F03CFA019BED61C5F820B0C5F824A0DB
:1056B000C5F82890C5F82C80BB6303B0BDE8F08F17
:1056C000D95500084973000871730008AD730008CC
:1056D000CD73000870B568234D1E03FB05F50E461B
:1056E00005F17401FBF751FB044640B100210C3079
:1056F000666005F168022160A06001F00FFA2046A3
:1057000070BD00BF204B70B51D68AB6B064613B96A
:105710002846FFF767FF05F538756B68AC68013BF5
:1057200005D521E0013B5A1C04F168041CD0B4F9F2
:105730000C20002AF6D1002501234FF6FF72E281EA
:10574000A38165662560A560656025616561A561C9
:105750002946082204F15C0001F0E0F92563656345
:105760006564A564204670BD2B680BB11D46D4E767
:1057700004213046FFF7AEFF286008B10546CCE7AC
:105780000C23336070BD00BF840C0108836B03B130
:105790007047FFF727BF00BF704700BF704700BFCB
:1057A000F0B5134683B00F4601AA1946064606F027
:1057B000F9FFF0B105463046FFF7A4FF0446C0B13B
:1057C00039464FF4DB73019A304601F0F5F90028B1
:1057D0001BDB124B124F1349134AE362EB05E081C6
:1057E000A581E46127626162A26205D4204603B00C
:1057F000F0BD002003B0F0BD304602230022214658
:1058000000F052F9204603B0F0BD0025FFF7C4FFB9
:10581000A581FFF7C3FF2846E9E700BFCD73000865
:105820004973000871730008AD730008024B0A4603
:1058300001461868FFF7B4BFB8060020F8B5234F3B
:105840000C460646FBF7B2FCBB685D6825F0030515
:10585000291B01F6EF7121F47F6121F00F01A1F501
:105860008054B4F5805F07DB0021304601F058FC1E
:10587000BB682B44984204D03046FBF79BFC0020C9
:10588000F8BD6142304601F04BFC01300DD0104BA9
:10589000BA6819682D1B45F001053046091B556093
:1058A0001960FBF787FC0120F8BD0021304601F0AC
:1058B00037FCBA68831A0F2BDEDD064C04492468D6
:1058C00043F00103001B53600860D5E7280800205F
:1058D00074160020340C0020002945D02DE9F04139
:1058E0000D468046FBF762FC55F8047C6A4927F0B8
:1058F0000103A5F10804E2188E685068B24220F056
:10590000030062D0FE0750600BD455F8087CE41BFE
:1059100001F1080EA56875453B446FD0E768EF605C
:10592000BD6015186D68ED0742D543F00102626055
:10593000E350B3F5007F18D2DB085A1C4D6851F8CC
:105940003270A76001209B1000FA03F301EBC20044
:105950001D430838E0604D6041F83240FC6040462D
:10596000BDE8F041FBF726BC70475A0A042A53D819
:105970009A0902F139077F0002F1380501EB87002F
:1059800051F827204449083890424DD0516821F001
:1059900003018B4202D292689042F7D1D068E06056
:1059A000A2608460D4604046BDE8F041FBF702BCD1
:1059B00095683A4FBD4203443FD0D068E86043F059
:1059C000010285606260E350B3E7FF07034407D438
:1059D00055F8082CA41A1344A068E268C2609060CD
:1059E0002F4A126843F00100934260608C60B6D386
:1059F0002C4B40461968FFF721FFB0E711184968A2
:105A0000C90744D49168D268CA60034443F00100D6
:105A100091606060E350A2E7142A17D802F15C0796
:105A20007F0002F15B05A9E7AA104B68012505FA82
:105A300002F213434B600246B1E743F001024C61AE
:105A40000C61E560A5606260E35088E7542A06D8DF
:105A50001A0B02F16F077F0002F16E058EE7B2F5B7
:105A6000AA7F06D8DA0B02F178077F0002F17705EA
:105A700084E740F25450824206D89A0C02F17D0726
:105A80007F0002F17C0579E7FE277E2576E743F06B
:105A900001026260E35062E728080020300800201D
:105AA000300C00207016002000F000B82DE9F04FF7
:105AB0000C4691B091461E46054610B1836B002BF3
:105AC00074D0A38903F48473B3F5847F76D0D4F8BB
:105AD0002880B8F1000F00F04181012E4BD0022E3A
:105AE00008D03EB116232B604FF0FF37384611B077
:105AF000BDE8F08F4FF0000A23695746002B00F0F5
:105B00001881B4F90C2040F61A0391B20B4043B946
:105B100049055FD4944B984500F0F78042F4006249
:105B2000A28121462846FFF711FD07460028DBD158
:105B300033464A46E1692846C0470130D4D0216B3C
:105B400041B104F14003994202D02846FBF721F904
:105B500000232363A3892269226023F402630021C6
:105B6000A381616004F15C00082200F0D7FF384691
:105B700011B0BDE8F08F21462846FFF7E7FCA38966
:105B800003F4805292B2002A00F0B580276D5E07C0
:105B90005DD4180740F1AD80226823690AB1D21A9A
:105BA0001744B9444FF0010A0026A7E7FFF7EEFDBE
:105BB000A38903F48473B3F5847F88D121462846F2
:105BC000FFF7C4FC83E7A3894FF4806243F480634A
:105BD000A381E264002E43D1CB46BAF1000F4ED12F
:105BE000A389DA0440F1AA80206D6368216BC71A8B
:105BF000002900F0AC80E26BBF1A1F442069A36B40
:105C00001B1AFF1A1344BB453FDBFA185A453CD90F
:105C1000C7EB0B073844DB1B84E8090041B104F1F2
:105C20004003994202D02846FBF7B3F800232363D0
:105C3000A38923F02003A38104F15C000822002142
:105C400000F06CFF0027384611B0BDE8F08F6268A5
:105C5000236BBF1A002B4CD0E26B2369BF1AA0E75D
:105C600001AAB4F90E10284600F080F800287FF44D
:105C700058AF059B09EB030BBAF1000FB0D0216BB5
:105C80006368002963D0E26BB7E7E76CE1697F42A4
:105C900007EA0B073A4600232846C04701303FF485
:105CA00040AF2369216B23600023636041B104F19D
:105CB0004003994202D02846FBF76BF80023236388
:105CC000A389BBEB070B23F02003A381B4D02146AB
:105CD000284601F081F900287FF423AF62689345DC
:105CE0003FF61FAF2368CBEB02025B446260236088
:105CF000A2E7236955E73346E1692846C047431CBC
:105D000007463FF4F1AEA38941E7B4F90E1000292C
:105D1000FFF604AF01AA284600F028F830B9029B2C
:105D200003F47043B3F5004F3FF44DAFB4F90C20CA
:105D3000F4E62146284600F07FFAE2E601235246C7
:105D4000E1692846C047431C7FF44FAFE9E622686B
:105D50002069121ABF1A1344002154E71D232B6037
:105D60004FF0FF37C2E600BFAD73000838B50B46F1
:105D7000074C05461146184600232360FBF7A6F999
:105D8000431C00D038BD2368002BFBD02B6038BDEE
:105D9000302A00209368002B76D02DE9F04F8B89B4
:105DA00085B00C4619070190164629D522693AB3E9
:105DB00003F002081FFA88F0356800282FD04FF052
:105DC0000009B44FC846B246B84543464A4628BFC4
:105DD0003B460198B8F1000F50D0E169666AB047C0
:105DE000002871DDDAF808301B1A8144C0EB08087E
:105DF000CAF80830002BE7D1002005B0BDE8F08FCD
:105E00002146019805F0AEFC002840F03A81A389B4
:105E1000356803F002081FFA88F00028CFD113F08C
:105E200001095BD14F4602961FB39A05D4F808804A
:105E30002CD54745C246C0F0A48013F4906F40F0C3
:105E4000B18020685246494600F004FEA0682368ED
:105E5000C8EB00005344A06023603846029A936860
:105E60001B1A81443F1A9360002BC5D0A389002FD1
:105E7000DBD1D5F800906F680835D5E7D5F80090EC
:105E8000D5F8048008359FE7002070472068236913
:105E9000984203D861698F4280F0B780B84528BF27
:105EA000B8464246494600F0D5FDA3682268C8EBD3
:105EB00003034244A3602260002B49D1214601988C
:105EC000FFF744FB002843D0B4F90C3043F0400303
:105ED0004FF0FF30A38105B0BDE8F08F80460290FF
:105EE00082468146B9F1000F2AD0029B002B4CD08C
:105EF000206823696269C845C34628BFCB469842DB
:105F00005F4604D9A36813449B4500F390809345F2
:105F100020DB1346676AE16901985246B847071EBD
:105F2000D2DDB8EB070823D0B368DB1BBA44C7EB5C
:105F30000909B360002B3FF45FAFB9F1000FD4D172
:105F40000023D5F800A0D5F8049002930835C9E7DE
:105F5000404683E75A46514600F07CFDA26823681C
:105F6000CBEB02025B44B8EB0708A2602360DBD1F5
:105F700021460198FFF7EAFA0028A5D1CDF808805C
:105F8000D2E72068B846BA465CE74A460A2150463E
:105F900000F076FC00286FD001300123CAEB000826
:105FA0000293A5E762692068216902EB4208C1EB10
:105FB000000A08EBD8780AF101004FEA6808384473
:105FC0004045424684BF804642465B0542D5114665
:105FD0000198FAF7DAFE8346002855D05246216927
:105FE00000F09EFCA38923F4906343F08003A38117
:105FF000CAEB08030BEB0A00C4F81480C4F810B015
:106000002060A360B846BA461CE76FF00043BB426D
:1060100028BF3B464A4693FBF1F30198666A01FBB1
:1060200003F3E169B04700283FF718AF4CE71A4681
:106030005146039300F00EFD2268039B01981A4419
:1060400022602146FFF782FA039B00287FF43CAFD1
:106050001F4666E70198FAF79AFE83460028C7D1E3
:10606000019D21692846FAF794FEB4F90C300C2200
:1060700023F080032A6029E7012309F10108029334
:1060800036E74FF0FF30B8E6019A0C231360B4F9FD
:106090000C301BE700FCFF7F2DE9F04110F538774D
:1060A0001BD0884600267D68BC68013D0FD4A389BB
:1060B000012B05F1FF3506D9B4F90E300133204626
:1060C00001D0C04706436B1C04F16804EFD13F6860
:1060D000002FE8D13046BDE8F0813E463046BDE8AD
:1060E000F08100BF2DE9F84310F538771FD08846BE
:1060F00006464FF000097D68BC68013D11D4A389B4
:10610000012B05F1FF3508D9B4F90E3001332146D2
:10611000304602D0C04749EA00096B1C04F168040C
:10612000EDD13F68002FE6D14846BDE8F883B94677
:106130004846BDE8F88300BF70B50F4E0F4D761B83
:10614000B61018BF002405D0013455F8043B984719
:10615000A642F9D10A4E0B4D761B09F0F1FFB6109D
:1061600018BF002406D0013455F8043B9847A642D6
:10617000F9D170BD70BD00BF380C0020380C002074
:10618000440C0020380C0020034A044B1268506B6A
:10619000002808BF18467047B8060020BC0600203B
:1061A000044B054A1B685B6B002B08BF134693F832
:1061B00028017047B8060020BC060020D0F8EC008B
:1061C000704700BF08B5034B1868FFF7DDFFD0F834
:1061D000EC0008BDB806002070B50D46B1F90E10F0
:1061E000002990B014461E4614DB01AAFFF7BEFD3D
:1061F00000280FDB029A02F47042A2F50052B2FAB4
:1062000082F252094FF480634FF4006032602360E1
:1062100010B070BDA88900F0800082B2002030600C
:106220001AB14023236010B070BD4FF48063104654
:10623000236010B070BD00BF8A8992070B4606D557
:1062400001F1430201211A601A6159617047F0B5EA
:1062500083B001AB6A460C460546FFF7BDFF0099C7
:1062600006462846FAF791FDB4F90C30D0B1019AF0
:10627000124F0099EF6343F08003A38120602061F7
:1062800061611AB93343A38103B0F0BD2846B4F964
:106290000E1006F0C1FAB4F90C300028F2D043F029
:1062A0000103EFE79A05EFD404F1430243F0020340
:1062B0000121A381226022616161E5E7D9550008CF
:1062C000024B01461868FAF760BD00BFB80600200F
:1062D000024B01461868FAF75CBD00BFB806002003
:1062E0002DE9F04F01F10B05162D83B0064640F263
:1062F0009F8035F0070500F1BF80A94200F2BC8005
:10630000FAF754FFB5F5FC7FC0F09C826B0A00F0F1
:10631000BA80042B00F28381A80900F1390E4FEAFC
:106320004E033830C44F07EB8303A3F108015C68C8
:10633000A14207D1ACE0002A80F2AC80E468A1421F
:1063400000F0A680636823F003035A1B0F2AF2DDD6
:10635000B9493C6901F1080E744500F0B3816368E6
:1063600023F003035A1B0F2A00F39981002AC1F876
:1063700014E0C1F810E080F29E80B3F5007F80F059
:106380006781DB0803F1010C01229B1002FA03F381
:106390004A6851F83C80C4F8088001EBCC091A43E4
:1063A000A9F10803E3604A6041F83C40C8F80C409A
:1063B000831001249C40944200F28A80144206D14A
:1063C00020F003006400144200F10400FAD007EB4F
:1063D000C009CC468046DCF80C108C4507D173E12F
:1063E000002A80F28181C9688C4500F06D814B687C
:1063F00023F003035A1B0F2AF2DD0C46D1F80CC020
:1064000054F8088F4B1945F001054D6042F0010129
:10641000C8F80CC03046CCF808807B613B61C3F8FB
:106420000CE0C3F808E059609A50FAF7C3FE1FE089
:10643000102921D8FAF7BAFE1025062302207E4F34
:1064400007EB8303A3F108025C68944200F04581E6
:106450006368E168A56823F00303234430465A6863
:10646000E96042F001028D605A60FAF7A3FE083439
:10647000204603B0BDE8F08F00240C232046336093
:1064800003B0BDE8F08F80234FF0400E3F2049E776
:1064900070465DE72344E1685A68A56842F001024E
:1064A000E96030468D605A60FAF784FE0834204671
:1064B00003B0BDE8F08F234430465A6842F0010231
:1064C0005A60FAF777FE0834204603B0BDE8F08F33
:1064D000BC68636823F00308A84504D3C5EB080330
:1064E0000F2B00F38C80554BDFF860911A68D9F8B8
:1064F000003001332A4404EB080A00F0608102F501
:1065000080520F3222F47F6222F00F021146304691
:10651000019200F005FEB0F1FF3F8346019A00F0C2
:106520005881824500F2FC80454B1968DA451144D8
:10653000196000F05381D9F80000DFF810E1013054
:106540001BBFCAEB0B0A5144CEF800B019601BF018
:10655000070100F01781C1F10800C1F580518344A3
:1065600008315A44C2F30B02C2EB010949463046D6
:10657000019300F0D5FD431C019B00F03F81CBEB64
:1065800000024A4442F001021968C7F808B04944C1
:10659000BC42CBF804201960DFF8A49016D0B8F103
:1065A0000F0F40F2FD806268A8F10C0323F007038F
:1065B000E01802F001024FF0050E1A430F2B626043
:1065C000C0F804E0C0F808E000F21C811D4BBC6874
:1065D0001A68914288BF19601B4B1A689142626821
:1065E00088BF196022F003029542A2EB050301D88F
:1065F0000F2B04DC3046FAF7DDFD002438E7621982
:1066000043F0010345F0010565603046BA60536010
:10661000FAF7D0FD0834204603B0BDE8F08F142B04
:1066200071D9542B00F2A480280B00F16F0E4FEAB1
:106630004E036E3076E600BF28080020701600205A
:10664000741600206C16002068160020340C002000
:106650005A0A042A5ED9142A00F2B38002F15C01BE
:1066600049005B3207EB810C57F82110DFF8DC8121
:10667000ACF1080C8C4500F088804A6822F00302D7
:10668000934202D289688C45F7D1D1F80CC07A6860
:10669000C4F80CC0A160CCF80840CC6088E663194F
:1066A00042F0010745F00105656030464B610B6122
:1066B000C3F80CE0C3F808E05F609A500834FAF7BA
:1066C00079FDD5E64A6873E608F1010818F0030F72
:1066D0000CF1080C7FF47FAE30E0DC68A34208BF09
:1066E00002303FF435AEB3E60B440C465A68C96835
:1066F00054F8085F42F001025A603046E9608D604C
:10670000FAF758FDB4E603F15C0E03F15B004FEAC3
:106710004E0307E69A0902F1390149003832A1E730
:10672000BC424A4B3FF400AF9C68626822F003020F
:106730005AE759F80839994540F0828010F0030F64
:1067400000F1FF30F5D17B6823EA04037B6064002D
:106750009C423FF6BDAE002C3FF4BAAE1C42404610
:106760007FF435AE64001C4200F10400FAD02EE63E
:10677000B3F5AA7F18D8E80B00F1780E4FEA4E0364
:106780007730CFE54FF48051EBE60121D8F80430A3
:10679000921001FA02F21A43C8F80420614677E722
:1067A0000123CBF8043025E740F25452934220D81D
:1067B000A80C00F17D0E4FEA4E037C30B2E510329A
:1067C000A4E6542A26D81A0B02F16F0149006E3252
:1067D00048E7BC68626822F0030205E7CAF30B00D1
:1067E00000287FF4A8AE4244BB6842F001025A6020
:1067F000ECE6FE234FF07F0E7E2093E501224FF062
:106800000009C1E604F108013046FAF7C2FAD9F8E6
:106810000010DBE6B2F5AA7F05D8DA0B02F17801A9
:10682000490077321EE740F254518A4205D89A0C4B
:1068300002F17D0149007C3214E7FE217E2211E73E
:106840007B6884E7E808431C5B00F8E52808002023
:1068500082B049B15AB16BB113780B601278101C39
:1068600018BF012002B0704701A9002AF3D11046D9
:1068700002B070476FF00100F4E700BF00000000B5
:1068800001F0FF01102A2BDB10F0070F08D010F8E1
:10689000013B013A8B422DD010F0070F42B3F6D1E5
:1068A000F0B441EA012141EA014122F007047FF0FE
:1068B00000070023F0E80256083C85EA010586EA55
:1068C000010685FA47F5A3FA87F586FA47F6A5FA91
:1068D00087F68EB9EED1F0BC01F0FF0102F007029D
:1068E00032B110F8013B013A83EA010313B1F8D148
:1068F0000020704701387047002D06BF3546033829
:10690000073815F0010F07D1013015F4807F02BF61
:10691000013015F4C03F0130F0BC0138704700BFB2
:10692000844641EA000313F003036DD1403A41D39A
:1069300051F8043B40F8043B51F8043B40F8043B59
:1069400051F8043B40F8043B51F8043B40F8043B49
:1069500051F8043B40F8043B51F8043B40F8043B39
:1069600051F8043B40F8043B51F8043B40F8043B29
:1069700051F8043B40F8043B51F8043B40F8043B19
:1069800051F8043B40F8043B51F8043B40F8043B09
:1069900051F8043B40F8043B51F8043B40F8043BF9
:1069A00051F8043B40F8043B51F8043B40F8043BE9
:1069B000403ABDD2303211D351F8043B40F8043B89
:1069C00051F8043B40F8043B51F8043B40F8043BC9
:1069D00051F8043B40F8043B103AEDD20C3205D399
:1069E00051F8043B40F8043B043AF9D2043208D091
:1069F000D2071CBF11F8013B00F8013B01D30B8803
:106A000003806046704700BF082A13D38B078DD0E0
:106A100010F003038AD0C3F10403D21ADB071CBFB2
:106A200011F8013B00F8013B80D331F8023B20F81C
:106A3000023B7BE7043AD9D3013A11F8013B00F855
:106A4000013BF9D20B7803704B7843708B788370DD
:106A5000604670478842F0B50DD98B1898420AD22B
:106A60008118002A51D09A1A13F8014D01F8014DEE
:106A70009342F9D1F0BD0F2A48D941EA00039B07A0
:106A800046D100F1100401F11003154653F8106CC3
:106A900044F8106C53F80C6C44F80C6C53F8086C08
:106AA00044F8086C103D53F8046C44F8046C0F2D46
:106AB00003F1100304F11004E8D8A2F1100323F04D
:106AC0000F0302F00F0E1033BEF1030F19440344FD
:106AD00021D91E1F0D467446043C55F8047B46F828
:106AE000047F032CF8D8AEF1040424F0030404342A
:106AF0002344214402F0030262B1013B0A4411F82D
:106B0000014B03F8014F8A42F9D1F0BD0346F3E788
:106B10000346F2E7F0BD7246EEE700BF70B48407AB
:106B200046D0541E002A41D0CDB2034602E0621E78
:106B3000E4B3144603F8015B9A07F8D1032C2ED96D
:106B4000CDB245EA05250F2C45EA054519D903F1D3
:106B500010022646103E0F2E42F8105C42F80C5CE4
:106B600042F8085C42F8045C02F11002F2D8A4F189
:106B7000100222F00F0204F00F041032032C134411
:106B80000DD91E462246043A032A46F8045BFAD879
:106B9000221F22F003020432134404F003042CB138
:106BA000C9B21C4403F8011BA342FBD170BC70475F
:106BB00014460346C2E700BF70B50D46084C1146A7
:106BC00006461A46284600232360FAF71DFB431C9D
:106BD00000D070BD2368002BFBD0336070BD00BFB8
:106BE000302A00202DE9F04F174683B0002900F02D
:106BF000C1800E46814607F10B05FAF7D7FA56F821
:106C000004EC162D2EF00304A6F1080840D810223B
:106C10001546AF4241D8944275DAC94B996808EBE2
:106C200004008842416800F0D98021F00103034448
:106C30005B68DB077DD51EF0010F35D0394648462D
:106C4000FAF7A3F80746E0B156F8043C23F0010335
:106C50004344A0F108029A4200F04481221F242AF2
:106C600000F23181132A00F2048103463246116892
:106C700019605168596092689A6031464846FAF73F
:106C800088F84846FAF796FA384603B0BDE8F08F20
:106C900025F00705002D2A46BBDA0C230020C9F891
:106CA000003003B0BDE8F08F56F8083CC3EB080A8B
:106CB000DAF8043023F0030C04EB0C039342BDDB41
:106CC0005746DAF80C1057F8080F221F242AC16023
:106CD000886000F21781132A40F212813168CAF8E5
:106CE00008107168CAF80C101B2A00F22B810836B4
:106CF0000AF110023168116071685160B1689160E9
:106D00003E461C46D046631B0F2B1DD8D8F80430D6
:106D100003F0010323434444C8F80430636843F09C
:106D2000010363604846FAF745FA304603B0BDE810
:106D3000F08F21F003012144914221DBC368826876
:106D40000C46D3609A60DEE7D8F8042008EB050112
:106D500002F00102154343F001020B44C8F804504D
:106D60004A605A6842F0010208315A604846FAF710
:106D700010F8D7E7114603B0BDE8F04FFAF705B8B1
:106D80001EF0010F7FF45AAF56F8083CC3EB080A17
:106D9000DAF8043023F0030C01EB0C0E96458BDB84
:106DA000C36882685746D3609A6057F8081FDAF8BC
:106DB0000C30CB60221F242A996000F29980132A9C
:106DC00062D93368CAF808307368CAF80C301B2AD5
:106DD00000F2A08008360AF1100356E021F0030B00
:106DE000A34405F11000834559DA1EF0010F7FF42A
:106DF00025AF56F8081CC1EB080ADAF8041021F098
:106E0000030CE34458453FF757AF5746DAF80C10E8
:106E100057F8080F221F242AC160886000F2B4804E
:106E2000132A40F2A5803168CAF808107168CAF8C0
:106E30000C101B2A00F2AF8008360AF110023168EC
:106E4000116071685160B16891600AEB0501C5EB92
:106E50000B0242F0010299604A60DAF8043003F054
:106E600001031D434846CAF80450FAF7A3F938460F
:106E70005CE733680360736843601B2A27D800F11E
:106E8000080306F10802F2E63B4632681A607268AF
:106E90005A60B2689A603E467446D04633E708EBC3
:106EA0000501C5EB0B0B4BF0010299604A6056F8E7
:106EB000043C03F001031D43484646F8045CFAF71E
:106EC00079F9304632E73146FFF7C4FDD5E6B368BD
:106ED0008360F368C360242A28D000F1100306F110
:106EE0001002C4E650F8043C23F003031C440AE7F4
:106EF000314638467446D046FFF7ACFD3E4602E7C1
:106F00003A46F7E6314638461C46D046FFF7A2FD22
:106F10003E46F8E6B368CAF81030F368CAF8143091
:106F2000242A1BD010360AF11803AEE73369036137
:106F30007369436106F1180200F1180397E600BF78
:106F400028080020B168CAF81010F168CAF81410B7
:106F5000242A0FD010360AF11802CBE63369CAF89A
:106F600018307369CAF81C3018360AF120038CE710
:106F70003A4664E73269CAF818207269CAF81C20D8
:106F800018360AF12002B5E6314638460193FFF77C
:106F900061FD019B59E7B168CAF81010F168CAF8A1
:106FA0001410242A03D010360AF1180247E7326978
:106FB000CAF818207269CAF81C2018360AF1200293
:106FC0003DE700BF838903F00903092B01D00020AE
:106FD0007047FEF7D1BA00BFF8B50C46054610B1B0
:106FE000836B002B45D0B4F90C309AB2970407D4C8
:106FF000626E43F4005322F400526266A3819AB297
:1070000000219606616031D4500722D5216B61B111
:1070100004F14003994202D02846F9F7BAFEE36B27
:10702000636000202063002B3FD12369002B4CD0EC
:10703000B4F90C70BEB2B3071ED122692260284693
:107040006369256AE169A8470028606009DD0020BE
:10705000F8BDD1063ED512072AD443F00403A3811C
:10706000E3E7A38919D143F02003A3814FF0FF3058
:10707000F8BDFEF78BFBB6E71A4B1B4918680123D6
:10708000A38106F00906FFF707F8092EA781D4D1DE
:1070900021462846FEF7B6F9CFE7002243F0400329
:1070A000A38162604FF0FF30F8BDA36B2360F8BD91
:1070B00021462846FEF74AFA0028D7D1B4F90C3009
:1070C000A060A06123F00803C7E721462846FFF728
:1070D000B3F8ADE743F0400309222A604FF0FF30D8
:1070E000A381F8BD840C0108C56F000838B50C46B3
:1070F000054608B1836B63B128462146FFF76CFF54
:1071000050B994E80C00013B511C84E80A00107847
:1071100038BDFEF73BFBEFE74FF0FF3038BD00BF57
:1071200038B5074C0023054608462360F9F7E2FF0F
:10713000431C00D038BD2368002BFBD02B6038BD2A
:10714000302A002000290CBF022200224FF4806365
:1071500000F000B82DE9F043514C256883B0044697
:107160000F4690461E4615B1AB6B002B79D0B8F197
:10717000020F04D0B8F1010F7FD8002E7DDB21462D
:107180002846FEF7E3F9216B41B104F1400399422F
:1071900002D02846F9F7FDFD00232363B4F90C3033
:1071A0000022A26162601A0654D423F44A6323F0D9
:1071B0000303B8F1020FA38139D001AB6A4621461F
:1071C0002846FFF709F8A3891843A08126B327B3FF
:1071D000AB6B002B4DD0009BB4F90C0027609E4296
:1071E0001CBF40F40060A081B8F1010F08BF40F05F
:1071F000010083B208BFA08103F0080080B22761BC
:10720000666118B313F001002FD000207642A6610A
:10721000A06003B0BDE8F083009E3046FFF750F851
:10722000074668B3A38943F08003A381D0E7002019
:1072300004F1430243F0020300250121A381A5606C
:1072400022602261616103B0BDE8F083A06003B0F9
:10725000BDE8F08321692846F9F79BFDB4F90C30AD
:10726000A3E72846FEF792FA81E7A66003B0BDE8DF
:10727000F0832846FEF78AFAADE74FF0FF30E2E7E9
:10728000DDF80090B14506D04846FFF719F80746EB
:1072900008B14E46C6E7B4F90C304FF0FF30C7E7EF
:1072A000B80600200EB4F0B59CB021AB0F4953F8DE
:1072B000042B019305466FF00044086802954FF4D3
:1072C00002774FF6FF7602A90695ADF81470049484
:1072D0000794ADF8166000F0E7FA029B00221A70DE
:1072E0001CB0BDE8F04003B0704700BFB8060020F6
:1072F0000EB4F0B59CB021AC4FF4017254F8046B9D
:10730000ADF814200290069000F0DAF90C4B0194CD
:10731000054632460B4F1868039523464FF6FF7615
:10732000002402A907950A970E941394ADF81660ED
:1073300001F034FE1CB0BDE8F04003B0704700BF60
:10734000B80600206D73000810B50C46B1F90E1098
:1073500005F03CFF002803DB236D0344236510BDCB
:10736000A38923F48053A38110BD00BF0020704780
:107370002DE9F0411646B1F90C201F46D3050C4605
:10738000054607D500220223B1F90E1005F074FA64
:10739000B4F90C20B4F90E1022F48052A2813B46BD
:1073A00032462846BDE8F04104F0C6B910B50C4697
:1073B000B1F90E1005F060FAA389421C0EBF23F448
:1073C000805343F480532065A38110BDB1F90E10A2
:1073D00004F02CBA000000000000000000000000D3
:1073E000A2EB0300704700BF02780B78012A28BF88
:1073F0009A42F5D16DE9044540EA0104CDE90267FE
:107400006FF0000C4FEA447212B380EA010414F0EA
:10741000070F6AD100F0070420F0070004F003050D
:1074200021F007014FEAC505F0E8042314F0040F2A
:10743000F1E804670CFA05F462EA040266EA04065D
:107440000AD063EA0403624667EA0407664603E07B
:10745000F0E80423F1E8046782FA4CF582EA0604B6
:10746000A4FA8CF46CBB83FA4CF583EA0705A5FA01
:107470008CF595B950E9022351E9026782FA4CF57F
:1074800082EA0604A4FA8CF483FA4CF583EA070531
:10749000A5FA8CF52543DBD09CB92DBAB5FA85F455
:1074A00024F0070427FA04F1DDE9026723FA04F364
:1074B00003F0FF0001F0FF01FDE80445A0EB01002F
:1074C000704724BAB4FA84F424F0070426FA04F1CD
:1074D000DDE9026722FA04F202F0FF0001F0FF0189
:1074E000FDE80445A0EB0100704714F0030F3CD108
:1074F00010F0030428D150F8082B51F8083B82FA09
:107500004CF582EA0305A5FA8CF55DB950F8042C18
:1075100051F8043C82FA4CF582EA0305A5FA8CF591
:10752000002DE8D02DBAB5FA85F424F0070423FA2B
:1075300004F122FA04F202F0FF0001F0FF01FDE87D
:107540000445A0EB010070474FEAC40420F003009B
:1075500050F8082B21F0030151F8083B0CFA04F411
:1075600062EA040263EA0403C9E710F003041AD0D4
:10757000A1EB040120F00300E40750F8042B06D02F
:107580000FD28B785FFAA2F4E41A06D12BB1CB7834
:107590005FFAB2F4E41A00D11BB920465DF8104B33
:1075A000704701F1040150F8042BCC0721F00301CE
:1075B00051F8043B48D824D222F07F4482FA4CF59B
:1075C00094EA1325A5FA8CF50AD165B951F8043B64
:1075D00084EA0204B4EB036F0ED150F8042BEBE7FE
:1075E0004FEA132355E035F07F454DD10878FDE88B
:1075F0000445C0F1000070474FEA126203F0FF0338
:1076000047E002EA1C4482FA4CF594EA1345A5FAD5
:107610008CF50AD165B951F8043B84EA0204B4EB55
:10762000034F0CD150F8042BEBE74FEA134330E043
:1076300015EA1C4528D10B884FEA124229E04FEA8F
:10764000124203EA1C4324E002F0FF0482FA4CF5E4
:1076500094EA1365A5FA8CF50AD165B951F8043B93
:1076600084EA0204B4EB032F09D150F8042BEBE7B2
:107670004FEA13630DE015F0FF0F05D10B684FEAD9
:10768000122223F07F4304E04FF00000FDE80445A0
:10769000704712BA1BBA82FA4CF482EA0304A4FAC5
:1076A0008CF5B5FA85F402FA04F203FA04F34FEA12
:1076B0001260FDE80445A0EB136070470000000075
:1076C00090F800F06DE9024520F007016FF0000C22
:1076D00010F0070491F820F040F049804FF00004CA
:1076E0006FF00700D1E9002391F840F000F10800A5
:1076F00082FA4CF2A4FA8CF283FA4CF3A2FA8CF3DD
:107700004BBBD1E9022382FA4CF200F10800A4FA43
:107710008CF283FA4CF3A2FA8CF3E3B9D1E9042397
:1077200082FA4CF200F10800A4FA8CF283FA4CF3CE
:10773000A2FA8CF37BB9D1E9062301F1200182FA88
:107740004CF200F10800A4FA8CF283FA4CF3A2FA8E
:107750008CF3002BC6D0002A04BF04301A4612BA9C
:10776000B2FA82F2FDE8024500EBD2007047D1E99F
:10777000002304F00305C4F100004FEAC50514F02E
:10778000040F91F840F00CFA05F562EA05021CBFFF
:1077900063EA050362464FF00004A9E7002A41D0DE
:1077A00040EA010313F00303F0B425D1032A23D9DF
:1077B00004680D68AC421FD1043A35D0A4F10135FC
:1077C00025EA040414F0803F31D1071D0D1D0DE0A2
:1077D00057F8043B0E68A3F10134B34224EA0304D2
:1077E0000AD1043A20D014F0803F23D1032A29463D
:1077F000384605F10405EBD803780C789C4202F179
:10780000FF320CD182B114B916E06AB17BB110F825
:10781000013F11F8014FA34202F1FF32F5D0181BCE
:10782000F0BC7047104670471046F0BC70471846D1
:10783000F0BC70470020F3E72046F1E740EA01037F
:107840009B0770B42BD1032A29D90C460346214645
:1078500054F8046BA6F1013525EA060515F0803FC2
:1078600006D1043A032A43F8046B2146EFD8A2B1AB
:107870000C781C70013A013301313CB16AB111F846
:10788000014B03F8014B013A002CF7D12AB11A44FD
:10789000002103F8011B9A42FBD170BC70470346DC
:1078A000E5E700BF000000002DE9F04FC5B00C4631
:1078B000099115460E930A9004F0D0FF03681793C0
:1078C0001846FFF7FDFEA38916901E0603D523690F
:1078D000002B01F033819FEDA67B00238DED147BFF
:1078E00012932993289319930B93DFF890A234AB4A
:1078F00027939946A84698F800304446EBB1252BCB
:1079000002D11AE0252B03D014F8013F002BF9D146
:10791000C8EB04058DB1289B299AC9F80080013372
:107920002A44072BC9F804502992289300F3A68013
:1079300009F108090B9B2B440B932378002B00F0D3
:10794000A68000231A468DF87F3019460C930793C2
:107950004FF0FF3B637804F101085D4608F1010830
:10796000A3F12000582800F23484DFE810F0A003CF
:1079700032043204A80332043204320432043204E2
:107980003204AF03BD0332045D00E200320409019A
:10799000100110011001100110011001100110015F
:1079A000100132043204320432043204320432044C
:1079B0003204320432042001860232048602320488
:1079C000320432043204D40232043204E5023204B6
:1079D00032043204320432040F03320432043D0311
:1079E00032043204320432043204320432043204E7
:1079F000320432047E0391038602860286029903D2
:107A0000910332043204070432041204A300640018
:107A1000C2033204C9033204EA0332043204F2031B
:107A20000C980E9340420C90079B43F0040307937D
:107A300098F8003092E70E98AB46002104688DF864
:107A40007F10071D0798302378228B458DF88030F2
:107A50004FF000058DF8812040F00203C0F2D6837C
:107A600020F0800343F00203079354EA05030E97C6
:107A700000F0A2830F4611923F48E6E227AA099937
:107A80000A9806F0EFFE48B90DF1D00952E7299B9C
:107A900023B10A98099927AA06F0E4FE099B9B895D
:107AA00013F0400F0B9B18BF4FF0FF33184645B043
:107AB000BDE8F08F1193AB46002A41F03B82079A54
:107AC00012F0200300F046820E9F073727F00703CD
:107AD000002703F10801BB450E91D3E900458DF85D
:107AE0007F70C0F2648722F08003079354EA050395
:107AF00000F0848334AEE20842EA4572E90804F0FB
:107B000007030D461446303354EA050206F8013DDA
:107B1000F1D1079AD10740F18F80302B00F08C8093
:107B20003022731E06F8012C34AAD21A0D921E467A
:107B300085E098F800302A2B08F1010401F0EC816F
:107B4000A3F13000092898BF002501F28E8114F8B6
:107B5000013B05EB850500EB4505A3F13000092845
:107B6000F5D945EAE575A046FAE600BFAFF3008017
:107B70000000000000000000CC0C0108980C010877
:107B8000079B43F08003079398F80030E6E6A3F1E3
:107B9000300000231C4618F8013B04EB840400EB82
:107BA0004404A3F130000928F5D90C94D8E61193C8
:107BB000AB46002A41F0CC81079B43F010030793AA
:107BC000079B9C0640F137850E9F073727F0070774
:107BD000D7E9002307F108010E9114461D46002A3B
:107BE00073F10003C0F26285BBF1000F9DF87F7056
:107BF000C0F23F85079B23F08003079354EA0503F7
:107C000000F0E881002D08BF0A2CC0F0E88134AEF6
:107C1000204629460A22002308F006F9303206F8E9
:107C2000012D2046294600230A2208F0FDF80446CB
:107C30000D4654EA0503EBD134AB9B1B0D930D9B12
:107C40005B45B8BF5B4608930023139317B1089BAD
:107C500001330893079B13F002030F9302D0089B94
:107C600002330893079B13F08403109340F0DB82E8
:107C70000C9B089A9D1A002D40F3D582102D29994E
:107C8000289AA84F27DD189648461024B946099E21
:107C90002F460A9D04E0103F102F00F1080016DD6A
:107CA0000132A04B28921031072A299180E8180050
:107CB000F1DD27AA3146284606F0D4FD00287FF4DE
:107CC000EDAE103F102F2999289A34A8E8DC189EB1
:107CD0003D464F46814601326C18072A2994289266
:107CE000C9F80070C9F8045000F32D849DF87F7026
:107CF00009F1080977B1289B013301340DF17F01A7
:107D00000122072B2994289389E8060000F3A58314
:107D100009F108090F9B6BB1289B0133023420A99C
:107D20000222072B2994289389E8060000F3A183F7
:107D300009F10809109B802B00F0E1820D9BC3EB39
:107D40000B07002F33DD784A289B0F92102F22DD7E
:107D500022464FF0100B0A9D099C04E0103F102FA3
:107D600009F1080916DD01331032072B29922893F7
:107D700089E8000CF2DD27AA2146284606F072FDAC
:107D800000287FF48BAE103F102F299A289B0DF10D
:107D9000D009E8DC144601330F9A28933C44072BA2
:107DA000299489E8840000F34C8309F10809079BB2
:107DB000DA0500F13A82289B0D99C9F80060013379
:107DC0000C44072B2994C9F80410289300F323834B
:107DD00009F10809079B59073FD50C9B089A9D1A82
:107DE000002D3ADD102D289B4E4F23DD2246102614
:107DF000DDF828B0099C04E0103D102D09F10809B8
:107E000017DD0133474928931032072B299289E85F
:107E10004200F1DD27AA2146584606F023FD00283E
:107E20007FF43CAE103D102D299A289B0DF1D0090E
:107E3000E7DC144601332C44072B29942893C9F816
:107E40000070C9F8045008DD27AA09990A9806F0BD
:107E500009FD00287FF422AE299C0B9B0C9A0899FF
:107E60008A42ACBF9B185B180B93002C40F0DF825A
:107E7000002328930DF1D0093DE51193AB46002A6C
:107E800041F06A80079B0E9F1A0707F1070740F130
:107E9000768527F0070393ED007B8DED147B03F1CE
:107EA00008020E92DDE9141222F000431A911B938E
:107EB000DDE91A454FF0FF32204629461B4B07F0FB
:107EC00005FF002840F0DA844FF0FF32174B2046C0
:107ED000294607F0DDFE002840F0D0840022002370
:107EE000DDE9140107F0CAFE002840F05A879DF82A
:107EF0007F700F4E0F4B079921F080010791119968
:107F000003224FF0000B08924729D8BF1E460D925E
:107F1000CDF84CB09AE6079B43F00803079398F816
:107F200000301BE5EC0C0108980C0108FFFFEF7F07
:107F3000AC0C0108A80C01081193AB46002A41F0D3
:107F40001780079B43F010030793079A12F0200352
:107F50007FF4BAAD079911F0100200F05B840E981F
:107F60008DF87F30BBF1000F046800F104074FF07B
:107F70000005C0F21B850A4622F08002079254EAEF
:107F800005020E9700F03A811F46B3E51193AB4608
:107F9000002A40F0E987079B43F010030793079AF4
:107FA00012F0200300F02C830E9F073727F0070301
:107FB000002703F10801BB450E91D3E900458DF878
:107FC0007F70C0F2568322F08003079354EA0503C2
:107FD0007FF418AEBBF1000F00F0F580002444AE32
:107FE000303406F8414D27E61193AB46002A40F0A5
:107FF000B787079BAF489D0640F1B5800E9F0737B6
:1080000027F00703D3E9004503F108020E92079A0F
:1080100012F0010700F0398254EA050300F00485EC
:108020009DF844208DF881200027079A8DF87F70F5
:108030003023BB458DF8803042F00203C0F2B68693
:1080400022F0800343F00203079334AE230904F0C7
:108050000F0143EA05732A091C461546435C06F8DE
:10806000013D54EA0503F1D1E6E50E9911930A6842
:108070008DF8A82000230A461F468DF87F30043271
:1080800001230893BB4613970E920D932AAEE1E5A8
:108090001193AB46002A3FF493AD8DF87F108FE526
:1080A000079B43F04003079398F8003056E498F894
:1080B000003000297FF452AC012220214EE4079BBE
:1080C00043F00103079398F8003047E40E9C2368BF
:1080D0000C9318460028234603F10403FFF6A0ACD6
:1080E0000E9398F8003039E498F8003001222B21E3
:1080F00034E4079B43F02003079398F800302DE405
:108100000E9A1193166800248DF87F40171D002EDB
:1081100000F02186002DC0F266852A4621463046B1
:10812000FEF7AEFB002800F06B86831B0D93A34681
:1081300023EAE3730E970893CDF84CB09DF87F7057
:1081400084E51193AB46002A3FF429AF8DF87F10E8
:1081500025E71193AB46002A40F01687079B564847
:108160009D063FF54BAF079BDC0640F140840E9A1D
:108170001346043314680E93002548E798F800303E
:108180006C2B00F0C484079840F010000790FFF7B4
:10819000E5BB002A40F0F486079B9B0640F157831D
:1081A0000E9A0B991368CD170846043229460E9291
:1081B000C3E90001FFF79FBB3F481192BBF1000FDD
:1081C00040F074815F464FF0000BCDF834B034AE10
:1081D00035E51193002A40F0CF86119A002A3FF42A
:1081E00056AC002301211F4608918DF8A8208DF878
:1081F0007F309B4613930D912AAE2BE5BBF1000F08
:1082000000F0168600270024002573E42A4807930F
:10821000119254EA05030E974FF000077FF415AF53
:108220000024002511E7299C64E5119B652B40F390
:10823000AA8000220023DDE9140107F015FD0028C3
:1082400000F03681289B1D4AC9F800200133013413
:108250000122072B29942893C9F8042000F3F08306
:1082600009F10809219B129A934203DB079BDB0764
:108270007FF5B0AD289B1699179AC9F800200133F5
:108280000C44072B2994C9F80410289300F349845F
:1082900009F10809129B5D1E002D7FF79BAD084A6E
:1082A000289B0F92102D40F3E98110260A9FDDF8DC
:1082B00024B00DE0B80C0108CC0C0108E80C010852
:1082C000980C010809F10809103D102D40F3D681E2
:1082D00001331034072B29942893C9F800A0C9F85A
:1082E0000460EFDD27AA5946384606F0BBFA00289D
:1082F0007FF4D4AB299C289B0DF1D009E4E70C9BBB
:10830000089A9F1A002F7FF719ADBC4A289B0F923D
:10831000102F2BDD4A462146B946102537460A9CC8
:10832000099E06E0A9F11009B9F1100F02F1080247
:1083300018DD01331031072B29912893C2F800A0D2
:108340005560EFDD27AA3146204606F08BFA00285B
:108350007FF4A4ABA9F11009B9F1100F2999289B5A
:1083600034AAE6DC3E460C464F46914601330F9A4E
:1083700028933C44072B299489E8840000F33D822C
:1083800009F10809DAE4129B289D012B40F30A82C7
:10839000013501340123072D29942895C9F800607F
:1083A000C9F8043000F30F8209F10809169A179BE7
:1083B000C9F8003001351444072D29942895C9F8CF
:1083C000042000F30D8209F1080900230022DDE9F1
:1083D000140107F049FC129B002840F0C380013BC8
:1083E000013501361C44072D28952994C9F80060F1
:1083F000C9F8043000F3F58009F10809199AC9F8A1
:1084000004200135144423AB072D29942895C9F87D
:1084100000307FF7DDAC27AA09990A9806F022FA06
:1084200000287FF43BAB299C0DF1D009D2E427AAA8
:1084300009990A9806F016FA00283FF419ADFFF7DB
:108440002DBB27AA09990A9806F00CFA00287FF498
:1084500025AB299C0DF1D009A9E427AA09990A980E
:1084600006F000FA00287FF419AB299C0DF1D00921
:1084700050E427AA09990A9806F0F4F900287FF435
:108480000DAB299C0DF1D00954E4BBF1000F8DF820
:108490007F70C0F2E18222F08003079354EA050363
:1084A0007FF4D3ADBBF1000F3FF48CAE0027B7E6ED
:1084B000219D002D40F3D382139B129A9342A8BFB3
:1084C0001346002B1D460DDD289BC9F800600133C3
:1084D0002C44072B2994C9F80450289300F3AE8349
:1084E00009F10809139B002DA8BF5B1B002B1D463B
:1084F00040F3F880414A289B0F92102D40F385826B
:1085000022461027DDF828B0099C05E009F108098A
:10851000103D102D40F3788201331032072B299241
:108520002893C9F800A0C9F80470EFDD27AA2146F6
:10853000584606F097F900287FF4B0AA299A289B9C
:108540000DF1D009E4E727AA09990A9806F08AF9FB
:1085500000287FF4A3AA9DF87F70299C0DF1D00913
:10856000FFF7C8BB5E1E002E7FF748AF234B0F936B
:10857000102E2CDDCDF834801027B046DDF828B061
:10858000099E06E0A8F11008B8F1100F09F10809DA
:108590001ADD01351034072D29942895C9F800A05B
:1085A000C9F80470EEDD27AA3146584606F05AF99C
:1085B00000287FF473AAA8F11008B8F1100F299CC5
:1085C000289D0DF1D009E4DC4646DDF834800F9B90
:1085D00001353444072D2994289589E848007FF710
:1085E0000BAF27AA09990A9806F03CF900287FF4F6
:1085F00055AA299C289D0DF1D009FFE6980C010889
:10860000079911F0100200F0D5810E988DF87F3097
:10861000BBF1000F046800F104074FF0000526DBF2
:108620000A4622F08002079254EA05020E971F467E
:108630007FF4E8AACEE4079BD8062AD4079B590604
:1086400027D50E99B1F900400431E51722462B4693
:108650000E91FFF7C4BA0E998DF87F30BBF1000F71
:108660000C6801F104074FF0000580F24E820E976E
:108670001F4654EA05037FF4C5AAB0E401330F9AFC
:1086800028932C44072B299489E824007FF7A0AB7A
:10869000C1E60E9A146813460433E51722460E937A
:1086A000002A2B4673F10003BFF69EAA64424FF0E6
:1086B0002D0765EB4505BBF1000F8DF87F70FFF6C8
:1086C000A1AA079B23F080030793FFF79BBA27AA71
:1086D00009990A9806F0C6F800287FF4DFA9299CBA
:1086E0000DF1D009139A219B32441746129A9342F6
:1086F00047DB079AD50744D412990E44F51BCB1AD1
:108700009D42A8BF1D46002D2E460DDD289AC9F8B2
:10871000007001322C44072A2994C9F80450289289
:1087200000F30A8309F10809002EACBF9D1B1D460A
:10873000002D7FF74FABBB4A289B0F92102D9DDD7C
:1087400010260A9FDDF824B004E009F10809103D65
:10875000102D93DD01331034072B29942893C9F889
:1087600000A0C9F80460F0DD27AA5946384606F093
:1087700079F800287FF492A9299C289B0DF1D00953
:10878000E5E7289A16981799C9F8001001320444B1
:10879000072A2994C9F80400289200F3B98209F144
:1087A0000809A9E7079BD8073FF5F2AD0135013469
:1087B0000123072D29942895C9F80060C9F80430D1
:1087C0007FF71AAE0DE727AA09990A9806F04AF82A
:1087D00000287FF463A9299C289D0DF1D009E5E5C7
:1087E00027AA09990A9806F03DF800287FF456A9AF
:1087F000299C289D0DF1D009E7E527AA09990A9837
:1088000006F030F800287FF449A9299C0DF1D00921
:10881000FFF794BA079911F0400300F0BB800E985F
:108820008DF87F200346BBF1000F03F10403048899
:108830004FF00005C0F2C58121F08001079154EA94
:1088400005010E933FF4DAAC1746FFF753B9079BC7
:10885000DF060BD4079B5E0608D50E9A1368043218
:108860000E92BDF82C201A80FFF745B80E9A1368B7
:1088700004320E920B9A1A60FFF73DB8DDE914013D
:1088800002460B4607F022FA002840F00583119BB0
:10889000BBF1FF3F23F0200700F06C82472F00F070
:1088A0008781159B079A002B42F480720F92C0F2C9
:1088B00080829DED147B8DED1C7B00230893119B22
:1088C000662B00F05A82462B00F04781452F0CBFE3
:1088D0000BF101055D4625A822A921AA02230490D7
:1088E000029200930195DDE91C2303910A9803F09D
:1088F00043F8119B672B064640F07182079BDA070D
:1089000040F1BF82741900220023DDE91C0107F049
:10891000ABF9002840F09081259B9C4206D930217C
:108920005A1C25921970259B9C42F9D89B1B472FF6
:10893000129300F07A81119B652B40F35F82119BAB
:10894000662B219B139300F06682139A12998A4238
:10895000C0F23882079BD90700F1958222EAE273C0
:108960000D9267221192089A002A40F032810893F2
:108970000F9B079393469DF87F70FFF767B927F029
:10898000070797ED007B07F108038DED147B0E932D
:10899000FFF788BA0E998DF87F30BBF1000F0C6895
:1089A00001F104074FF0000580F2AC800E9700271C
:1089B000FFF7A0B8079911F040033FF44CAE0E98B2
:1089C0008DF87F200346BBF1000F03F104030488F8
:1089D0004FF00005C0F2F28021F08001079154EAC7
:1089E00005010E9317467FF40DA9FFF7F3BA079B15
:1089F0000E9A13F0400F134600F0E58004331488FC
:108A00000E930025FFF703BB144601330F9A2893FA
:108A10002C44072B299489E824003FF758AE09F12C
:108A200008095FE6980C01080027BB458DF87F70A8
:108A3000FFF6F6AB079B23F080030793FFF7BEBB5F
:108A400027AA09990A9805F00DFF00287FF426A8A7
:108A5000299C0DF1D00905E40E9FFFF7DABB289B96
:108A6000B24AC9F80020013301340122072B2994AE
:108A70002893C9F8042000F38E8009F108092DB964
:108A8000129B1BB9079BDF077FF5A4A9289B1699AA
:108A9000179AC9F8002001330C44072B2994C9F810
:108AA0000410289300F3D38109F108096D42002DC9
:108AB00040F3AD809E4A0F92102D40F3CC802246A9
:108AC0001027DDF828B0099C05E009F10809103DE0
:108AD000102D40F3BF8001331032072B29922893C9
:108AE000C9F800A0C9F80470EFDD27AA214658464E
:108AF00005F0B8FE00287EF4D1AF299A289B0DF12D
:108B0000D009E4E7079AFFF737BA079A89E5079B88
:108B100043F02003079308F1010898F80030FEF7AE
:108B20001DBF27AA09990A9805F09CFE00287EF42B
:108B3000B5AF299C0DF1D009FFF7ACBB40210A98D5
:108B4000F8F723F9099A10601061002800F0F98104
:108B5000099A40235361FEF7BEBE25A822A921AA87
:108B60000323049002920093CDF804B00391DDE951
:108B70001C230A9802F000FF5D460646119B462B17
:108B800006EB05047FF4BFAE3378302B00F08A810A
:108B9000219D2C44B7E627AA09990A9805F062FEA0
:108BA00000287EF47BAF219D299C0DF1D00966E75A
:108BB000BBF1000F08BF4FF0010B72E60E93174692
:108BC00057E50E93F3E6043314680E930025FFF780
:108BD0001EBA2D2708930F9B07938DF87F704FF0D7
:108BE000000BFFF734B83046FEF76AFDA346034694
:108BF0000D90FFF79DBA27AA09990A9805F032FE51
:108C000000287EF44BAF299C289B0DF1D0091299C6
:108C1000C9F8006001330C44072B29942893C9F844
:108C200004107FF7D5A8FFF7F6BB219BDD1C1EDBE8
:108C30009B451CDB139388E6234677E627AA099910
:108C40000A9805F00FFE00287EF428AF299C0DF14C
:108C5000D00947E4144601330F9A28932C44072B7C
:108C6000299489E82400C6DC09F10809CFE7119AA4
:108C7000023A1192013B002B9DF844202193B8BF8A
:108C80005B428DF88C20B4BF2D222B22092B8DF84E
:108C90008D2040F3EE800DF19B000446254A82FBB7
:108CA0000321DA17C2EBA10202EB8201A3EB41031D
:108CB00003F13001092A134604F8011DEEDC2146B8
:108CC0003033DAB201F8012D884240F237810DF1DC
:108CD0008E01234601E013F8012B01F8012B984285
:108CE000F9D1431C1B1B0DF18E02134423AA9B1ABE
:108CF000129A1993012A13440D9340F3EA800D9BB5
:108D0000169A134400220D93139223EAE3732AE682
:108D100027AA09990A9805F0A5FD00287EF4BEAEA1
:108D2000219B299C0DF1D009E6E400BFE80C010865
:108D3000980C01086766666627AA09990A9805F0E3
:108D400091FD00287EF4AAAE219B129A299CD31A89
:108D50000DF1D009E8E4062D2B4628BF06230D931C
:108D600023EAE373B3460E97139637460893884E6B
:108D7000FEF76CBF4FF0060B93E525A822A921AAA8
:108D80000323049002920093CDF804B00391DDE92F
:108D90001C230A9802F0F0FD5D46064600EB0B042A
:108DA000F2E62D278DF87F70FFF7A3B80793FFF742
:108DB0004CB9DDE9141202F100431D932D231C91DF
:108DC00008937CE5169A129B1344139A0D93002A7C
:108DD00040F38980672223EAE3731192C3E5119B74
:108DE000472B7FF48FAD079BDB073FF5C7AE259B75
:108DF000472FA3EB060312933FF417AF219B39E7EC
:108E000025EAE5730E9708930D95834613909DF818
:108E10007F70FEF71BBF002B6DDDBBF1000F4FD144
:108E2000079AD4074CD41A460D9223EAE3739AE5C5
:108E3000079BDB075F4605D544AE302306F8413D6E
:108E4000FEF7FABECDF834B034AEFEF7F8BE27AA6E
:108E500009990A9805F006FD00287EF41FAE219DB1
:108E6000299C289B0DF1D00920E6A0460025FEF79D
:108E700077BD303330228DF88F308DF88E2024ABC3
:108E800034E7259B52E5169A139B134467220D93F2
:108E9000119223EAE37366E53E4E3F4B9DF87F70E7
:108EA000FFF729B800220023DDE91C0106F0DCFEF3
:108EB00000287FF46DAEC5F1010521952C4422E513
:108EC000139B169A9D1805EB0B030D9323EAE3738E
:108ED00049E5079B13F001037FF411AF13930D9B3A
:108EE00023EAE3733FE5139B0D9AC3F101031A4490
:108EF00013460D926EE7BBF1000F02D1079BD80716
:108F000007D5169B5D1C05EB0B030D9323EAE3735A
:108F100029E501230D9326E50E9898F801300568A0
:108F20000430002D0E90A046BEF618AD4FF0FF3570
:108F3000FEF714BD8DF87F10FEF7C1BD0DF18E0355
:108F4000D4E60A9A0C2313604FF0FF30FEF7AFBD52
:108F50008DF87F10FEF730BE8DF87F10FEF792BFC0
:108F60008DF87F10FFF745B88DF87F10FFF713B825
:108F70008DF87F10FEF7E5BF8DF87F10FFF72DB954
:108F80008DF87F10FFF708B98DF87F10FFF7E6B86E
:108F9000E00C0108B40C0108B00C01082DE9F04FF9
:108FA0008B46B1F90C10ADF52B7D82468804144632
:108FB000049309D4DBF8643041F4005123F40053E6
:108FC000ABF80C10CBF864302646002306930393CD
:108FD0001F46059316F8013B0F936BB3FDF7F2F8AC
:108FE0000F9A1044437803F0080303F0FF0543B3DE
:108FF000DBF8043011E0FDF7E5F8DBF800301A7813
:1090000010440133427811070FD5DBF80420CBF868
:109010000030531E0137CBF80430002BEBDC5946EF
:10902000504605F0E1FC0028E5D03446264616F807
:10903000013B0F93002BD1D105980DF52B7DBDE899
:10904000F08F252A40F0848094F801802C46731C10
:10905000B8F1780F00F24382DFE818F09200410285
:1090600041024102410241024102410241024102E8
:1090700041024102410241024102410241024102D8
:1090800041024102410241024102410241024102C8
:1090900041024102410241024102410241024102B8
:1090A0004102410241027900410241024102410272
:1090B000D80141024102410241024102CF01CF01E8
:1090C000CF01CF01CF01CF01CF01CF01CF01CF0120
:1090D0004102410241024102410241024102410278
:1090E00041024102C101B9014102B90141024102FB
:1090F00041024102B30141024102A3014102410286
:1091000041024102410241024102410293014102F6
:109110004102510141024102410241024102410228
:10912000410222018801B901B901B9011C0198006D
:1091300041024102D50041020D010101F30041024B
:109140004102EB004102DF004102410293011E4651
:10915000DBF80430002B40F35382DBF8003016F8C4
:10916000012C197891427FF467AFDBF804200133BA
:10917000013ACBF800300137CBF80420344655E7EC
:109180004FF0FF300DF52B7DBDE8F08F0293DBF83B
:109190000430002B40F36382B84B06930023039303
:1091A000032601E0CBF800E0FDF70CF8DBF8002027
:1091B0001178084402F1010E437803F0080303F02C
:1091C000FF08002B00F07F82DBF80430013B002B0E
:1091D00007F10107CBF80430E4DC5946504605F0AE
:1091E00003FC0028E0D0059A002AC9D0BBF80C3057
:1091F00013F0400F134618BF4FF0FF3318460DF51C
:109200002B7DBDE8F08F96F80180B8F16C0F00F06F
:10921000028245F001051E4619E70293DBF804308F
:10922000002B40F34882964B06930A2303930326B0
:10923000BAE70293DBF80430002B40F334820226B5
:10924000B2E70293DBF80430002B45F4087540F3D5
:10925000A0808B4B0693102303930326A4E702936D
:10926000DBF80430002B40F3A480854B06930823E1
:109270000393032698E7EA061E46029300F1F28064
:109280006B0740F1D48104990B681F800B1D049378
:109290003446CBE696F8018045F004051E46D6E636
:1092A0000293DBF80430002B40F3ED81002C08BF63
:1092B000012415F0010340F02281EA0640F18B8180
:1092C0001D4609E01344CBF800301544A41A05F0FC
:1092D0008BFB002840F07B81DBF80420DBF80030BA
:1092E000A24259465046EDDB121B2344CBF8042022
:1092F0002544CBF80030029E2F44344696E60DF10B
:1093000048091946484603F077FFDBF80430002B84
:10931000064640F3B081002CDBF8002008BF4FF078
:10932000FF34EB06117840F1A080A046002500E054
:10933000117819F801300132002B00F04381DBF87D
:109340000430CBF800200135013BA542CBF80430B6
:1093500000F03581002BEBDC5946504605F044FB0C
:10936000002840F02B81DBF80020E1E70293DBF8D6
:109370000430002B3ADD414B06930A230393032666
:1093800012E70293DBF80430002B45F400753FF739
:1093900060AF5946504605F027FB00283FF459AF0F
:1093A00021E70293DBF80430002B45F001053FF77D
:1093B0005CAF5946504605F017FB00283FF455AF07
:1093C00011E796F8018045F002051E463FE602933C
:1093D000DBF80430002B40F35E810426E4E60293C0
:1093E000DBF80430002B45F00105C4DC594650463B
:1093F00005F0FAFA0028BED0F5E604EB840408EB89
:109400004404303C96F801801E4620E696F8018020
:1094100045F010051E461AE610AB414618460822D4
:109420000793FDF77BFB15F0100940F05D84049A6B
:1094300013460433D2F8008004930026FCF7C2FEE2
:10944000DBF800301B7818444378180702D4002C4E
:1094500040F0FC83B9F1000F04D1C8F80090059BDF
:1094600001330593029E3446E0E5049805680346FF
:10947000043305EB040802932C4606E0D5E200080D
:1094800031E60008DBF80020117819F80130501C93
:10949000C3B1DBF80430CBF80000013BCBF804305B
:1094A000137804F8013BA0450CD0DBF80430002B06
:1094B000E8DC5946504605F097FA0028E2D0A5426C
:1094C0003FF491AE651B3FF4B7AD059A013200231E
:1094D0000592029A049223702F443446A6E5029323
:1094E000FCF770FE4044437803F00303012BDBF8E4
:1094F000043000F09680002B3FF73DAF76E710ABCD
:109500001846082200210793FDF708FB15F0100309
:1095100008937DD1049A13460433D2F80090049343
:1095200000250DF5A478FCF73BFEA8423FF45BAEA6
:109530009BE80C0012F8010BCBF80020013B079AC6
:1095400000926E1CCBF80430494608F805003346FB
:109550004246504603F0A6F9411C3FF444AEA0B980
:10956000089B13BBC9F800303744013C09F10409DA
:10957000DBF80430002B4FF000050DDD002CD2D1BC
:10958000089B002B3FF46BAF6CE7023010D1DBF887
:109590000430002B3546C6DC5946504605F024FA07
:1095A0000028EBD0002DEBD01DE63744013CDFE76F
:1095B000089B3744013C002BDAD1D7E7A846454643
:1095C0002F448AE7002D3FF437AD2F4485E7002D67
:1095D0007FF491AE07E6049D23462968CDF800B0DC
:1095E0000122504605F01EFA2E1D00283FF4FBAD67
:1095F000059B0496029E013307440593344615E506
:109600005946504605F0F0F900283FF4A6ADEAE5CA
:109610004FF0000984E796F8028045F00205023613
:1096200015E5002B45F001053FF7A5AEDEE6EC079A
:109630000CD4A8070AD5049A029E13683846F91775
:1096400004320492C3E900013446EFE4049A029E16
:1096500013681F601346043304933446E6E4594606
:10966000504605F0C1F900287FF4BDAD7E4B039054
:109670000693032698E55946504605F0B5F90028AB
:109680003FF449AEAFE55946504605F0ADF9002824
:109690003FF40CAEA7E55946504605F0A5F9002861
:1096A0003FF49BAE9FE55946504605F09DF90028D2
:1096B0003FF4C5AD97E55946504605F095F90028A9
:1096C0003FF4B1AD8FE5032E00F09B81042E40F0F6
:1096D0003982504603F0C2F8631E02680A92B3F55D
:1096E000AE7F40F263826FF4AE7163180C9340F268
:1096F0005D1452AB4FF000081A46089345F4F0652C
:109700004346CDF83480CDF82C804646CDF82480F1
:109710009146DBF800000178A1F12B0EBEF14E0F4F
:1097200000F24781DFE81EF07A0045017A0045012A
:1097300045016E004F004F004F004F004F004F009B
:109740004F004F004F0045014501450145014501CE
:10975000450145014001450145014501280121011F
:1097600045014501A20045014501450145018B0028
:10977000450145014501450145018500450145017A
:10978000450145017F004501450145014501450170
:1097900045014501400145014501450128012101DF
:1097A00045014501A20045014501450145018B00E8
:1097B000450145014501450145018500450145013A
:1097C000450145017F0013EB080F16D125F4C07544
:1097D00089F8001009F10109DBF8041001390029AA
:1097E00004F1FF3407F10107CBF8041040F3EE80D9
:1097F0000130CBF80000002C8BD1002E42D025F494
:1098000080753FE0EA05DED50C9A25F0800501362B
:10981000002AE1D0013A0C920134DDE72A06ECD5AA
:1098200025F08005D4E7B8F1070FE6D14FF008081E
:10983000CEE7B8F1060FE0D14FF00708C8E7002BDC
:1098400040F0DA802EB905F4E06EBEF5E06F00F06E
:109850003F82B8F1010F02D0B8F1040FCDD108F169
:1098600001085FFA88F8B3E7D5E20008B8F1000F05
:1098700040F0B980002EC2D105F4E06EBEF5E06F75
:1098800000F03682013B012B40F27D8208F1FF336C
:10989000062B16D8B8F1020F40F29C82B8F1030FE4
:1098A0000FD0A8F10404E4B26FEA0408C84419F820
:1098B000011D5A46504605F055F8C845F7D1013FFD
:1098C0003F1BE9051CD56A0500F16F8219F8011CE0
:1098D000652909F1FF3407F1FF380BD0452909D07C
:1098E0005A46504605F03EF819F8021CA7F1020846
:1098F000A9F102045A46504605F034F84746A146FD
:1099000015F010027FF4AEAD05F4C063B3F5806FBF
:1099100089F8002000F0F1810B9B002B40F0FE81C4
:1099200008990022504604F029FCEB07804689463E
:1099300000F13F8115F0020540F03B81049C024696
:109940000B46261D246806F0C1F9002840F05C8211
:109950004046494606F018FA04962060059B029E90
:10996000013305933446FFF761BBB8F1020F7FF472
:1099700044AF4FF003082BE705F4A06EBEF5806FEF
:1099800005D06A057FF539AF002E3FF47BAFAA05FD
:1099900004D4099ACDF83490B21A0B9225F4F065EC
:1099A00045F4C075002613E7012B7FF426AF022390
:1099B0000EE70A9A92F800E08E457FF41EAFAA05E2
:1099C0007FF51BAF25F42075099601E759465046EF
:1099D000079305F009F8079B00287FF40EAF002CD1
:1099E0007FF497AE09E7B8F1030F3FF438AFB8F151
:1099F000050F3FF434AF00E7022B7FF42AAF0323B7
:109A0000E6E6631EB3F5AE7F86BF6FF4AE7004EB7F
:109A10000009C14652AB10463A464F46DDF80C905D
:109A2000089388BF40F25D1445F458651E464FF018
:109A30000008A1F12B034D2B51D8DFE803F07E5035
:109A40007E50506F696969696969694A4A50505026
:109A5000505050504444444444445050505050504E
:109A6000505050505050505050505027505050501F
:109A7000505050504444444444445050505050502E
:109A800050505050505050505050502705F4C06323
:109A9000B3F5007F23D125F4007545F4A0654FF0A0
:109AA000100931700136DBF80430013B002BCBF894
:109AB000043072DD0130CBF80000013C0FD0DBF840
:109AC00000000178B5E7B9F10A0F08DD25F4386523
:109AD000E7E7BD4B33F91990B9F1080FF6DCE9055A
:109AE0001746CDF80C9007D5089B9E4200F2F480F3
:109AF000089B9E423FF4A0AA15F0100400F092804B
:109B0000089BF61A46443744029E3446FFF78EBA45
:109B1000AD4B25F4386533F91990C2E72B05C0D554
:109B2000B9F1000F03D145F400754FF008096B053A
:109B300040F1C08025F4B065B3E72B06CFD525F002
:109B40008005AEE7002C08BF4FF0FF3415F001038D
:109B50007FF462ACE90633D51D46FCF733FBDBF836
:109B600000301A7810440133427812073FF5C3AB36
:109B7000DBF80420CBF800300135531EAC42CBF8A3
:109B800004303FF4B8AB002BE7DC5946504604F0F4
:109B90002BFF0028E1D0FFF7AEBB59465046039299
:109BA00004F022FF039A002887D098E7CDF8308090
:109BB0009FE5049A136804320492C3E90089CDE654
:109BC000049A1568161D2C44A846FCF7FBFADBF82E
:109BD000002013781844511C43781B0715D4DBF878
:109BE0000430CBF80010013BCBF80430137808F8B0
:109BF000013B44450AD0DBF80430002BE5DC594634
:109C0000504604F0F1FE0028DFD04446059A049641
:109C1000029E651B0023013223702F4405923446B7
:109C2000FFF704BA22463470039B0899069C5046FD
:109C3000A047AA0646D46B077BD5049A1368043262
:109C400004921880059B0133059359E7FCF7A8FAA5
:109C500086423FF4C8AA9BE80C0012F8010BCBF82F
:109C60000020079A009252AA751C013B9055CBF830
:109C7000043041462B46504602F014FE461C3FF489
:109C8000B2AA00286BD1C8F8000002F0D7FD002866
:109C900000F0AF80002D3FF4DDAB52AB5C19013D0D
:109CA0005A4614F8011D504604F05CFE002DF6D112
:109CB000FFF7D0BB25F460750FB1013F013408F107
:109CC0000108F0E6049A1368043204921860B9E7B8
:109CD00025F4F06501237BE516F8011C5A46504631
:109CE00004F040FE013E03E70DF13C08FFF7A5BB81
:109CF00025F4F0654FF001086AE5099BF61A7242F7
:109D0000002E3FF40DAE0DF29B23994528BF0DF2B6
:109D10009A2948462D49FDF7C5FA01E60D9C2146D2
:109D20000A230131504604F0D5FA0B9BA146C21A12
:109D3000E9E715F00102C5D1AC07C3D5069B19466A
:109D4000234B99425046039B089963D004F0AAFB29
:109D5000049A136804320492C3E9000172E70230E6
:109D600020D12E46DBF80430002B3FF767AB594675
:109D7000504604F039FE00283FF460AB002E7FF41B
:109D800032AAFFF767BB089B99457FF655A919F8DA
:109D9000011D5A46504604F0E5FD089B9945F6D151
:109DA000FFF74AB9D8F800006FE7089B99457FF69E
:109DB00043A919F8011D5A46504604F0D3FD089BEB
:109DC0009945F6D1FFF738B9FC0C0108200D0108C0
:109DD00031E60008089B99457FF62EA919F8011D68
:109DE0005A46504604F0BEFD089B9945F6D1FFF750
:109DF00023B92F44013CB9F1000F03D108F1040845
:109E00004E46AFE70646ADE7284603F02FFA049624
:109E10002060A3E504F014FD9AE700BF00000000F5
:109E20002DE9F04FC5B01C460891164605460A902C
:109E300002F014FD036817931846FDF741FC0E94D9
:109E400016901DB1AB6B002B00F023810898B0F980
:109E50000C2093B2990407D4416E42F4005321F4CC
:109E60000051838141669BB21A0740F1DD80089A58
:109E70001269002A00F0D88003F01A030A2B00F0C0
:109E8000E1809FED877B00238DED147B1293299356
:109E9000289319930B93DFF814A234AB27939946B8
:109EA000B04698F800304446EBB1252B02D11AE0B9
:109EB000252B03D014F8013F002BF9D1C8EB040582
:109EC0008DB1289B299AC9F8008001332A44072BB9
:109ED000C9F804502992289300F3C28009F10809B7
:109EE0000B9B2B440B932378002B00F0C2800023A4
:109EF0001A468DF87F3019460C9307934FF0FF3BBD
:109F0000637804F101085D4608F10108A3F120001F
:109F1000582800F25984DFE810F00F045704570462
:109F2000180457045704570457045704570462038E
:109F3000490457045D0009015704250170037003AB
:109F40007003700370037003700370037003570491
:109F50005704570457045704570457045704570429
:109F6000570480039D0357049D0357045704570467
:109F70005704EB03570457042C01570457045704A4
:109F800057045704550157045704B40257045704A3
:109F900057045704570457045704570457045704E9
:109FA000F5020F039D039D039D033F030F03570419
:109FB0005704460357045003CB00640020045704A1
:109FC00028045704F20357045704FA030C980E931D
:109FD00040420C90079B43F00403079398F800302D
:109FE00092E70E98AB46002104688DF87F10071D9C
:109FF0000798302378228B458DF880304FF000058C
:10A000008DF8812040F00203C0F2FB8320F0800332
:10A0100043F00203079354EA05030E9700F0CC8344
:10A020000F46119220485DE208990A9801F09AFBC8
:10A03000002841F03F80089B9B8903F01A030A2BFC
:10A040007FF41FAF0899B1F90E30002BFFF619AF5E
:10A05000234632460A9801F08BFA45B0BDE8F08FEE
:10A0600027AA08990A9804F097FD48B90DF1D0097C
:10A0700036E7299B23B10A98089927AA04F08CFD9A
:10A08000089B9B89590601F115800B9845B0BDE8E6
:10A09000F08F0A98FBF77AFBD8E600BFAFF3008099
:10A0A0000000000000000000CC0C0108280D010891
:10A0B0001193AB46002A41F03282079A12F0200336
:10A0C00064D00E9F073727F00703002703F108012C
:10A0D000BB450E91D3E900458DF87F70C0F2BA867A
:10A0E00022F08003079354EA050300F0828334AE24
:10A0F000E20842EA4572E90804F007030D461446F7
:10A10000303354EA050206F8013DF1D1079AD2072F
:10A1100040F19680302B00F093803022731E06F8B9
:10A12000012C34AAD21A0D921E468CE098F8003009
:10A130002A2B08F1010401F0D081A3F13000092895
:10A1400098BF002501F26C8114F8013B05EB8505F1
:10A1500000EB4505A3F130000928F5D945EAE5757E
:10A16000A046D3E6079B43F08003079398F800309E
:10A17000CAE61193AB46002A41F0D981079B43F010
:10A1800010030793079A12F020039AD1079911F050
:10A19000100200F034860E988DF87F30BBF1000F6E
:10A1A000046800F104074FF00005C0F252860A4629
:10A1B00022F08002079254EA05020E9700F01983FC
:10A1C0001F4694E71193AB46002A41F0A081079BFC
:10A1D00043F010030793079A12F0200300F0FA846B
:10A1E0000E9F073727F00703002703F10801BB453F
:10A1F0000E91D3E900458DF87F70C0F2238522F0DF
:10A200008003079354EA050300F0BC81002D08BFCA
:10A210000A2CC0F01B8534AE204629460A220023B2
:10A2200005F002FE303206F8012D204629460023B3
:10A230000A2205F0F9FD04460D4654EA0503EBD168
:10A2400034AB9B1B0D930D9B5B45B8BF5B460993DD
:10A250000023139317B1099B01330993079B13F054
:10A2600002030F9302D0099B02330993079B13F05B
:10A270008403109340F0D2820C9B099A9D1A002D02
:10A2800040F3CC82102D2999289AA84F27DD1896E3
:10A2900048461024B946089E2F460A9D04E0103F08
:10A2A000102F00F1080016DD0132A04B289210316A
:10A2B000072A299180E81800F1DD27AA31462846AF
:10A2C00004F06AFC00287FF4DBAE103F102F2999C0
:10A2D000289A34A8E8DC189E3D464F468146013254
:10A2E0006C18072A29942892C9F80070C9F80450FC
:10A2F00000F328849DF87F7009F1080977B1289B45
:10A30000013301340DF17F010122072B2994289399
:10A3100089E8060000F3A08309F108090F9B6BB1DF
:10A32000289B0133023420A90222072B2994289369
:10A3300089E8060000F39C8309F10809109B802B33
:10A3400000F0D0820D9BC3EB0B07002F33DD784A62
:10A35000289B0F92102F22DD22464FF0100B0A9DF2
:10A36000089C04E0103F102F09F1080916DD0133A5
:10A370001032072B2992289389E8000CF2DD27AAD6
:10A380002146284604F008FC00287FF479AE103FEF
:10A39000102F299A289B0DF1D009E8DC14460133CF
:10A3A0000F9A28933C44072B299489E8840000F3F2
:10A3B000478309F10809079BDD0500F13182289BDD
:10A3C0000D99C9F8006001330C44072B2994C9F892
:10A3D0000410289300F31E8309F10809079B58070E
:10A3E0003FD50C9B099A9D1A002D3ADD102D289B14
:10A3F0004E4F23DD22461026DDF828B0089C04E0ED
:10A40000103D102D09F1080917DD01334749289344
:10A410001032072B299289E84200F1DD27AA214654
:10A42000584604F0B9FB00287FF42AAE103D102DE9
:10A43000299A289B0DF1D009E7DC144601332C44FE
:10A44000072B29942893C9F80070C9F8045008DD37
:10A4500027AA08990A9804F09FFB00287FF410AE01
:10A46000299C0B9B0C9A09998A42ACBF9B185B18DC
:10A470000B93002C40F0DA82002328930DF1D009D1
:10A480000FE51193AB46002A41F03D80079B294818
:10A490009C0640F146810E9F073727F00703D3E95A
:10A4A000004503F108020E92079A12F0010700F02E
:10A4B000EB8254EA050300F082859DF844208DF874
:10A4C00081200027079A8DF87F703023BB458DF8D7
:10A4D000803042F00203C0F23B8722F0800343F059
:10A4E0000203079334AE230904F00F0143EA057316
:10A4F0002A091C461546435C06F8013D54EA05034B
:10A50000F1D19DE60E9911930A688DF8A8200023D9
:10A510000A461F468DF87F30043201230993BB465B
:10A5200013970E920D932AAE98E600BF380D0108DE
:10A53000280D0108B80C01081193AB46002A40F021
:10A54000EA87079B9B0674D50E9F073727F00707FE
:10A55000D7E9002307F108010E9114461D46002A91
:10A5600073F10003C0F23A84BBF1000F9DF87F70D5
:10A57000C0F26883079B23F08003079354EA050326
:10A580007FF444AEBBF1000F40F008844FF0000BA5
:10A59000CDF834B034AE56E6079B43F04003079342
:10A5A00098F80030B0E498F800306C2B00F0D585B6
:10A5B000079840F010000790A6E4002A40F09F871B
:10A5C000079B9F0640F1E4840E9A0B991368CD1700
:10A5D0000846043229460E92C3E9000161E40E9C4C
:10A5E00023680C9318460028234603F10403FFF662
:10A5F000EDAC0E9398F8003086E4A3F13000002310
:10A600001C4618F8013B04EB840400EB4404A3F15E
:10A6100030000928F5D90C9478E41193AB46002A50
:10A6200040F06987079B43F010030793079B9B0645
:10A630008AD4079BDF0600F19482079B5E0640F1F7
:10A6400090820E99B1F900400431E51722462B465D
:10A650000E9184E71193AB46002A40F07087079B68
:10A660000E9F1D0707F1070740F1878427F00703B6
:10A6700093ED007B8DED147B03F108020E92DDE972
:10A68000141222F000431A911B93DDE91A454FF092
:10A69000FF3220462946B54B05F018FB002840F054
:10A6A000EB834FF0FF32B14B2046294605F0F0FA1C
:10A6B000002840F0E18300220023DDE9140105F0C9
:10A6C000DDFA002840F04A869DF87F70A84EA94B1D
:10A6D000079921F080010791119903224FF0000B97
:10A6E00009924729D8BF1E460D92CDF84CB0B1E56E
:10A6F000079B43F00803079398F8003004E4119394
:10A70000AB46002A3FF467AD8DF87F1063E51193E7
:10A71000AB46002A40F00F87079B97489C063FF501
:10A72000BAAE079BD90640F198830E9A13460433BC
:10A7300014680E930025B7E698F8003000297FF4DE
:10A74000E3AB01222021FFF7DFBB079B43F00103AE
:10A75000079398F80030FFF7D7BB079B43F020031F
:10A76000079398F80030FFF7CFBB0E9A1193166845
:10A7700000248DF87F40171D002E00F0B785002DB6
:10A78000C0F202852A4621463046FCF779F80028B7
:10A7900000F01C86831B0D93A34623EAE3730E97F8
:10A7A0000993CDF84CB09DF87F7053E598F80030D0
:10A7B00001222B21FFF7A8BB6F481192BBF1000FBC
:10A7C00040F073815F46E1E61193002A40F0AB86CA
:10A7D000119A002A3FF44DAC002301211F46099134
:10A7E0008DF8A8208DF87F309B4613930D912AAEEB
:10A7F00034E5BBF1000F00F0DA85002700240025C6
:10A8000075E45D480793119254EA05030E974FF0E3
:10A8100000077FF467AE0024002563E6299C6DE500
:10A82000119B652B40F3AE8000220023DDE914016B
:10A8300005F01AFA002800F03A81289B4F4AC9F81F
:10A840000020013301340122072B29942893C9F8F1
:10A85000042000F3CE8309F10809219B129A934248
:10A8600003DB079BD8077FF5B9AD289B1699179A8C
:10A87000C9F8002001330C44072B2994C9F80410AF
:10A88000289300F3748409F10809129B5D1E002DC2
:10A890007FF7A4AD3A4A289B0F92102D40F3B48164
:10A8A00010260A9FDDF820B005E009F10809103DE7
:10A8B000102D40F3A98101331034072B29942893DC
:10A8C000C9F800A0C9F80460EFDD27AA5946384648
:10A8D00004F062F900287FF4D3AB299C289B0DF18A
:10A8E000D009E4E70C9B099A9F1A002F7FF72AAD45
:10A8F000234A289B0F92102F2BDD4A462146B9464A
:10A90000102537460A9C089E06E0A9F11009B9F106
:10A91000100F02F1080218DD01331031072B2991C5
:10A920002893C2F800A05560EFDD27AA31462046E3
:10A9300004F032F900287FF4A3ABA9F11009B9F1B2
:10A94000100F2999289B34AAE6DC3E460C464F4658
:10A95000914601330F9A28933C44072B299489E8A8
:10A96000840000F32B8209F10809EBE4FFFFEF7F7D
:10A97000AC0C0108A80C0108CC0C0108E80C01087B
:10A98000280D0108129B289D012B40F3D081013531
:10A9900001340123072D29942895C9F80060C9F8CE
:10A9A000043000F3E18109F10809169A179BC9F8F0
:10A9B000003001351444072D29942895C9F8042046
:10A9C00000F3DF8109F1080900230022DDE9140109
:10A9D00005F04AF9129B002840F0CC80013B01357C
:10A9E00001361C44072D28952994C9F80060C9F840
:10A9F000043000F3AC8109F10809199AC9F8042060
:10AA00000135144423AB072D29942895C9F800304B
:10AA10007FF7E2AC27AA08990A9804F0BDF800284D
:10AA20007FF42EAB299C0DF1D009D7E427AA089911
:10AA30000A9804F0B1F800283FF41EADFFF720BBE0
:10AA400027AA08990A9804F0A7F800287FF418AB01
:10AA5000299C0DF1D009AEE427AA08990A9804F0C0
:10AA60009BF800287FF40CAB299C0DF1D00955E42C
:10AA700027AA08990A9804F08FF800287FF400AB01
:10AA8000299C0DF1D00959E4BBF1000F8DF87F70BE
:10AA9000C0F20D8322F08003079354EA05037FF48C
:10AAA00021ADBBF1000F3FF48DAE0027B3E6219D31
:10AAB000002D40F3AA82139B129A9342A8BF13461B
:10AAC000002B1D460DDD289BC9F8006001332C4486
:10AAD000072B2994C9F80450289300F3878309F1C0
:10AAE0000809139B002DA8BF5B1B002B1D4640F3DC
:10AAF000BE80B94A289B0F92102D40F36D822246EA
:10AB00001027DDF828B0089C05E009F10809103D80
:10AB1000102D40F3608201331032072B29922893C5
:10AB2000C9F800A0C9F80470EFDD27AA21465846ED
:10AB300004F032F800287FF4A3AA299A289B0DF18B
:10AB4000D009E4E727AA08990A9804F025F8002814
:10AB50007FF496AA9DF87F70299C0DF1D009FFF72C
:10AB6000CDBB0E9A146813460433E5170E932246A4
:10AB70002B46F4E45E1E002E7FF73FAF964B0F93FB
:10AB8000102E40F31081CDF834801027B046DDF848
:10AB900028B0089E07E009F10809A8F11008B8F1EB
:10ABA000100F40F3FD8001351034072D29942895AE
:10ABB000C9F800A0C9F80470EDDD27AA314658464F
:10ABC00003F0EAFF00287FF45BAA299C289D0DF181
:10ABD000D009E2E7079911F0100220D00E988DF805
:10ABE0007F30BBF1000F046800F104074FF000054F
:10ABF00026DB0A4622F08002079254EA05020E97ED
:10AC00001F467FF403ABBDE401330F9A28932C4415
:10AC1000072B299489E824007FF7DEABFAE6079931
:10AC200011F0400340F04A820E998DF87F30BBF15D
:10AC3000000F0C6801F104074FF0000580F21A8143
:10AC40000E971F4654EA05037FF4E0AA44AE303461
:10AC500006F8414DFFF7F4BA27AA08990A9803F0BD
:10AC60009BFF00287FF40CAA299C0DF1D009139AB0
:10AC7000219B32441746129A934247DB079AD20728
:10AC800044D412990E44F51BCB1A9D42A8BF1D4611
:10AC9000002D2E460DDD289AC9F8007001322C4493
:10ACA000072A2994C9F80450289200F32E8309F149
:10ACB0000809002EACBF9D1B1D46002D7FF78EABF3
:10ACC000454A289B0F92102D9EDD10260A9FDDF825
:10ACD00020B004E009F10809103D102D94DD013386
:10ACE0001034072B29942893C9F800A0C9F80460F0
:10ACF000F0DD27AA5946384603F04EFF00287FF4BE
:10AD0000BFA9299C289B0DF1D009E5E7289A169840
:10AD10001799C9F8001001320444072A2994C9F888
:10AD20000400289200F3CF8209F10809A9E7079BE4
:10AD3000DF073FF52CAE013501340123072D29949F
:10AD40002895C9F80060C9F804307FF754AE27AAE7
:10AD500008990A9803F020FF00287FF491A9299C04
:10AD6000289D0DF1D00948E627AA08990A9803F012
:10AD700013FF00287FF484A9299C289D0DF1D00998
:10AD800013E627AA08990A9803F006FF00287FF423
:10AD900077A9299C289D0DF1D00915E6002455E7D7
:10ADA0004646DDF834800F9B01353444072D299445
:10ADB000289589E848007FF71EAEC8E727AA0899BA
:10ADC0000A9803F0E9FE00287FF45AA9299C0DF1A6
:10ADD000D009FFF7B7BA00BF280D010864424FF051
:10ADE0002D0765EB4505BBF1000F8DF87F70FFF671
:10ADF0000DAA079B23F080030793FFF707BA079973
:10AE000011F0400317D00E988DF87F200346BBF158
:10AE1000000F03F1040304884FF00005C0F21B8308
:10AE200021F08001079154EA05010E933FF4E1AC53
:10AE30001746FFF75CB90E998DF87F30BBF1000F14
:10AE40000C6801F104074FF0000502DB079AFFF7D9
:10AE5000AFB90E970027FFF74AB9079B0E9A13F078
:10AE6000400F134600F04281043314880E930025EE
:10AE7000FFF71ABB079ABDE6DDE9140102460B464F
:10AE800004F024FF002840F0E882119BBBF1FF3F53
:10AE900023F0200700F05F82472F00F05881159BB8
:10AEA000079A002B42F480720F92C0F25C829DEDF3
:10AEB000147B8DED1C7B00230993119B662B00F006
:10AEC0003382462B00F02581452F0CBF0BF1010585
:10AED0005D4625A822A921AA02230490029200938C
:10AEE0000195DDE91C2303910A9800F045FD119BB3
:10AEF000672B064640F07582079BDA0740F1948283
:10AF0000741900220023DDE91C0104F0ADFE0028C5
:10AF100040F07881259B9C4206D930215A1C25920D
:10AF20001970259B9C42F9D89B1B472F129300F068
:10AF30005681119B652B40F36382119B662B219BED
:10AF4000139300F02682139A12998A42C0F2148257
:10AF5000079BDB0700F16A8222EAE2730D92672207
:10AF60001192099A002A40F0178109930F9B0793C9
:10AF700093469DF87F70FFF76DB927F0070797EDAF
:10AF8000007B07F108038DED147B0E93FFF777BB71
:10AF9000079BDE060BD4079B5D0608D50E9A136847
:10AFA00004320E92BDF82C201A80FEF77ABF0E9A5A
:10AFB000136804320E920B9A1A60FEF772BF0027D4
:10AFC000BB458DF87F70FFF626AC079B23F080030E
:10AFD0000793FFF7F3BB144601330F9A28932C44D1
:10AFE000072B299489E824003FF736AE09F10809B8
:10AFF0003DE627AA08990A9803F0CEFD00287FF4C1
:10B000003FA8299C0DF1D00927E4289BB44AC9F830
:10B010000020013301340122072B29942893C9F819
:10B02000042069DC09F108092DB9129B1BB9079BA3
:10B03000D9077FF5D3A9289B1699179AC9F800203C
:10B0400001330C44072B2994C9F80410289300F30A
:10B05000D98109F108096D42002D40F3B380A14A5E
:10B060000F92102D40F3228122461027DDF828B0E0
:10B07000089C05E009F10809103D102D40F31581E9
:10B0800001331032072B29922893C9F800A0C9F880
:10B090000470EFDD27AA2146584603F07DFD002805
:10B0A0007EF4EEAF299A289B0DF1D009E4E70E9FBC
:10B0B000FFF7AABB4FF0FF30FEF7E8BF0E988DF800
:10B0C0007F200346BBF1000F03F1040304884FF017
:10B0D0000005C0F2B48121F08001079154EA050116
:10B0E0000E9317467FF492A8FFF74CBA0433146806
:10B0F0000E930025FFF7D8B927AA08990A9803F0FC
:10B100004BFD00287EF4BCAF219D299C0DF1D00998
:10B110008AE725A822A921AA03230490029200937A
:10B12000CDF804B00391DDE91C230A9800F024FC5B
:10B130005D460646119B462B06EB05047FF4E1AE07
:10B140003378302B00F09881219D2C44D9E6BBF157
:10B15000000F08BF4FF0010BA1E6079B43F020034F
:10B16000079308F1010898F80030FEF7CDBE27AA32
:10B1700008990A9803F010FD00287EF481AF299CFD
:10B180000DF1D009FFF781BB3046FCF799FAA346D1
:10B1900003460D90FFF701BB2D2709930F9B0793E3
:10B1A0008DF87F704FF0000BFFF755B827AA08996C
:10B1B0000A9803F0F1FC00287EF462AF299C289BDA
:10B1C0000DF1D0091299C9F8006001330C44072B26
:10B1D00029942893C9F804107FF7FEA81AE4219B4C
:10B1E000D81C11DB9B450FDB1393ACE627AA08990B
:10B1F0000A9803F0D1FC00287EF442AF299C0DF19F
:10B20000D0096EE423468FE6119A023A1192013B6F
:10B21000002B9DF844202193B8BF5B428DF88C2011
:10B22000B4BF2D222B22092B8DF88D2040F30B81EA
:10B230000DF19B0004462C4A82FB0321DA17C2EB76
:10B24000A10202EB8201A3EB410303F13001092AC1
:10B25000134604F8011DEEDC21463033DAB201F862
:10B26000012D884240F26F810DF18E01234601E0ED
:10B2700013F8012B01F8012B9842F9D1431C1B1B39
:10B280000DF18E02134423AA9B1A129A1993012AD4
:10B2900013440D9340F3FE800D9B169A1344002235
:10B2A0000D93139223EAE3735BE6144601330F9A7E
:10B2B00028932C44072B299489E824003FF776AF84
:10B2C00009F108097EE727AA08990A9803F064FCA7
:10B2D00000287EF4D5AE219B299C0DF1D009D0E445
:10B2E000E80C0108280D010867666666062D2B46E6
:10B2F00028BF06230D9323EAE373B3460E971396F4
:10B3000037460993914EFEF7A5BF27AA08990A98D8
:10B3100003F042FC00287EF4B3AE219B129A299CD4
:10B32000D31A0DF1D009C4E425A822A921AA032328
:10B33000049002920093CDF804B00391DDE91C2340
:10B340000A9800F019FB5D46064600EB0B04F7E691
:10B350000793FFF7C7B84FF0060BA0E52D278DF830
:10B360007F70FFF7B3B9DDE9141202F100431D93BA
:10B370002D231C910993A0E5169A129B1344139A4E
:10B380000D93002A40F39080672223EAE373119221
:10B39000E7E5002B40F39080BBF1000F63D1079AE3
:10B3A000D10760D41A460D9223EAE373D9E5079BCF
:10B3B000DB075F4605D544AE302306F8413DFEF776
:10B3C0003FBFCDF834B034AEFEF73DBF25EAE5739C
:10B3D0000E9709930D95834613909DF87F70FEF7A5
:10B3E00039BF119B472B7FF48BAD079BDC073FF5E3
:10B3F000A1AE259B472FA3EB060312933FF4EFAEBC
:10B40000219B04E727AA08990A9803F0C5FB0028A6
:10B410007EF436AE219D299C289B0DF1D0091AE6B9
:10B42000A0460025FEF772BD259B7DE5169A139B6D
:10B43000134467220D93119223EAE37391E50E936F
:10B440001746FFF7FFBB303330228DF88F308DF871
:10B450008E2024AB17E70E93FCE43D4E3D4B9DF848
:10B460007F70FFF735B9139B169A9D1805EB0B03F8
:10B470000D9323EAE37374E500220023DDE91C0148
:10B4800004F0F2FB00287FF45FAEC5F101052195C1
:10B490002C4436E5079B13F001037FF4FDAE1393B4
:10B4A0000D9B23EAE3735CE5139B0D9AC3F1010343
:10B4B0001A4413460D9267E7BBF1000F02D1079BB8
:10B4C000DA0707D5169B5D1C05EB0B030D9323EAEA
:10B4D000E37346E501230D9343E50E9898F8013098
:10B4E00005680430002D0E90A046BEF60DAD4FF05D
:10B4F000FF35FEF709BD8DF87F10FFF793B88DF883
:10B500007F10FFF75DB88DF87F10FEF7BFBF8DF895
:10B510007F10FEF75CBE8DF87F10FFF712B88DF834
:10B520007F10FEF7CABD8DF87F10FFF751B98DF877
:10B530007F10FEF723BE8DF87F10FFF7EDB88DF872
:10B540007F10FFF78CB80DF18E039CE6E00C01082C
:10B55000B40C0108B00C010810B4044C13460A46A0
:10B56000014620685DF8044BFEF75ABCB80600207F
:10B57000F0B50C46ADF26C4D8989666EE589199679
:10B5800021F00201666AADF80E500025E769ADF8BA
:10B590000C10099606951AAE4FF480656946009620
:10B5A00004960295059507970646FEF739FC051E99
:10B5B00007DB30466946F9F7C9FF002818BF4FF08E
:10B5C000FF35BDF80C305B0603D5A38943F040037B
:10B5D000A38128460DF26C4DF0BD00BF70B5002A66
:10B5E0009AB005462FDB14461A464FF402730091B9
:10B5F0000491ADF80C3011D0013C4FF6FF761E9B44
:10B60000029469460594ADF80E60FCF74DF9421CB2
:10B6100012DB009B00221A701AB070BD1E9B0294B0
:10B620004FF6FF7669460594ADF80E60FCF73CF9DD
:10B63000431C04DB1AB070BD8B232B60E9E78B231E
:10B640002B601AB070BD8B2303604FF0FF30F1E721
:10B6500010B582B0054C0093246813460A46014693
:10B660002046FFF7BBFF02B010BD00BFB8060020A8
:10B67000F8B50D461446064610B1836B002B4AD030
:10B68000B4F90C20A369A36091B2080738D52369E7
:10B69000002B35D08904EFB215D522686169D31A21
:10B6A0008B421CDA0133A168501C0139A160206073
:10B6B000157062699A421AD0A389DB0701D50A2F57
:10B6C00015D03846F8BD616E42F4005221F40051A5
:10B6D000A281226861666169D31A8B42E2DB21464E
:10B6E0003046F9F733FF40B922680123DBE72146F2
:10B6F0003046F9F72BFF0028E3D04FF0FF37E0E7A3
:10B700002146304600F02EF80028F6D1B4F90C207E
:10B71000236991B2BEE7FAF739F8B1E721B1FF2A00
:10B7200004D80A7001207047084670478A230360D6
:10B730004FF0FF30704700BF70B50D46084C114602
:10B7400006461A46284600232360F5F721FC431CD1
:10B7500000D070BD2368002BFBD0336070BD00BFEC
:10B76000302A002038B5304B1B6805460C4613B113
:10B770009A6B002A38D0B4F90C2093B218070CD574
:10B780002069A8B113F001021ED0636900225B4258
:10B79000A361A260F0B1002038BDD9063CD558079E
:10B7A00026D4206942F00803A3819BB20028E9D186
:10B7B00003F42072B2F5007FE4D028462146FAF760
:10B7C0003BFDA3892069DDE7990758BF6269A26044
:10B7D0000028E0D1B4F90C301A06DDD543F040035F
:10B7E000A3814FF0FF3038BD1846F9F7CFFFC2E70D
:10B7F000216B51B104F14003994204D02846F5F77A
:10B80000C8FAB4F90C200023236300232069636085
:10B8100022F024022060C5E742F0400209232B6099
:10B820004FF0FF30A28138BDB806002038B5074C74
:10B830000023054608462360F5F78AFB431C00D029
:10B8400038BD2368002BFBD02B6038BD302A002088
:10B8500002690B69934200F38D802DE9F04F03F1EB
:10B86000FF3801F1140700F1140B57F828205BF89A
:10B8700028304FEA880483B00132B3FBF2F90BEBB6
:10B880000403009407EB040A0193B9F1000F39D0C7
:10B890000025BC46DE462B465CF8046BDEF8002033
:10B8A000B4B209FB0455360C2C0C09FB0644ADB2AE
:10B8B0005B1BA6B213FA82F3C6EB124606EB2346D5
:10B8C0009BB243EA0643E2454EF8043B4FEA144577
:10B8D0004FEA2643E0D2009B5BF8033093B9019C0A
:10B8E000231F9B450CD254F8043C4BB9A4F1080328
:10B8F00002E01A68043B1AB99B4508F1FF38F8D3F7
:10B90000C0F81080044601F04FFA00282EDB09F140
:10B9100001095D46002357F8041B28688AB29A1A69
:10B92000090C12FA80F2C1EB104303EB224391B2EF
:10B9300041EA0341BA4545F8041B4FEA2343EAD2E2
:10B940005BF828200BEB880382B91A1F93450BD2B2
:10B9500053F8042C42B9083B02E01A68043B1AB9B8
:10B960009B4508F1FF38F8D3C4F81080484603B06F
:10B97000BDE8F08F002070472DE9F04F016C99B0C1
:10B980008146259C92469B4649B1426C4A60012300
:10B9900093408B6000F0DAFF0023C9F84030BBF120
:10B9A000000FD84633DB00232360A34B1A4608EA76
:10B9B0000303934214D0002200235046594604F05A
:10B9C00053F9054648B3249A01231360269B002BA4
:10B9D00000F0C28099481860013819B0BDE8F08FB6
:10B9E000249A42F20F731360BAF1000F00F09F80A7
:10B9F0009348269B002BF0D0C378002B00F0AE803C
:10BA000000F10803269A136019B0BDE8F08F0123F6
:10BA10002BF000482360C346C7E716AA17AB019274
:10BA2000009352465B46484601F0F6FA5FEA185426
:10BA3000089040F08580169D179C2C4404F23243F8
:10BA4000202B40F38982C3F1400304F2124008FA2C
:10BA500003F82AFA00F040EA080003F027FE012369
:10BA6000013CA1F1F8710D930022764B03F0E0FC4C
:10BA70006BA3D3E9002303F08FFE6BA3D3E900236C
:10BA800003F0D8FC064620460F4603F01FFE68A3CD
:10BA9000D3E9002303F080FE02460B4630463946C8
:10BAA00003F0C8FC06460F4604F026F90022049075
:10BAB00000233046394604F0E1F8002840F02782A0
:10BAC000049E162E00F220825F4B03EBC603D3E9DF
:10BAD000000152465B4604F0EFF8002800F0418276
:10BAE000731E049300230B932C1BB4F1010800F187
:10BAF000298200230593049B002BC0F21A829844EC
:10BB00000A9300230293229B092B29D8052B40F38B
:10BB10004386043B22930025229B023B032B00F229
:10BB20002286DFE813F02A03230235034F04444B37
:10BB3000464AC8F31300002814BF1846104658E7B9
:10BB4000CBF3130343F07F510D955046A4F2FF341D
:10BB500041F44011169D87E73D483EE7C31C51E77D
:10BB60000021C9F844104846229100F0C9FE4FF068
:10BB7000FF330693229A0C93012307902392C9F86E
:10BB800040000993179B002BC0F2D080049A0E2A24
:10BB900000F3CC802C4B03EBC20393ED007B239B83
:10BBA000002B8DED027BC0F2FE8256465F46DDE93A
:10BBB00002AB304652465B46394603F017FF04F0AD
:10BBC0009BF8044603F082FD52465B4603F0E4FD19
:10BBD0000B4602463946304603F02AFC079D04F125
:10BBE00030032B70069B012B06460F4605F101051D
:10BBF00061D00022174B03F0CFFD00220023064640
:10BC00000F4604F031F800287DD1CDF81490DDF80E
:10BC100018A0DDF81CB0DDE9028928E0AFF3008050
:10BC200061436F63A787D23FB3C8608B288AC63F42
:10BC3000FB799F501344D33F0000F07FE90C0108CB
:10BC4000580E01080000F83F600E01084C0E010874
:10BC5000E80C01080000244003F09EFD00220023B0
:10BC600006460F4604F000F8002840F0AE83424636
:10BC70004B463046394603F0B9FE04F03DF8044621
:10BC800003F024FD42464B4603F086FD02460B4678
:10BC90003046394603F0CCFB04F1300E05F801EBD9
:10BCA000CBEB050ED64506460F464FF00002AE4BD5
:10BCB000D2D1DDF8149032463B463046394603F087
:10BCC000B9FB06460F4602460B46DDE9020103F0CA
:10BCD000D5FF40B932463B46DDE9020103F0C4FF1F
:10BCE00088B1E3070FD515F8014C079A6B1E04E0E5
:10BCF0009A4200F0FC8313F8014D392C03F1010541
:10BD0000F6D001341C700899484600F01FFE00224E
:10BD1000049B2A70249A01331360269B002B00F0A9
:10BD20009B8307981D6019B0BDE8F08F099A002A1F
:10BD300000F00E81229A012A40F35782069B029A54
:10BD40005F1EBA42C0F28B83D71B069B002BC0F24A
:10BD50008084059D069B059A01211A444846059258
:10BD6000984400F0D7FE064665B1B8F1000F09DD32
:10BD70004545059A2B46A8BF4346D21A0592ED1AAF
:10BD8000C3EB0808029B002B40F3F582099A002AB6
:10BD900000F00282002F00F0FF8131463A4648460B
:10BDA00000F05AFF089A01460646484600F0BCFEDD
:10BDB00008990446484600F0C9FD029BDB1B02932C
:10BDC00040F0E9810121484600F0A4FE0A9B029060
:10BDD000002B00F0158201461A46484600F03CFF51
:10BDE000229B0290012B40F3F3820027029A1369F1
:10BDF00002EB8303186900F03FFEC0F120004044CD
:10BE000010F01F0000F0FA81C0F12003042B40F372
:10BE1000BD84C0F11C00059B034405930544804488
:10BE2000059B002B05DD21461A46484600F064FFBD
:10BE30000446B8F1000F05DD42460299484600F07D
:10BE40005BFF02900B9B002B40F07A82069B002B3D
:10BE500040F39382099B002B40F0F481DDF81CB085
:10BE6000069FDDF808805D4602E000F079FD04469B
:10BE700041462046FFF7ECFC00F1300A05F801AB23
:10BE8000CBEB0503BB424FF00A024FF00003214603
:10BE90004846EADB079B069A012AACBF9B18013390
:10BEA0001D464FF0000B21460122484600F024FFBA
:10BEB0000299089000F078FF002840F3058315F8F8
:10BEC000012C07996B1E04E08B4200F0748213F87A
:10BED000012D392A03F10105F6D001321A700299B9
:10BEE000484600F033FD002E3FF40DAFBBF1000FCC
:10BEF00005D0B34503D05946484600F027FD3146EA
:10BF0000484600F023FDFEE601230B93ECE5DDF847
:10BF10001080404603F0DAFB02460B4630463946B5
:10BF200003F0A2FE00287FF4CBAD08F1FF330493A9
:10BF3000C6E5059A049BD21A5B4202930023059240
:10BF40000A93E0E5C8F1000305934FF00008D2E53D
:10BF5000029F059D099E07E7C3F120080AFA08F031
:10BF60007BE50B90C0E500BF00002440002309934F
:10BF7000049B239A13440C930133002B069340F344
:10BF80007D82069C26460021172EC9F844100BD945
:10BF9000012204235B0003F11400B042114602F1B8
:10BFA0000102F7D9C9F84410484600F0A9FC0E2C4C
:10BFB0000790C9F840003FF6E5AD002D3FF4E2AD33
:10BFC00004990029CDE90EAB40F39A82904B01F021
:10BFD0000F020E1103EBC203F006D3E9004540F156
:10BFE00046828C4B50465946D3E9082303F0FEFCA9
:10BFF000CDE9100106F00F064FF0030A86B1854F18
:10C00000F10709D520462946D7E9002303F0C4FBF0
:10C010000AF1010A04460D46761007F10807EFD130
:10C0200022462B46DDE9100103F0E0FC06460F46F0
:10C030000B9B43B10022784B3046394603F01EFE7D
:10C04000002840F01A83504603F040FB32463B463E
:10C0500003F0A2FB714B002203F0ECF9069B0446AF
:10C06000A1F15075002B00F0DB81049B1493069B1B
:10C070001093099B002B00F09482109A644B68493E
:10C0800003EBC20353E90223002003F0AFFC224676
:10C090002B4603F0CDF982468B463046394603F0F5
:10C0A0002BFE044603F012FB02460B46304639468F
:10C0B00003F0BEF93034079DE4B206460F462C70FB
:10C0C00002460B4650465946013503F0F5FD00285F
:10C0D00050D132463B4600204F4903F0A9F90246B1
:10C0E0000B465046594603F0E7FD002840F0088310
:10C0F000109A012A40F3F781109B079ACDF84080EF
:10C10000134498460DE00020434903F091F952464C
:10C110005B4603F0B3FD002840F0F282454500F095
:10C12000E0815046594600223E4B03F035FB002289
:10C130003C4B82468B463046394603F02DFB0F467A
:10C14000064603F0D9FD044603F0C0FA02460B464A
:10C150003046394603F06CF93034E4B252465B465F
:10C1600005F8014B06460F4603F088FD32463B4674
:10C170000028C8D0149B0493C5E500230993239B92
:10C18000002B40F380811E461C460C930693FAE672
:10C1900001230993F3E70894029A0899484600F0AE
:10C1A0005BFD04460EE6069B002B3FF7FEAC40F01D
:10C1B0004F81DDE9020100221B4B03F0EDFA5B46E3
:10C1C000524603F06FFD069B02931E46002800F0C6
:10C1D000EA80239B079DDB4304930299484600F0C5
:10C1E000B5FB002E3FF48FAD89E60D9A002A00F0D2
:10C1F000388203F23343029F059DACE51C200AE61A
:10C20000229B012B40F380820A9F0120F7E500BFAB
:10C21000600E0108280F01080000F03F00001C40DC
:10C220000000E03F0000244000001440314600239D
:10C230000A22484600F094FB0C9B002B064640F374
:10C240008D820693002D05DD31462A46484600F0D2
:10C2500053FD0646002F40F07C81B046069B079AAE
:10C26000013BD31808930AF0010309931746DDF840
:10C2700008B020465946FFF7EBFA314605462046FE
:10C2800000F092FD424659468246484600F0AEFD17
:10C29000C268834605F13003002A49D10146204691
:10C2A000069300F081FD59460590484600F04EFB8C
:10C2B000059A069B2AB9229919B90999002900F013
:10C2C0003582BAF1000FC0F2E38005D1229919B985
:10C2D0000999002900F0DC80002A00F34E81089AB9
:10C2E0003B7007F1010A9742554600F05281214602
:10C2F00000230A22484600F033FB464504463146F7
:10C300004FF000034FF00A0248460BD000F028FB24
:10C310004146064600230A22484600F021FB5746C4
:10C320008046A4E700F01CFB5746064680469EE781
:10C3300001464846059300F009FB0122059BC0E732
:10C340000299204600F030FD0028BFF67FAD21465F
:10C35000049C0023013C0A224846049400F000FBA0
:10C36000099B0446002B7FF461AF0C9B002B40F32C
:10C37000ED81069372E5089C24E5229B022B7FF752
:10C3800069AD069B002B40F09D810299052248462D
:10C3900000F0E6FA01460290204600F005FD002874
:10C3A00008947FF716AF049A07993123013204925B
:10C3B0000B704D1C11E7049A01320492079A312345
:10C3C00013708CE501230993D2E5DDF814909AE40B
:10C3D000BAF1000F7FF409ADCBF31303002B40F04B
:10C3E0003E812BF000473F0D3F052FB1059B0133E8
:10C3F000059308F1010801270A9B0120002B3FF457
:10C40000FEACF3E4504603F061F932463B4603F0DC
:10C41000C3F90022BF4B03F00DF80446A1F150759B
:10C42000304639460022BC4B03F002F822462B4628
:10C4300006460F4603F040FC002840F0AE8022463E
:10C4400005F100433046394603F018FC00284AD075
:10C45000002302931E46BCE60798FFF7BEBA029B74
:10C460000A9A0297FB1A1A440A9200276DE49DED7E
:10C470000E7B4FF0020A8DED107BBFE51C460021BC
:10C48000C9F8441090E5012423940C940694F6E72F
:10C49000002A9A4611DD21460122484600F02CFC74
:10C4A0000299044600F080FC002840F34881BAF16C
:10C4B000390F00F0098105F1310AB34687F800A071
:10C4C0007D1C464608940AE504D11AF0010F01D0FC
:10C4D000F5E4154615F8013C302B05F1FF32F8D094
:10C4E000FDE4DDF84080DDE90EABFFF74BBB0799BB
:10C4F00030220A70049A15F8014C0132049200E4CB
:10C50000049B5C42002C00F0B380844B04F00F02CB
:10C5100003EBC203D3E90023DDE90E0103F03CF98C
:10C52000241106460F4600F016817D4D4FF0020A99
:10C53000E20709D530463946D5E9002303F02CF946
:10C540000AF1010A06460F46641005F10805EFD10D
:10C550006EE57168484600F0D3F933699A1C0546C8
:10C56000920006F10C010C30FAF7DAF929460122A3
:10C57000484600F0C1FB804670E6392B00F0A480ED
:10C5800003F1010AB34687F800A07D1C46460894D3
:10C59000A5E4B3469A46464685E4002302931E4628
:10C5A00001E7109B5D495A1E01EBC2012B46159213
:10C5B000D1E90001224603F0EFF8CDE91201394636
:10C5C000304603F099FB044603F080F80B46024620
:10C5D0003946304602F02CFF109B0F460799303445
:10C5E000012B06460C7001F1010520D0109B079A23
:10C5F00013449A46AB4600224A4B3046394603F074
:10C60000CBF80F46064603F077FB044603F05EF8CE
:10C61000303402460B463046394602F009FF0BF82B
:10C62000014BDA4506460F46E5D1159B1D44002215
:10C630003D4BDDE9120102F0FDFE32463B4603F0C0
:10C640001DFB002848D0149B049315F8014CFFF7FC
:10C650004CBB059B069A9D1A0023FFF77CBB002765
:10C66000CAE6169B029F059DC3F13603FFF773BB15
:10C67000DDE90E674FF0020ADAE4069B002B3FF477
:10C68000C1AE0C9B002B7FF72EAF0022254B30460E
:10C69000394603F081F806460F460AF1010003F01F
:10C6A00015F832463B4603F077F80022194B02F0AA
:10C6B000C1FE049A0C9B1093013A0446A1F15075F7
:10C6C0001492D6E4089484E53922B3460894464689
:10C6D0003A707D1CFFF7F5BBDDE9122300201249FB
:10C6E00002F0A6FE32463B4603F0E6FA08B9FAE647
:10C6F000154615F8013C302B05F1FF32F8D039E52D
:10C70000149B0493FFF7F1BABAF1000F7FF47CADEC
:10C7100062E600BF00001C4000001440600E0108EB
:10C72000280F0108000024400000E03F392BD346C9
:10C730009A46C9D0BBF1000F3FF7BDAEBDE67FF40E
:10C74000BCAE1AF0010F3FF4B8AEB0E6229B022B4C
:10C7500025DC0C9B0DE64FF0020A69E4229B022BBC
:10C760001DDC0C9B6DE50024C9F844402146484679
:10C7700000F0C6F84FF0FF3306930C9301230790A7
:10C780002394C9F840000993FFF7FCB93FF448AB84
:10C79000C0F13C00FFF73FBB0125FFF7BDB90C9B83
:10C7A0000693EEE50B78722B30B431D0772B2AD07C
:10C7B000612B04D01623036030BC002070474FF477
:10C7C000027501244FF4847011F8013F8BB1622B84
:10C7D00016D0782B11D02B2BF6D111F8013F20F079
:10C7E0001C0024F0030440F0100044F00204002B6D
:10C7F000EDD12C43146030BC704744F40064E3E78F
:10C8000044F48034E0E74FF4C06501240820DBE7FE
:10C8100000252C460420D7E738B5074C00230546F1
:10C8200008462360F4F710FC431C00D038BD236891
:10C83000002BFBD02B6038BD302A0020FF2801D907
:10C840000020704710B50446F9F7BCFC204440783E
:10C8500000F00800C0B210BDF0307047044A054B2C
:10C860001268506B002808BF1846F030704700BFB0
:10C87000B8060020BC06002070B50D46084C1146D5
:10C8800006461A46284600232360F4F7FDFB431CA6
:10C8900000D070BD2368002BFBD0336070BD00BF9B
:10C8A000302A0020F0B583B00746089D92B1114CA4
:10C8B000114E2468646B0095002C08BF3446D4F8F0
:10C8C000E440A047431C03D100228A232A603B6036
:10C8D00003B0F0BD074B08491B685B6B0095002B4C
:10C8E00008BF0B4614462146044AD3F8E44001230E
:10C8F000A047E7E7B8060020BC060020C80C0108E6
:10C90000C36C70B505460C464BB153F8240080B19A
:10C91000026843F8242000230361C36070BD212214
:10C920000421F4F738FAE86403460028EDD100202A
:10C9300070BD012101FA04F6721D28469200F4F739
:10C940002AFA0028F3D044608660E4E731B1C36C72
:10C950004A6853F82200086043F82210704700BF6D
:10C96000F0B50C6983B00D46064601F1140E0027A0
:10C97000DEF8000081B202FB01310B0C000C02FB5F
:10C98000003389B2013701EB0341BC424EF8041B6E
:10C990004FEA1343ECDC3BB1AA68944207DA05EB9B
:10C9A0008402013453612C61284603B0F0BD6968EC
:10C9B000019301313046FFF7A3FF2A69023205F1E6
:10C9C0000C01074692000C30F9F7AAFFF26C696877
:10C9D000019B52F82100286042F821503D46DEE7D5
:10C9E0002DE9F843234C089D1F46083384FB034E72
:10C9F000DB17C3EB6E0EBEF1010F06460C469046E8
:10CA000035DD012300215B009E4501F10101FADCC7
:10CA10003046FFF775FF0123B8F1090F4561036147
:10CA200021DD04F109094D46444415F8013B014656
:10CA3000303B0A223046FFF793FFA542F5D109EBC0
:10CA40000804083C47450CDDC8EB0707274414F8E9
:10CA5000013B0146303B0A223046FFF781FFA742E7
:10CA6000F5D1BDE8F8830A344FF00908EAE7002160
:10CA7000CEE700BF398EE338030C1B04B3B90004C2
:10CA8000102310F07F4F04BF0002083310F0704FE6
:10CA900004BF0001043310F0404F04BF8000023394
:10CAA000002807DB420003D4202070470023E8E77A
:10CAB000581C704718467047036813F0070207D0E8
:10CAC000D90720D49A0720D49B080360022070471E
:10CAD00099B209B91B0C102213F0FF0F04BF1B0AF7
:10CAE0000832190704BF1B090432990704BF9B08C9
:10CAF0000232D90704D45B0801D1202070470132EB
:10CB0000036010467047002070475B0803600120F7
:10CB1000704700BF10B50C460121FFF7F1FE01225E
:10CB20004461026110BD00BF2DE9F04F0D69176926
:10CB3000BD4283B00C46164604DA2A4634463D46CA
:10CB40000E461746A368616805EB07089845C8BFFD
:10CB50000131FFF7D5FE00F1140C0CEB8809CC4530
:10CB6000009005D26346002143F8041B9945FBD889
:10CB700006F1140202EB870A04F11403524503EB99
:10CB8000850E54D2CDF80490994652F8043B1FFA12
:10CB900083FBBBF1000F20D000204F4666460546C0
:10CBA00000E01E4657F8044B3068A1B283B20BFB7D
:10CBB0000131240C000C4B190BFB040000EB13405B
:10CBC00099B2334641EA0041BE454FEA104543F869
:10CBD000041BE6D8756052F8043C5FEA134B20D082
:10CBE000DCF80030674618464D46002100E0374625
:10CBF0002C88000C0BFB040001449CB23E4644EA26
:10CC0000014346F8043B786855F8044B83B2240C82
:10CC10000BFB043404EB1143AE454FEA1341E6D855
:10CC20007B6092450CF1040CAFD8DDF80490B8F1AC
:10CC3000000F0BDD59F8043CA9F104091BB105E014
:10CC400059F8043D13B9B8F10108F9D10098C0F8BA
:10CC5000108003B0BDE8F08F12F003032DE9F0411E
:10CC6000144607462ED10E46A4101CD0BD6C95B3B9
:10CC7000E3074FF0000806D4641014D02868A8B168
:10CC80000546E307F8D52A4631463846FFF74CFFFC
:10CC9000B6B17268FB6C641053F82210316043F82F
:10CCA00022600646EAD13046BDE8F0812A46294690
:10CCB0003846FFF739FF2860C0F800800546E0E7F6
:10CCC0000646D9E75A1E0B4D002355F82220FFF7E0
:10CCD00047FE0646C8E701213846FFF711FE40F23D
:10CCE000712101220023416102610546B86403609D
:10CCF000BEE700BF500F01082DE9F04791460A69D1
:10CD00008B684FEA691404EB020808F101059D42A3
:10CD10000E468246496804DD5B009D4201F1010137
:10CD2000FADC5046FFF7ECFD002C00F1140238DD70
:10CD300002EB8403002142F8041B9342FBD13469C7
:10CD400006F1140119F01F0901EB840E21D0C9F17D
:10CD5000200200240F6807FA09FC4CEA04049C46F0
:10CD600043F8044B51F8044B8E4524FA02F4F1D8F1
:10CD7000CCF804400CB108F10205DAF84C307268C6
:10CD8000013D53F822100561316043F82260BDE88F
:10CD9000F087043B51F8042B43F8042F8E45F9D853
:10CDA000EBE71346CBE700BF02690B69D21A13D138
:10CDB0009B0014301431194410B4034401E098422C
:10CDC0000CD253F8044D51F8042D9442F7D009D3F6
:10CDD00001205DF8044B70471046704700205DF855
:10CDE000044B70474FF0FF30F3E700BF2DE9F843E5
:10CDF0000B690F4611695B1A002B904617D1890009
:10CE000007F1140208F114055318294401E09A426D
:10CE10005ED253F8046D51F8044DA642F7D060D2AB
:10CE20003B46144647464FF00109984606E05DDB55
:10CE300007F1140502F114044FF000097968FFF7B7
:10CE40005FFDD8F810303E69C0F80C9004EB830CFD
:10CE5000A64605EB860700F1140400235EF8041BC8
:10CE600055F8048B8AB213FA88F3090C9A1AC1EBAD
:10CE7000184303EB224392B242EA0342F44544F8DA
:10CE8000042B4FEA2343E9D8AF4217D9A4462946D9
:10CE900051F804EB13FA8EF2131403EB1E4392B213
:10CEA00042EA03428F424CF8042B4FEA2343EFD867
:10CEB000ED433D4425F0030504352C44043C22B9E0
:10CEC00054F8043D013E002BFAD00661BDE8F8831A
:10CED0000021FFF715FD0122002302614361BDE837
:10CEE000F8832C464FF000091546A7E73B4607F1AB
:10CEF000140408F1140547464FF0010998469DE7D0
:10CF00000F4B0B40A3F15073002B02DD002019469C
:10CF100070475B421B15132B0BDD143B1E2BDDBF33
:10CF2000C3F11F03012202FA03F301230021184673
:10CF300070474FF40022002042FA03F1704700BF0F
:10CF40000000F07F2DE9F041066900F1140808EBBC
:10CF5000860656F8047C3846FFF78EFDC0F12003A4
:10CF60000A280B60A6F104031ADC984538BF56F86E
:10CF7000083CC0F10B0227FA02F138BF23FA02F293
:10CF800000F1150341F07F5528BF002207FA03F393
:10CF900045F4401543EA020420462946BDE8F081E5
:10CFA000984520D2B0F10B0256F8081C1ED007FAA3
:10CFB00002F040F07F50C2F12007A6F1080340F4D0
:10CFC000401021FA07FE984540EA0E0520D256F897
:10CFD0000C3C01FA02F023FA07F202431446204601
:10CFE0002946BDE8F0810B3809D1014647F07F554D
:10CFF0000C4645F4401520462946BDE8F08107FA65
:10D0000000F040F07F55002245F440151446E6E755
:10D0100001FA02F21446E2E72DE9F04383B0012160
:10D020001C46C3F30A5517460A9EFFF769FCC4F372
:10D03000130481460DB144F4801401941FB302A877
:10D0400040F8087DFFF738FD002835D19DE80C0039
:10D05000C9F81420002B0CBF01210221C9F8183097
:10D06000C9F81010DDB909EB8103A0F2324030603D
:10D070001869FFF701FD0B9BC0EB41101860484693
:10D0800003B0BDE8F08301A8FFF716FD019BC9F8C6
:10D09000143001212030C9F81010002DE3D0A5F282
:10D0A000334808EB000333600B9BC0F13500186078
:10D0B000484603B0BDE8F0839DE80C00C0F12001B4
:10D0C00003FA01F10A43C3400193C9F81420C1E7F0
:10D0D0002DE9F04383B00E4669460746FFF732FF5D
:10D0E00004460D46304601A9FFF72CFF89469DE80E
:10D0F0000A003A693669C91A961B01EB4613002BE0
:10D1000080460BDD05EB03510D4642464B4620465B
:10D11000294602F06BFC03B0BDE8F083A9EB03578E
:10D12000B946F2E770B4146902F1140301394E11E3
:10D1300003EB84040136A34200EB86060CD2011FE8
:10D1400053F8045B41F8045F9C42F9D8A31A153BDD
:10D1500023F0030304331844864204D9002340F823
:10D16000043B8642FBD870BC704700BF03694A117C
:10D17000934210B400F1140410DA04EB83039C42D0
:10D1800021D253F8040C043B18B115E053F8042DD8
:10D1900092B99C42FAD35DF8044B704710DD11F050
:10D1A0001F010DD054F8220020FA01F303FA01F117
:10D1B000884204EB8203E2D001205DF8044B704703
:10D1C00004EB8203DBE70020E5E700BF70B50D4606
:10D1D000084C114606461A46284600232360F3F7FA
:10D1E00007FF431C00D070BD2368002BFBD03360C9
:10D1F00070BD00BF302A002070B40D785E2D2FD096
:10D20000002201311646431E00F1FF0403F8012FEE
:10D21000A342FBD185B186F0010242554C1C14F8A3
:10D22000013C2D2B0ED05D2B09D013B11D4621469C
:10D23000F3E7084670BC7047481E70BC7047204634
:10D2400070BC70474E785D2EF0D0B542EEDC0231F6
:10D2500043190135AE4203F8012FFADC0234DEE750
:10D2600001224D7816460231CDE700BF00487047D5
:10D270000000C07F2DE9F0410F469046FFF740FEC9
:10D2800004460D46B8F1000F11D0C7F30A53C3F19D
:10D290006B03002B0BDD1B0503F17F55002405F507
:10D2A000401522462B4602F077FABDE8F081204671
:10D2B0002946BDE8F08100BF2DE9F04F1D46A1B021
:10D2C0000023834628460E4606921C93FFF7C4FAB5
:10D2D0000024002382460068CDE90434FAF7F0F90F
:10D2E0001B9681463246144612F8017B2D2F00F220
:10D2F000AF80DFE807F017ADADADADADADADAD8141
:10D3000081818181ADADADADADADADADADADADADFD
:10D31000ADADADADADAD81ADADADADADADADADAD69
:10D32000AD2BAD7E069B4FF000094FF0000A43B1D4
:10D3300000230793069B1E60079B13B10AF100436D
:10D340009A464846514621B0BDE8F08F0023079326
:10D35000621C1B926778002FE4D0302F14467BD0DC
:10D36000002308940A93A7F13003092B00F2E78306
:10D370004FF00008204645464446082CC8BF08EB3D
:10D38000880805EB850300F1010007EB43031B90C0
:10D39000C4BF07EB4807A7F130080778D8BFA3F14F
:10D3A0003005A7F13003092B04F10104E5D9DAF8BF
:10D3B00000104A46FAF7F2F900B300203B468146D6
:10D3C0000746A246652B00F0B280452B00F0AF80E7
:10D3D0000022002C52D118B90A9A002A00F0D382F8
:10D3E0004FF000094FF0000A069B002BA4D01B9EB3
:10D3F000A0E701230793ABE71B9274E71B9B03EBAA
:10D4000009021B9213F809300746A246A3F1300225
:10D41000092A00F27B82411C1346002A00F087860D
:10D4200001290F4418BF001905D100F07CBE4D0042
:10D43000844200F0C0840134611E082905EB850197
:10D44000F5DD102CDCBF08EB88084FEA4808EFE751
:10D450000023302F079383D16378582B00F0538338
:10D46000782B00F0508301341B942778302FFAD0AA
:10D47000002FB5D0012308940A9374E7102CA2EB77
:10D4800007032846A1460B93A8BF4FF0100902F0EE
:10D490000DF9BAF1000F08BFA246B9F1090FCDE9A5
:10D4A000040113DD494B03EBC90353E9122302F0D6
:10D4B00073F9064640460F4602F0F8F802460B465E
:10D4C0003046394601F0B6FFCDE904010F2C00F3D8
:10D4D00085800B9B002B27D040F307850B9B162BD9
:10D4E00000F38384394F07EBC307D7E90001DDE977
:10D4F000042302F051F981468A4675E71BA8344996
:10D5000001F090FE00283FF40DAF1B9B3149013B19
:10D510001BA81B9301F086FE10B91B9B01331B93C4
:10D520002D4B059300230493DDE9049A5CE7002C5E
:10D5300000F0E0811B9E731C1B9373782B2B00F073
:10D54000DF822D2B00F017824FF0000CA3F1300288
:10D55000092A00F2D282302B05D11B9A01321B928C
:10D560001378302BFAD0A3F13102082A3FF630AFFE
:10D570001B9A0C92511C303B1B910B935378A3F1D7
:10D58000300EBEF1090F0FD80B9A01311B9102EB3F
:10D59000820203EB42020B78A3F1300EBEF1090FB9
:10D5A000A2F13002F1D90B920C9A891A082900F3E2
:10D5B00013840B9A44F61F618A42A8BF0A46BCF145
:10D5C000000F3FF406AF524203E700BF600E0108B0
:10D5D000700F0108740F01080000F07F0B9BC9EB6E
:10D5E00004099944B9F1000F40F38C8319F00F013D
:10D5F0000AD0B94B03EBC101D1E90001DDE90423F5
:10D6000002F0CAF8CDE9040139F00F0640F01282A9
:10D6100000230A9300952346524608995846FFF77F
:10D62000DFF91290002800F0E5820B9A0021002A11
:10D63000C2F10003A8BF0B460C9322EAE2730B93DE
:10D640000F468A46129C58466168FFF759F906460C
:10D65000002800F0378322699DED047B023292009E
:10D6600004F10C010C308DED087BF9F759F91EA877
:10D670001DA90190DDE9082300915846FFF7CCFC75
:10D680001C90002800F0438401215846FFF742FA1D
:10D690000746002800F016831D9A002AC0F2328146
:10D6A0000C9B0B9C9D180A981E9B8C49121A1A44BD
:10D6B000013A8A42C3F1360380F2EB80891A1F29AE
:10D6C000A3EB010300F3258101228A400E92002280
:10D6D000139205EB03081C440A9B45452A461C444B
:10D6E000A8BF4246A242A8BF2246002A03DDC2EBE1
:10D6F0000808A41AAD1A0C9BBBB139461A46584605
:10D70000FFF7AAFA0746002800F0DC8201461C9ABF
:10D710005846FFF709FA002800F0D4820D901C99B2
:10D720005846FFF713F90D9A1C92B8F1000F08DD67
:10D7300042461C995846FFF7DFFA1C90002800F07B
:10D74000E6830B9B43B131460B9A5846FFF784FAA8
:10D750000646002800F0B682002C08DD314622463D
:10D760005846FFF7C9FA0646002800F0AB82002DA4
:10D7700008DD39462A465846FFF7BEFA0746002814
:10D7800000F0A08232461C995846FFF72FFB8246D4
:10D79000002800F097820023C268C36039460D92CA
:10D7A000FFF702FB0028C0F2CD8300F01D8439464C
:10D7B0005046FFF78DFC00224FF0804304460D4693
:10D7C00002F066FA002869D00D9B002B00F0A980BA
:10D7D0009FED3D7B059B424D8DED0E7B00249946D0
:10D7E000DFF804813F4B09EA0808984500F0D8812A
:10D7F0000A9B2BB3B8F1D46F22D835A3D3E9002309
:10D80000DDE90E0102F044FAB0B1DDE90E0102F0EB
:10D810009BFA002800F0458301F048FFCDE90E0196
:10D820000D9B002B40F03883DDE90E1202F100431E
:10D8300014911593DDE9144505F1D663C8EB030592
:10D84000DDE90801FFF75CFB02460B46204629464E
:10D8500001F0A2FFDDE9082301F0ECFDCDE90401B0
:10D860000C460A9B23B9204B2340984500F0EC81DD
:10D870001C995846FFF76AF831465846FFF766F894
:10D8800039465846FFF762F851465846FFF75EF8AA
:10D89000D8E60022139201220E921AE7134B20467B
:10D8A0002946002201F078FF0D9BCDE90E01002BE7
:10D8B0005CD101F1004310901193059BDDE9104507
:10D8C00099468DE7AFF30080000000000000F03FB4
:10D8D0000000C0FFFFFFDF41600E010802FCFFFFF8
:10D8E0000000F03F0000E07F0000F07F0000E03F1C
:10D8F0004FF00109002844D10A9B002B3FF412ADE0
:10D90000044617E60B9B0C9D9C1ACCE64FF00109D0
:10D9100058E5C149891A012202FA01F113910E92C8
:10D92000D7E6DDE90412002940F0C980C2F31303F1
:10D930009146002B40F0C9800022B84B2046294672
:10D9400002F09CF9002840F071830022B44B20467D
:10D95000294601F021FF0A460146CDE90E1202F1E7
:10D96000004318901993DDE9184539E79DED0E7BCA
:10D970008DED107BA1E74FF0010CB31C1B93B37826
:10D98000E4E50024D6E5B9F1000F7FF4CBAC493BC8
:10D99000252B3FF6C7AC01A252F823F0FDD40008B6
:10D9A00025D3000825D3000825D3000825D3000877
:10D9B000D9DA000825D3000825D3000825D30008AC
:10D9C00025D3000825D3000825D3000825D3000857
:10D9D00025D3000825D3000825D3000825D3000847
:10D9E00025D3000825D3000825D3000825D3000837
:10D9F00025D3000825D3000825D3000825D3000827
:10DA000025D3000825D3000825D3000825D3000816
:10DA100025D3000825D3000825D30008FDD400082D
:10DA200025D3000825D3000825D3000825D30008F6
:10DA3000D9DA0008B6F59A7F00F3DC803611012EA2
:10DA4000DFF8009240F30F83DDE9040100234F4625
:10DA5000984616F0010F08F101084FEA660604D057
:10DA6000D7E9002301F098FE0123012E07F10807F2
:10DA7000EFD1002B40F06983059BA3F1547305930C
:10DA800009EBC808DDE90423D8E9000101F084FEB0
:10DA900021F000431B0D634A1B059342CDE90401AD
:10DAA00000F2A880A2F58012934240F2C8825E4B39
:10DAB000059300230A934FF0FF330493AAE5DDE9B1
:10DAC0000412012900F0F28191469FED517B002460
:10DAD000564D8DED0E7B83E61BA8554901F0A2FB48
:10DAE00000283FF41FAC1B9B1B78282B00F00983F8
:10DAF000504B05930023049316E51B96002268E41F
:10DB00004FF0000C39E7079A02951CAB0192009385
:10DB1000494A1DAB1BA9584601F0FCF810F0070656
:10DB200005463FF45DAC062E40F07B8101340023B6
:10DB30001B944FF000094FF0000A079354E4DAF801
:10DB4000001020464A46F9F729FE48B14FF0000A76
:10DB50003B46D0465546504657465446D14631E49A
:10DB60001B9B03EB09021B9213F80930302B06D1E3
:10DB700001321B921378302B00F10100F8D0A3F191
:10DB80003102082A40F2A2814FF0000A652BD046EC
:10DB9000554657463FF4ACAE54464FF0010914E4E5
:10DBA000A9F1547305939DED047B51EC170BFFF71E
:10DBB000A7F902460B462046294601F0EDFDDDE9B6
:10DBC000042301F037FC21F00043CDE904011B0DD3
:10DBD0001A4ADDE908011B059342CDE9160140F21E
:10DBE000FF80114B99426AD00F4B05934FF0FF33E2
:10DBF00004933DE6124B0593002222230492DDE9B3
:10DC0000049ACBF80030FFF7EFBB00BFAFF3008002
:10DC1000000000000000F03FE2FBFFFF0000F03FCB
:10DC20000000E03F0000A07CFFFFEF7F0000F0BF9E
:10DC30007C0F01080000F8FF5C0F0108FFFF9F7CCC
:10DC40000000F07F280F0108DDE90E8949464046B3
:10DC500002F052F801F03AFD0B46024649464046B2
:10DC600001F0E6FB0D9B80468946002B36D1049BD4
:10DC7000002B33D1C4F3130484BBB0A3D3E9002336
:10DC800001F0FCFF00283FF4F3ADD046DDE9049A33
:10DC90001C9801465846FEF759FE31465846FEF795
:10DCA00055FE39465846FEF751FE12995846FEF782
:10DCB0004DFE41465846FEF749FEFFF795BB169BC1
:10DCC000013391D1D0461C98994B05930022222311
:10DCD0000492DDE9049ACBF80030DAE78EA3D3E9A9
:10DCE00000234046494601F0C9FF0028CDD14046F7
:10DCF00049468BA3D3E9002301F0DEFF00283FF45F
:10DD0000B7ADC2E73FF484ACC9F1000616F00F02CC
:10DD10000AD0884B03EBC203DDE90401D3E90023F9
:10DD200001F064FECDE9040136113FF471AC1F2E01
:10DD300038DC16F0100300F0C9816A23002E0A9324
:10DD400013DDDDE904017C4F0023F20704D5D7E998
:10DD5000002301F021FD0123761007F10807F4D11B
:10DD6000002B40F0F5810A9B9BB1DDE90412C2F360
:10DD70000A53C3F16B03002B11460ADD1F2B40F33E
:10DD8000AD810022342B049240F3D7814FF05C73B5
:10DD9000059300220023DDE9040101F065FF00285E
:10DDA0003FF438AC2223CBF800304FF000094FF09D
:10DDB000000AFFF719BB1B990134082840F38F8034
:10DDC000102CDCBF08EB880802EB480800204B1C35
:10DDD0001B934B78FFF71ABB44F61F62FFF7EFBBAC
:10DDE000059B03F1547405943BE50B9EC4F1250398
:10DDF0009E423FF7F3AB4F4DC4F10F0405EBC40156
:10DE0000341BDDE90423D1E9000105EBC40501F071
:10DE1000C3FCD5E9002301F0BFFC81468A46FFF729
:10DE2000E3BA1C9A3AB135211EA8FFF77BF9584690
:10DE30001C99FEF78BFD062E0BD8DFE806F0291D96
:10DE40001813041D29006FF0004305934FF0FF33B2
:10DE5000049329077FF568AB059B43F000430593C6
:10DE6000FFF762BB324B059300230493F1E71E9B3F
:10DE700004931F9B0593ECE71D9A1F9B1E99049129
:10DE800002F2334223F4801343EA02530593E0E79E
:10DE9000002305930493DCE79DED0E7B8DED147B51
:10DEA000C8E49FED217B8DED0E7BB9E4DDE9041222
:10DEB0009146002A7FF409AED0462223CBF80030E9
:10DEC0001C984FF000094FF0000AE2E61B9A0892F6
:10DED0000025303B471C1146AA46A846012405EB05
:10DEE000850503EB4505002071E70B9911F1160F2D
:10DEF000FFF674AB0F4AA2EBC102D2E90023DDE9C1
:10DF0000040101F073FD81468A46FFF76DBAD046E1
:10DF1000DAE600BFAFF300809535A094FFFFDF3F46
:10DF200035E5AF350000E03F000000000000F03FA5
:10DF30000000F07F600E0108980F01089535A0944D
:10DF4000FFFFCF3F0D9A5546D046DDE9089A7ABBD0
:10DF5000DDE9040160BBC1F313030C4643BB21F0B0
:10DF600000431B0D1B05B3F1D66F21D96B6913B9A3
:10DF70002B69012B1CDD414601225846FEF7BCFEF1
:10DF800039468046FEF710FF002811DD0A9B002B62
:10DF900040F0AC80744B2340A3F580136FEA135319
:10DFA0006FEA035305934FF0FF330493DDE9049ABE
:10DFB0000A9BBBB16D4B179300231693DDE9162323
:10DFC0004846514601F0E8FB03460C4681468A4626
:10DFD000CDE9043431B9049B23B922231C98CBF832
:10DFE000003056E61C9854E60D9BD046DDE9089AB1
:10DFF00053B3DDE904455E4BC5F3130199422A464C
:10E0000046D0139B53B3059A1342D1D00D9B0A9A65
:10E01000DDE9040153B3FFF72DF902460B464846EC
:10E02000514601F007FA81468A46C1E79FED4A7BD7
:10E030008DED187B9FED4A7B8DED0E7B93E401F116
:10E0400054730593FFF7E4BADDE90412C2F3130336
:10E050001446002BD5D10029D3D197E70E9B049A03
:10E060001342A5D0D2E74FF0000805E5FFF702F90B
:10E0700002460B464846514601F0DAF900220023D9
:10E0800081468A4601F0F0FD00287FF416AF8FE745
:10E090000A9B0499FBB1344B2B40B3F1D46F1AD8CF
:10E0A0001B0DC3F16B034FF0FF3000FA03F38B42FB
:10E0B000A7D130498A423DD02B4B134003F5801342
:10E0C000059300230493DDE9049A71E7002E0A9377
:10E0D0003FF737AE5DE64FF0FF33E8E74FF0FF3232
:10E0E00002FA03F3049A1A40049252E61E4B2340AC
:10E0F000B3F1D66F3FF750AFB3F15C7F3FF75AAF44
:10E10000DBE61BA81EAA1C4901F0A4F805287FF431
:10E11000EFAC1F9B43F0FF4343F4E00305931E9BCA
:10E120000493FFF701BA20461B99013445E60846DF
:10E130001B994CE60133BFD1C5E5203B4FF0FF32C0
:10E1400002FA03F30B40059323E6CDE9040193E4BF
:10E15000CDE9040107E600BF000000000000E0BFB9
:10E16000000000000000E03F0000F07F0000503998
:10E17000FFFF0F00FFFFEF7F800F0108054B1B68BB
:10E1800010B45B6B044C002B08BF23465DF8044BB6
:10E19000FFF792B8B8060020BC0600202DE9F84F22
:10E1A000DDF828900F46804616461D468B4600E057
:10E1B000A3465C46484614F801ABF7F7FFFF50440E
:10E1C000417801F0080101F0FF0C0029F0D152461E
:10E1D0002D2A61D02B2A04BF9BF801200BF10204E9
:10E1E000002D43D0102D65D0A946BCF1000F0CBF07
:10E1F0006FF0004A4FF0004A0021BAFBF9FE0846D2
:10E2000009FB1EAA05E029D009FB0030012114F802
:10E21000012BA2F13003092B05D9A2F14103192BDF
:10E220000AD8A2F137039D420EDD4A1CEFD0864585
:10E23000E9D24FF0FF31EAE7A2F16103192B03D8CD
:10E24000A2F157039D42F0DC4B1C15D0BCF1000F2E
:10E2500010D14EB1E1B93760BDE8F88F9A45D3DAF5
:10E2600070464FF0FF31D2E7BDE8F88F302A1AD060
:10E270000A25B9E74042ECE7BCF1000F4FF022035A
:10E280000CBF6FF000404FF00040C8F80030F6B10E
:10E29000671E3760BDE8F88F0BF102049BF8012080
:10E2A0004FF0010C9CE7237803F0DF03582B08D0D4
:10E2B000082599E7302A97D1237803F0DF03582BFC
:10E2C00092D14FF0100962784D4602348DE7BDE8D7
:10E2D000F88F00BF30B5064C064D2468646B83B0E0
:10E2E000002C08BF2C460094FFF758FF03B030BD48
:10E2F000B8060020BC0600202DE9F04F85B09A46F4
:10E300000291039001920F460E9E00E02F463D467B
:10E31000304615F8014BF7F751FF2044437803F0DE
:10E32000080303F0FF02002BF0D12D2C00F08380B6
:10E330002B2C08BF7C78009208BFBD1CBAF1000FDF
:10E340000CD0BAF1100F00F09580009B5646F717DD
:10E350006BB94FF0FF386FF000490CE0302C7FD0E4
:10E360000A2600274FF00A0A009B002BF1D04FF03D
:10E3700000084FF0004932463B464046494601F00E
:10E3800053FD3B46934640463246494601F04CFD1C
:10E390004FF0000E002200230FE045D002FB07F4EF
:10E3A00006FB0344A2FB0623234412EB0C0243EBBF
:10E3B000EC734FF0010E15F8014BA4F1300CBCF1D9
:10E3C000090F06D9A4F1410CBCF1190F0DD8A4F125
:10E3D000370CE24512DDBEF1FF3FECD0994208BF99
:10E3E0009042DAD24FF0FF3EE5E7A4F1610CBCF1B8
:10E3F000190F03D8A4F1570CE245ECDCBEF1FF3F46
:10E400001ED0009911B1524263EB430301990029D8
:10E4100042D0BEF1000F1FD1029D10461946019B4C
:10E420001D6005B0BDE8F08FE345B7DA02460B4644
:10E430004FF0FF3EBFE70123BD1C7C7800937DE7D2
:10E44000009B2BBB4FF0FF306FF00041039A22235B
:10E450001360019B13B9E4E710461946013DDEE75E
:10E460002B7803F0DF03582B0BD0082600274FF042
:10E47000080A79E7302C12D12B7803F0DF03582BF0
:10E480000DD16C781026002702354FF0100A6BE78B
:10E4900000204FF00041D9E710461946C1E7102689
:10E4A000002761E730B5064C064D2468646B83B0E5
:10E4B000002C08BF2C460094FFF71EFF03B030BDB0
:10E4C000B8060020BC0600202DE9F84FDDF82890A2
:10E4D0000E460746154698468B4600E0A3465C4626
:10E4E000484614F801ABF7F769FE5044407800F055
:10E4F000080000F0FF0C0028F0D151462D2961D012
:10E500002B2904BF9BF801100BF10204B8F1000F96
:10E510000CD0B8F1100F5CD04FF0FF33B3FBF8F321
:10E5200008FB03FA6FEA0A0AC14607E0302961D006
:10E530004FF00A083D4BC1464FF0050A4FF0000E60
:10E54000704606E02FD009FB00204FF0010E14F8B2
:10E55000011BA1F13002092A05D9A1F14102192AB2
:10E560000BD8A1F1370290450FDDBEF1FF3FEED091
:10E570009842E7D94FF0FF3EE9E7A1F16102192A7D
:10E5800003D8A1F157029045EFDCBEF1FF3F11D057
:10E59000BCF1000F00D0404255B1BEF1000F0DD1CB
:10E5A0002E60BDE8F88F5245CDDD4FF0FF3ECEE73F
:10E5B000BDE8F88F22233B60704645B3661E2E608F
:10E5C000BDE8F88F0BF102049BF801104FF0010C2D
:10E5D0009CE730291DD1237803F0DF03582B1ED18F
:10E5E0004FF010096178C8464FF00F0A02346FF0FF
:10E5F0007043A3E7237803F0DF03582BF0D04FF0EC
:10E600000808C1464FF0070A6FF0604396E7BDE87F
:10E61000F88F4FF00F0A6FF07043C1468EE7C14686
:10E620004FF00F0A6FF0704388E700BF999999196E
:10E6300030B5064C064D2468646B83B0002C08BFCF
:10E640002C460094FFF740FF03B030BDB806002011
:10E65000BC0600202DE9F04F85B08B46029017468E
:10E660001E4688460E9C00E0A8464546204615F802
:10E67000019BF7F7A3FD4844437803F0080303F038
:10E68000FF02002BF0D14C462D2C00F08C802B2C5F
:10E6900008BF98F80140019208BF08F10205DEB1F9
:10E6A000102E00F087804FEAE67932464B464FF055
:10E6B000FF304FF0FF3101F0B7FB324603908A463E
:10E6C0004B464FF0FF304FF0FF3101F0ADFBB0464D
:10E6D0009646039A53460CE0302C00F08180574B4D
:10E6E0004FF0050E4FF099324FF00A084FF0000935
:10E6F0000A264FF0000C0020002112E0994208BFCA
:10E70000904240D000FB09F408FB0144A0FB080143
:10E71000214410EB0A0041EBEA714FF0010C15F8AF
:10E72000014BA4F1300ABAF1090F06D9A4F1410A4C
:10E73000BAF1190F0DD8A4F1370A564512DDBCF114
:10E74000FF3FECD08B4208BF8242D7D24FF0FF3C54
:10E75000E5E7A4F1610ABAF1190F03D8A4F1570A49
:10E760005645ECDCBCF1FF3F12D0019B13B1404297
:10E7700061EB410127B1BCF1000F12D15D463D6054
:10E7800005B0BDE8F08FF245BCDD4FF0FF3CC6E7B9
:10E79000029A222313604FF0FF304FF0FF31002F19
:10E7A000EED0013DEBE7012308F1020598F80140A6
:10E7B000019374E7302C24D12B7803F0DF03582B1E
:10E7C0002AD14FF0FF336C7803934FF00F0E0235D0
:10E7D0006FF0704A4FF010084FF00009102678E7EC
:10E7E0002B7803F0DF03582BEBD04FF0070E4FF0E0
:10E7F000FF326FF060434FF008084FF00009082621
:10E8000077E74FF00F0E4FF0FF326FF070434FF08D
:10E8100010084FF000096CE74FF010084FF00009A6
:10E8200042464B464FF0FF304FF0FF3101F0FCFA0B
:10E830006FF0704396464FF0FF325AE79999991955
:10E8400030B5064C064D2468646B83B0002C08BFBD
:10E850002C460094FFF7FEFE03B030BDB806002042
:10E86000BC0600202DE9F04F936883B09046002B42
:10E8700072D083464FF00009166808688B680D4611
:10E880004C46002C45D09C421F469A4646D3AB8945
:10E8900013F4906F2DD06F69296907EB4707C1EB1F
:10E8A000000A07EBD777601C7F105044B8423A4605
:10E8B00084BF07463A465B0533D511465846F2F702
:10E8C00064FA002837D0524629690190F8F728F8F1
:10E8D000AA89019B22F4906242F08002AA81CAEBCD
:10E8E000070203EB0A006F612B612860AA602746CC
:10E8F000A24652464946F8F7ADF8D8F80820AB686A
:10E900002868DB1B5044141BAB602860C8F8084023
:10E9100014B3D6F8009074680836B2E72746A246CA
:10E92000E7E75846F2F733FA03460028D7D12969BA
:10E930005846F2F72EFA0C23CBF80030AB890022B0
:10E9400043F040034FF0FF30AB81C8F80820C8F80F
:10E95000042003B0BDE8F08F0020C8F8040003B025
:10E96000BDE8F08F4B1C70B51BD09389146B23F05E
:10E9700020039381CDB2BCB114465268636B9A42B6
:10E980000E4609DA23685A1E226003F8016C636898
:10E9900001336360284670BD214600F085F80028E9
:10E9A000F0D04FF0FF35F5E71069136828B19842B1
:10E9B00003D213F8010C85420FD0936313465668B7
:10E9C000D66302F1400403205063146303F8421F2E
:10E9D000012113605160284670BD5168013B01312F
:10E9E00013605160D6E700BF10B50C46096B69B1E2
:10E9F00004F14003994201D0F2F7CBF9E36B636075
:10EA00000020206313B1A36B236010BDA38922698A
:10EA1000226043F020030022A38162604FF0FF30A8
:10EA200010BD00BF2DE9F04F83B002FB03F9019246
:10EA30009A460C9CB9F1000F29D007460E464D4668
:10EA40004FF000080FE02168F7F76AFF2268C4F86A
:10EA500004805A442260214638465E44CBEB0505CB
:10EA6000FFF7C2FFB8B9D4F804B05D4530465A4646
:10EA7000E9D82A462168F7F753FF62682368521BDA
:10EA80002B4450466260236003B0BDE8F08F4846D7
:10EA900003B0BDE8F08F019BC5EB0909B9FBF3F0AA
:10EAA00003B0BDE8F08F00BF01F140032DE9F04154
:10EAB0000C46096B994214D0666B77003A46F2F720
:10EAC00066F9054640B300EB060832464046294643
:10EAD000F7F726FFC4F80080256367630020BDE8D0
:10EAE000F0814FF48061F2F750F9A8B194F8423008
:10EAF00020634FF48062626380F8FF3394F8413002
:10EB000080F8FE3394F8403080F8FD3300F2FD3099
:10EB100020600020BDE8F0814FF0FF30BDE8F081BB
:10EB20004B6E2DE9F0479C0492462CD593681268F1
:10EB30003BB30F46804602F1080919E96000B608A8
:10EB400017D0043D002401E0A64210D03A4655F803
:10EB5000041F404600F076F8431C04F10104F3D191
:10EB60000023CAF80830CAF80430BDE8F087DAF8A4
:10EB70000830A3EB8603CAF8083009F10809002B16
:10EB8000DBD10020ECE7F7F705F90023CAF80830DD
:10EB9000CAF80430BDE8F08793680BB1FFF7C0BF37
:10EBA00010B4184653605DF8044B70472DE9F047E8
:10EBB00082B0804689461446F7F7F2FA012833D02E
:10EBC00004F15C034A4601A9404600F003FCB0F1A1
:10EBD000FF3F824621D088B39DF80460002508E0FD
:10EBE00023685A1C22601E700135554526D201ABA0
:10EBF0005E5DA368013B002BA360F1DAA769BB420D
:10EC000031462246404601DB0A2EE9D1FCF730FDB1
:10EC1000431CE9D102B0BDE8F087A38943F040036B
:10EC2000A38102B0BDE8F08709F1FF33FE2BC7D8FE
:10EC30005FFA89F682468DF80460CFE7484602B055
:10EC4000BDE8F087B2F90C3013F4005F0BD110B4BB
:10EC5000546E43F4005344F40054546693815DF8B9
:10EC6000044BFFF7A3BFFFF7A1BF00BF02694B1121
:10EC700093422EDAF0B511F01F0100F1140606EBF5
:10EC8000820206EB830E29D056F823300EF10405DC
:10EC9000AA4223FA01F4C1F1200C39D900F110077E
:10ECA0002B6803FA0CF3234347F8043F55F8043B61
:10ECB000AA4223FA01F4F3D8CEEB0202053A22F07D
:10ECC000030204323244146004B10432931B9B10DB
:10ECD00016E000230361002343617047724512D997
:10ECE00000F11004714651F8045B44F8045F8A4255
:10ECF000F9D86FEA0E03134423F0030304339B1087
:10ED0000036113B1F0BD0023036100234361F0BD33
:10ED10003246D8E72DE9F04F8BB08946059016981A
:10ED200003920893FDF798FD0368029318461C466A
:10ED3000F8F7C6FCD9F8003000909A782118302AEC
:10ED400011F801BC40F0A98103334FF000081C46C4
:10ED500013F8012B302A08F10108F8D0B24EB35C49
:10ED6000002B00F0F08023784FF0000AF35C55464A
:10ED7000274623B117F8013FF35C002BFAD1009A24
:10ED800002993846F8F70AFD002800F092803B7897
:10ED9000002D00F07181ED1BAA000192502B00F0B4
:10EDA0009180702B00F08E803D46C9F80070BAF15A
:10EDB000000F40F0B7802B1B013B072B514604DDB1
:10EDC0005B10072B01F10101FADC0598FDF798FDB6
:10EDD00003461433A5420490079340F2D381994629
:10EDE000009B4FF00008C3F10103474606930FE074
:10EDF000202F00F09F803A46043715F8013CF35C61
:10EE0000554603F00F039340A54248EA030815D97D
:10EE100015F8013C5B4505F1FF3AE9D1069B5344E7
:10EE2000A342E5D31846009A02990993F8F7B6FC75
:10EE3000099B0028DCD11D46A542E9D849F8048B7E
:10EE4000079B049AC3EB09094FEAA90313614046E3
:10EE50004FEA4319FDF710FE039B1E68C0EB090043
:10EE6000B04200F3E380C0F209810027039B019ABE
:10EE70009B689A4200F397800398019943689942EE
:10EE800080F2B5805D1AAE4200F30F81C268022A9B
:10EE900000F07F81032A00F05C81012A00F07D816F
:10EEA00005980499FDF752FD149A00231360502031
:10EEB0003DE0002D00F019813B786CE700230193C1
:10EEC0004FF0010A7B782B2B00F0AC802D2B75D0F6
:10EED000791C0025F35C54485A1E182A3FF664AF8B
:10EEE0004A78825C501E1828A3F1100301F1010139
:10EEF0000BD811F8010F03EB830302EB4303325CE1
:10EF0000501E1828A3F11003F3D905B15B42019AF2
:10EF10003D461A440F460192C9F80070BAF1000F3D
:10EF20003FF449AFB8F1000F0CBF062000200BB032
:10EF3000BDE8F08FC9F800804FF0000809F104091E
:10EF40004246042759E7009D02992A462046F8F7D1
:10EF500025FC002836D023782746502BAED0702BC6
:10EF6000ACD0C9F80070DDE7049B9B689F4280F23B
:10EF700034813B46049800EB830201210133022CCB
:10EF80000361516100F018819F4280F2DB80012112
:10EF90000498FFF76BFE039B019A9B6801329A422B
:10EFA000019240F3D28005980499FDF7CFFC149AA2
:10EFB0000023A32013600BB0BDE8F08F0125BB78C0
:10EFC000B91C87E7625DB35C6719002B69D0302AF2
:10EFD0003C4604D114F8013F302BFBD0F35CB3FA6C
:10EFE00083FA3D464FEA5A1A4FF00108C0E6012461
:10EFF00067B1039BDB68022B00F08580032B00F0D8
:10F000008680012B00F0B58044F01004149B1A4652
:10F01000049B1360089B1A46019B136020460BB0AB
:10F02000BDE8F08F0025CAE7C00F0108841B214608
:10F030000498FEF79BF8002835D0621E51110798FE
:10F0400002F01F0350F82110012707FA03F30B42C7
:10F050000AD0BA4240F39B80A11E0498FEF786F8BE
:10F06000002800F094800327019B04982344214644
:10F070000193FFF7FBFDF9E601958FE6341A049939
:10F0800005982246FDF738FE019B04901B1B019357
:10F090000346143307930027E8E69C1C4FF0000852
:10F0A0005CE6134659E70746DEE76C1E002F4ED19B
:10F0B00024B121460498FEF759F807466311079AD0
:10F0C000049852F8232004F01F04012303FA04F4E7
:10F0D0001442294618BF47F00207FFF7C7FD039BFC
:10F0E0005B680193761B022482E700997B5CF25CEB
:10F0F0007D182F46002A3FF44EAE17F8013FF25C10
:10F10000002AFAD147E6159BC3F101031593159B1D
:10F11000002B3FF479AF049B079D1F694FEA8708D6
:10F1200005EB08002B46002104E043F8041B98423D
:10F130007FF61AAF1A68B2F1FF3FF6D00132022C07
:10F140001A6039D016F01F063DD121245EE7012751
:10F15000B4E7159A002A3FF4A3AE08990B60079B09
:10F16000049901220A611A60149B1A4662201160F8
:10F17000DDE6BA077FF548AF079B1B683B43DB071B
:10F18000C9D441E7DDF81C904FF0000856E602278D
:10F190006AE7159A002AE0D082E6AE427FF480AE9C
:10F1A000012EDADD711E0498FDF7E0FF00283FF420
:10F1B00077AE039B5B68D0E7039B1B68013B9E42D5
:10F1C00024D0222422E74544C6F1200655F8040C39
:10F1D000FDF752FCB042B8DAD9E6049BDDF8149092
:10F1E000596848460131FDF78BFB04990B699A1C5D
:10F1F000054692000C310C30F7F792FB0499484613
:10F20000FDF7A4FB04952B691435B3E6731106F0E2
:10F210001F0655F823200123B340134214BF2124B5
:10F220002224F3E630B4046808E014F8013FA3F1A7
:10F230004105192D98BF2033934208D111F8012BB5
:10F24000002AF2D101340460012030BC7047002054
:10F2500030BC70472DE9F04F0B68DFF8749185B032
:10F26000591102EB810113F01F0301911CBF0431FE
:10F270000191019C029003930023194644F8043C39
:10F280009A469E46029BA4F1040C1D68E046604627
:10F2900015F8013F23B319F80340002C43D1202B6C
:10F2A0005DD8D645F4DD404513D2072911DCC1F104
:10F2B000080189000668C1F1200B03465F6807FA60
:10F2C0000BF4344327FA01F61C6043F8046F9845A9
:10F2D000F4D890423AD815F8013F0821002BDAD132
:10F2E000BEF1000F3DD0404501D207295CDD9042C0
:10F2F0003BD9134650F8041B43F8041B8445F9D24C
:10F30000002143F8041B9C45FBD2019B53F8043CAD
:10F310002BB962453AD05CF8043D002BF9D00520AA
:10F3200005B0BDE8F08F013108290EF1010E06DDB0
:10F330009042ADD9002340F8043C01210438036811
:10F3400004F00F0444EA03140460A1E70023A0F1D1
:10F35000040840F8043CF2464046194698E7292B39
:10F360001BD0042005B0BDE8F08F039B002BCCD050
:10F37000019C039B54F8041CC3F120034FF0FF30A1
:10F3800020FA03F30B4044F8043CC1E701230520B5
:10F39000CCF8003005B0BDE8F08F029B01351D6050
:10F3A000BEF1000F9FD1DCE7C1F108039B000568A7
:10F3B000C3F1200701464E6806FA07F42C4326FAEB
:10F3C00003F50C6041F8045F8845F4D88FE700BF6F
:10F3D000C00F0108F0B5064685B01F4689B1104C34
:10F3E000104D2468646B002C08BF2C46D4F8E04014
:10F3F000A047431C03D100228A233A60336005B042
:10F40000F0BD0C460649074A0968496B002908BF48
:10F4100011462246D1F8E04001A9A047E9E700BF24
:10F42000B8060020BC06002081F0004102E000BFC9
:10F4300083F0004330B54FEA41044FEA430594EAB4
:10F44000050F08BF90EA020F1FBF54EA000C55EAEF
:10F45000020C7FEA645C7FEA655C00F0E2804FEAC0
:10F460005454D4EB5555B8BF6D420CDD2C4480EAA2
:10F47000020281EA030382EA000083EA010180EAD2
:10F48000020281EA0303362D88BF30BD11F0004F20
:10F490004FEA01314FF4801C4CEA113102D0404256
:10F4A00061EB410113F0004F4FEA03334CEA133391
:10F4B00002D0524263EB430394EA050F00F0A780A9
:10F4C000A4F10104D5F1200E0DDB02FA0EFC22FAA4
:10F4D00005F2801841F1000103FA0EF2801843FA98
:10F4E00005F359410EE0A5F120050EF1200E012A89
:10F4F00003FA0EFC28BF4CF0020C43FA05F3C018C7
:10F5000051EBE37101F0004507D54FF0000EDCF13F
:10F51000000C7EEB00006EEB0101B1F5801F1BD3E8
:10F52000B1F5001F0CD349085FEA30004FEA3C0CEC
:10F5300004F101044FEA445212F5800F80F09A80E2
:10F54000BCF1004F08BF5FEA500C50F1000041EBE6
:10F55000045141EA050130BD5FEA4C0C404141EBEA
:10F56000010111F4801FA4F10104E9D191F0000F11
:10F5700004BF01460020B1FA81F308BF2033A3F194
:10F580000B03B3F120020CDA0C3208DD02F1140C8B
:10F59000C2F10C0201FA0CF021FA02F10CE002F1C6
:10F5A0001402D8BFC2F1200C01FA02F120FA0CFCBF
:10F5B000DCBF41EA0C019040E41AA2BF01EB045108
:10F5C000294330BD6FEA04041F3C1CDA0C340EDC06
:10F5D00004F11404C4F1200220FA04F001FA02F349
:10F5E00040EA030021FA04F345EA030130BDC4F107
:10F5F0000C04C4F1200220FA02F001FA04F340EAFC
:10F600000300294630BD21FA04F0294630BD94F0AC
:10F61000000F83F4801306BF81F480110134013D93
:10F620004EE77FEA645C18BF7FEA655C29D094EA04
:10F63000050F08BF90EA020F05D054EA000C04BF82
:10F640001946104630BD91EA030F1EBF002100206D
:10F6500030BD5FEA545C05D14000494128BF41F00C
:10F66000004130BD14F580043CBF01F5801130BD70
:10F6700001F0004545F0FE4141F470014FF00000FB
:10F6800030BD7FEA645C1ABF194610467FEA655CAC
:10F690001CBF0B46024650EA013406BF52EA03354E
:10F6A00091EA030F41F4002130BD00BF90F0000F3C
:10F6B00004BF0021704730B54FF4806404F1320478
:10F6C0004FF000054FF0000150E700BF90F0000F31
:10F6D00004BF0021704730B54FF4806404F1320458
:10F6E00010F0004548BF40424FF000013EE700BF28
:10F6F00042004FEAE2014FEA31014FEA02701FBFB8
:10F7000012F07F4393F07F4F81F06051704792F089
:10F71000000F14BF93F07F4F704730B54FF4607403
:10F7200001F0004521F0004120E700BF50EA01024E
:10F7300008BF704730B54FF000050AE050EA0102FB
:10F7400008BF704730B511F0004502D5404261EB6B
:10F7500041014FF4806404F132045FEA915C3FF4AC
:10F76000DCAE4FF003025FEADC0C18BF03325FEA45
:10F77000DC0C18BF033202EBDC02C2F1200300FAFA
:10F7800003FC20FA02F001FA03FE40EA0E0021FA1F
:10F7900002F11444C1E600BF70B54FF0FF0C4CF409
:10F7A000E06C1CEA11541DBF1CEA135594EA0C0FBF
:10F7B00095EA0C0F00F0DEF82C4481EA030621EAFA
:10F7C0004C5123EA4C5350EA013518BF52EA033535
:10F7D00041F4801143F4801338D0A0FB02CE4FF0E7
:10F7E0000005E1FB02E506F00042E0FB03E54FF017
:10F7F0000006E1FB03569CF0000F18BF4EF0010E0F
:10F80000A4F1FF04B6F5007F64F5407404D25FEA0A
:10F810004E0E6D4146EB060642EAC62141EA5551BD
:10F820004FEAC52040EA5E504FEACE2EB4F1FD0CFF
:10F8300088BFBCF5E06F1ED8BEF1004F08BF5FEA7D
:10F84000500E50F1000041EB045170BD06F000462F
:10F8500046EA010140EA020081EA0301B4EB5C04DC
:10F86000C2BFD4EB0C0541EA045170BD41F48011D4
:10F870004FF0000E013C00F3AB8014F1360FDEBFF9
:10F88000002001F0004170BDC4F10004203C35DAD5
:10F890000C341BDC04F11404C4F1200500FA05F358
:10F8A00020FA04F001FA05F240EA020001F00042F9
:10F8B00021F0004110EBD37021FA04F642EB06016F
:10F8C0005EEA430E08BF20EAD37070BDC4F10C0499
:10F8D000C4F1200500FA04F320FA05F001FA04F25D
:10F8E00040EA020001F0004110EBD37041F1000149
:10F8F0005EEA430E08BF20EAD37070BDC4F1200554
:10F9000000FA05F24EEA020E20FA04F301FA05F2BB
:10F9100043EA020321FA04F001F0004121FA04F263
:10F9200020EA020000EBD3705EEA430E08BF20EA33
:10F93000D37070BD94F0000F0FD101F0004640006D
:10F9400041EB010111F4801F08BF013CF7D041EAEF
:10F95000060195F0000F18BF704703F000465200F3
:10F9600043EB030313F4801F08BF013DF7D043EAC4
:10F970000603704794EA0C0F0CEA135518BF95EA7A
:10F980000C0F0CD050EA410618BF52EA4306D1D101
:10F9900081EA030101F000414FF0000070BD50EA20
:10F9A000410606BF1046194652EA430619D094EAAA
:10F9B0000C0F02D150EA013613D195EA0C0F05D194
:10F9C00052EA03361CBF104619460AD181EA0301E8
:10F9D00001F0004141F0FE4141F470014FF00000A0
:10F9E00070BD41F0FE4141F4780170BD70B54FF03B
:10F9F000FF0C4CF4E06C1CEA11541DBF1CEA1355BB
:10FA000094EA0C0F95EA0C0F00F0A7F8A4EB05049C
:10FA100081EA030E52EA03354FEA013100F0888093
:10FA20004FEA03334FF0805545EA131343EA12635C
:10FA30004FEA022245EA111545EA10654FEA002611
:10FA40000EF000419D4208BF964244F1FD0404F5CA
:10FA5000407402D25B084FEA3202B61A65EB030526
:10FA60005B084FEA32024FF480104FF4002CB6EBE3
:10FA7000020E75EB030E22BFB61A754640EA0C0063
:10FA80005B084FEA3202B6EB020E75EB030E22BFA3
:10FA9000B61A754640EA5C005B084FEA3202B6EBE4
:10FAA000020E75EB030E22BFB61A754640EA9C00A3
:10FAB0005B084FEA3202B6EB020E75EB030E22BF73
:10FAC000B61A754640EADC0055EA060E18D04FEA31
:10FAD000051545EA16754FEA06164FEAC30343EAD1
:10FAE00052734FEAC2025FEA1C1CC0D111F4801F9E
:10FAF0000BD141EA00014FF000004FF0004CB6E797
:10FB000011F4801F04BF01430020B4F1FD0C88BF35
:10FB1000BCF5E06F3FF6AFAEB5EB030C04BFB6EB40
:10FB2000020C5FEA500C50F1000041EB045170BD33
:10FB30000EF0004E4EEA113114EB5C04C2BFD4EB60
:10FB40000C0541EA045170BD41F480114FF0000EE4
:10FB5000013C90E645EA060E8DE60CEA135594EA60
:10FB60000C0F08BF95EA0C0F3FF43BAF94EA0C0F63
:10FB70000AD150EA01347FF434AF95EA0C0F7FF4D8
:10FB800025AF104619462CE795EA0C0F06D152EA2C
:10FB900003353FF4FDAE1046194622E750EA410610
:10FBA00018BF52EA43067FF4C5AE50EA41047FF421
:10FBB0000DAF52EA43057FF4EBAE12E74FF0FF3C86
:10FBC00006E000BF4FF0010C02E000BF4FF0010C57
:10FBD0004DF804CD4FEA410C7FEA6C5C4FEA430CD0
:10FBE00018BF7FEA6C5C1BD001B050EA410C0CBF1F
:10FBF00052EA430C91EA030F02BF90EA020F002081
:10FC0000704710F1000F91EA030F58BF994208BFE7
:10FC100090422CBFD8176FEAE37040F001007047A4
:10FC20004FEA410C7FEA6C5C02D150EA013C07D1FB
:10FC30004FEA430C7FEA6C5CD6D152EA033CD3D046
:10FC40005DF8040B704700BF8446104662468C4640
:10FC50001946634600E000BF01B5FFF7B7FF002873
:10FC600048BF10F1000F01BD4DF808EDFFF7F4FF9C
:10FC70000CBF012000205DF808FB00BF4DF808ED27
:10FC8000FFF7EAFF34BF012000205DF808FB00BF4A
:10FC90004DF808EDFFF7E0FF94BF012000205DF86C
:10FCA00008FB00BF4DF808EDFFF7CEFF94BF012021
:10FCB00000205DF808FB00BF4DF808EDFFF7C4FF1A
:10FCC00034BF012000205DF808FB00BF4FEA410C63
:10FCD0007FEA6C5C02D150EA013C0AD14FEA430C46
:10FCE0007FEA6C5C02D152EA033C02D14FF0000083
:10FCF00070474FF0010070474FEA410212F50012C1
:10FD000015D211D56FF47873B3EB625212D94FEA62
:10FD1000C12343F0004343EA505311F0004F23FA4C
:10FD200002F018BF404270474FF00000704750EAA1
:10FD3000013005D111F0004008BF6FF0004070475E
:10FD40004FF00000704700BF4A0011D212F50012B8
:10FD500011D20DD56FF47873B3EB62520ED44FEA23
:10FD6000C12343F0004343EA505323FA02F07047A3
:10FD70004FF00000704750EA013002D14FF0FF30E1
:10FD800070474FF0000070474FEA4102B2F1E04384
:10FD900024BFB3F5001CDCF1FE5C0DD901F0004C72
:10FDA0004FEAC0024CEA5070B2F1004F40EB8300C2
:10FDB00008BF20F00100704711F0804F21D113F1EE
:10FDC0003872BCBF01F00040704741F480114FEA27
:10FDD0005252C2F11802C2F1200C10FA0CF320FAB0
:10FDE00002F018BF40F001004FEAC1234FEAD323CD
:10FDF00003FA0CFC40EA0C0023FA02F34FEA430337
:10FE0000CCE77FEA625307D150EA01331EBF4FF0BF
:10FE1000FE4040F44000704701F0004040F0FE40DA
:10FE200040F40000704700BF53B94AB9002908BF29
:10FE300000281CBF4FF0FF314FF0FF3000F07EB9BB
:10FE4000ADF1080C6DE904CE00F006F8DDF804E031
:10FE5000DDE9022304B070472DE9F0478C460E46D9
:10FE60000446089D002B50D18A4217466CD9B2FA3D
:10FE700082FEBEF1000F0BD0CEF1200420FA04F474
:10FE800001FA0EF644EA060C02FA0EF700FA0EF436
:10FE90004FEA1749220CBCFBF9F01FFA87F809FB5F
:10FEA00010C642EA064600FB08F3B34209D9F61928
:10FEB00000F1FF3280F02281B34240F21F8102380C
:10FEC0003E44F61AA2B2B6FBF9F309FB136642EA06
:10FED000064403FB08F8A04509D9E41903F1FF32F1
:10FEE00080F00A81A04540F20781023B3C44C8EB08
:10FEF000040443EA00400021002D62D024FA0EF4ED
:10FF000000232C606B60BDE8F0878B4207D9002D81
:10FF100055D0002185E841000846BDE8F087B3FAD6
:10FF200083F1002940F09080B34202D3824200F274
:10FF3000F880841A66EB03060120B446002D40D0F9
:10FF400085E81010BDE8F08712B90127B7FBF2F77A
:10FF5000B7FA87FEBEF1000F35D1F31B4FEA174801
:10FF60001FFA87FC0121B3FBF8F0220C08FB1036C6
:10FF700042EA06460CFB00F3B34207D9F61900F13A
:10FF8000FF3202D2B34200F2CE801046F61AA2B27D
:10FF9000B6FBF8F308FB136642EA06440CFB03FCCD
:10FFA000A44507D9E41903F1FF3202D2A44500F2B7
:10FFB000B5801346CCEB040443EA00409CE7294695
:10FFC0002846BDE8F087CEF1200106FA0EF307FAC5
:10FFD0000EF720FA01F94FEA1748CE4049EA030923
:10FFE000B6FBF8FA4FEA194408FB1A661FFA87FCB9
:10FFF00044EA06430AFB0CF29A4200FA0EF40AD9CC
:020000040801F1
:10000000DB190AF1FF3180F087809A4240F2848048
:10001000AAF1020A3B449B1A1FFA89F9B3FBF8F1D3
:1000200008FB113349EA034301FB0CF69E4207D952
:10003000DB1901F1FF326BD29E4269D902393B4490
:100040009B1B41EA0A418EE7C1F1200E22FA0EF411
:100050008B40234320FA0EF706FA01F44FEA134CC3
:1000600026FA0EF63C43B6FBFCF9270C0CFB19668E
:100070001FFA83F847EA064609FB08F7B74202FA77
:1000800001F200FA01FA08D9F61809F1FF3041D25D
:10009000B7423FD9A9F102091E44F61BA0B2B6FB34
:1000A000FCF40CFB146640EA064704FB08F8B8456C
:1000B00007D9FF1804F1FF3028D2B84526D9023CF1
:1000C0001F4444EA0940C8EB0707A0FB02894F45DB
:1000D00044464E4614D329D065B3BAEB040367EB0C
:1000E000060707FA0EFECB40CF404EEA030385E831
:1000F00088000021BDE8F0871346F8E61046E0E6E8
:10010000B8EB020469EB03060138E5E70446D8E7DB
:10011000114695E78146C0E78A467CE7023B3C44AE
:1001200048E708460AE702383E442FE7C245E7D3CE
:100130003E46D1E72946BDE8F08700BF704700BFC3
:10014000F8B500BFF8BC08BC9E467047F8B500BFC4
:10015000F8BC08BC9E4670475468697320697320D8
:10016000746865204D656E750A0D00612920726501
:1001700061640A0D0062292077726974650A0D00B6
:100180006329204C6564204F4E2F4F46460A0D00D0
:10019000524541440A0D0057524954450A0D004C3E
:1001A00065640A0D004563636F206C61207374728F
:1001B000696E67613A2025730A0000004D0500084A
:1001C00051050008590500082E2E2F6D6265642D1B
:1001D0006F732F2E2F706C6174666F726D2F536961
:1001E0006E676C65746F6E5074722E68005F707409
:1001F00072203D3D202854202A29265F64617461C5
:100200000000000000000000000000007B06000865
:100210008D06000881040008C10400086306000878
:100220006F06000844FFFFFF00000000B50400084F
:10023000D30400083D0C00080B0C00086F0C0008EC
:10024000750C0008750C0008750C0008790C000886
:10025000730C0008790C0008450600084B060008DE
:1002600051060008570600085D06000861060008F0
:100270007306000867060008850600089306000854
:1002800040FFFFFF00000000BB040008D904000885
:100290002E2E2F6D6265642D6F732F706C617466E6
:1002A0006F726D2F43616C6C6261636B2E68005FCF
:1002B0006F7073000000000000000000DB06000803
:1002C000DB0600082D0400086D040008636F756CE0
:1002D00064206E6F742070696E6F75740070696E43
:1002E0006D6170206D69732D6D6174636800706954
:1002F0006E6D6170206E6F7420666F756E6420661F
:100300006F72207065726970686572616C007069E7
:100310006E6D6170206E6F7420666F756E642066FE
:100320006F722066756E6374696F6E0069520008A3
:100330008D520008D5520008ED520008A95200085D
:100340002C030108F80E002000000000000000004F
:10035000790A0008D50A000800000000000000002B
:100360000000000000000000EB100008EB10000887
:10037000EB100008EB100008350B0008390B0008E3
:100380006D080008770800083D0B000845060008C6
:100390004B06000851060008570600085D060008D5
:1003A00061060008000000000000000000000000DE
:1003B00000000000EB100008EB100008EB10000834
:1003C000EB100008350B0008390B00086D08000819
:1003D000770800083D0B0008450600084B0600089A
:1003E00051060008570600085D060008610600086F
:1003F000FCFFFFFF00000000000000000000000004
:1004000000000000000000000000000000000000EC
:100410003D0C00080B0C00086F0C0008750C000860
:10042000750C0008750C0008790C0008730C0008A6
:10043000790C0008450600084B0600085106000824
:10044000570600085D06000861060008EB1000086A
:10045000EB100008070C0008090C0008FCFFFFFF68
:10046000000000000000000000000000772B005397
:10047000747265616D206F626A206661696C757265
:10048000652C206572726E6F3D25640D0A006D62E9
:100490006564206173736572746174696F6E206640
:1004A00061696C65643A2025732C2066696C653A35
:1004B0002025732C206C696E65202564200A002E8F
:1004C0002E2F6D6265642D6F732F706C6174666F73
:1004D000726D2F6D6265645F637269746963616CCC
:1004E0002E6300696E746572727570745F656E61FB
:1004F000626C655F636F756E746572203C20554950
:100500004E5433325F4D415800696E746572727596
:100510007074735F64697361626C6564002F7374D7
:1005200064696E002F737464657272004578636548
:100530007074696F6E003A2570002E2E2F6D626503
:10054000642D6F732F706C6174666F726D2F6D62A6
:1005500065645F72657461726765742E63707000A4
:1005600030203D3D20282A67756172645F6F626AA2
:100570006563742026204358415F47554152445FCC
:100580004D41534B29004358415F47554152445F09
:10059000494E49545F494E5F50524F47524553535D
:1005A000203D3D20282A67756172645F6F626A652D
:1005B00063742026204358415F47554152445F4DA4
:1005C00041534B29004F70657261746F72206E65E4
:1005D00077206F7574206F66206D656D6F72790D71
:1005E0000A004F70657261746F72206E65775B5D93
:1005F000206F7574206F66206D656D6F72790D0ABE
:10060000002F7374646F75740061706C696361743A
:10061000696F6E5F756E6E616D65645F6D75746533
:1006200078002E2E2F6D6265642D6F732F72746F9C
:10063000732F4D757465782E637070005F69640068
:1006400073696E676C65746F6E5F6D757465780045
:100650006D616C6C6F635F6D7574657800656E7647
:100660005F6D75746578006D61696E5F7468726541
:10067000616400507265206D61696E2074687265F6
:100680006164206E6F7420637265617465640052EA
:1006900054582056352E312E310000000000000045
:1006A000000000000000000000000000000000004A
:1006B000000000000000000000000000000000003A
:1006C000000000000000000000000000000000002A
:1006D0000000000003000000E80300000500000027
:1006E0009410002010000000000000000000000036
:1006F00000000000000000000000000000000000FA
:1007000000000000000000000000000000000000E9
:1007100000000000000000000000000000000000D9
:100720000000000000000000001000003C0701086D
:1007300064070108880701080400000000000000A9
:1007400000000000A0150020480000005814002000
:100750000001000001000000000000000000000097
:1007600000000000000000000000000058150020FC
:10077000480000005811002000030000280000007D
:100780000000000000000000000000000000000069
:10079000D410002034000000081100205000000098
:1007A000434D5349532D52544F53206572726F720B
:1007B0003A20537461636B20756E646572666C6F6A
:1007C0007720287374617475733A20307825582C1B
:1007D000207461736B2049443A20307825582C20CE
:1007E0007461736B206E616D653A202573290A0D63
:1007F00000434D5349532D52544F53206572726F2D
:10080000723A20495352205175657565206F76659F
:1008100072666C6F7720287374617475733A203038
:100820007825582C207461736B2049443A20307825
:1008300025582C206F626A6563742049443A203041
:10084000782558290A0D00434D5349532D52544FD2
:1008500053206572726F723A205573657220546925
:100860006D65722043616C6C6261636B20517565CC
:100870007565206F766572666C6F7720287374617A
:100880007475733A20307825582C207461736B206E
:1008900049443A20307825582C2074696D657220BF
:1008A00049443A2030782558290A0D00434D5349D0
:1008B000532D52544F53206572726F723A20535425
:1008C0004420432F432B2B206C6962726172792084
:1008D0006C69627370616365206E6F74206176610C
:1008E000696C61626C6520287374617475733A2059
:1008F000307825582C207461736B2049443A20309D
:10090000782558290A0D00434D5349532D52544F11
:1009100053206572726F723A2053544420432F4320
:100920002B2B206C696272617279206D7574657809
:1009300020696E697469616C697A6174696F6E208F
:100940006661696C656420287374617475733A20FC
:10095000307825582C207461736B2049443A20303C
:10096000782558290A0D00434D5349532D52544FB1
:1009700053206572726F723A20556E6B6E6F776E90
:1009800020287374617475733A20307825582C20B0
:100990007461736B2049443A2030782558290A0D38
:1009A0000000000001000000004C004012080000A0
:1009B0000300000000440040120700000A0000008D
:1009C0000010014012070000170000000010014055
:1009D0001207000025000000004800401207000038
:1009E0002700000000140140120800002B00000046
:1009F0000048004012070000320000000050004094
:100A000012080000FFFF0000FFFFFFFF00000000D2
:100A100000000000004C004012080000020000002E
:100A200000440040120700000900000000100140CF
:100A3000120700001600000000100140120700001D
:100A40001A000000004800401207000026000000C5
:100A500000140140120800002A0000000048004075
:100A6000120700002C000000005000401208000097
:100A7000FFFF0000FFFFFFFF00000000000000007C
:100A8000000000000102030406070809000000003E
:100A9000010203042E2E2F6D6265642D6F732F7477
:100AA0006172676574732F5441524745545F5354C4
:100AB0004D2F5441524745545F53544D33324634C1
:100AC0002F73657269616C5F6465766963652E6317
:100AD000006F626A5F732D3E7561727420213D2044
:100AE00028554152544E616D65294E43006F626A2C
:100AF00000747820213D2028766F69642A2930000F
:100B000074785F7769647468203D3D20380072789E
:100B100020213D2028766F69642A29300072785F91
:100B20007769647468203D3D203800756172745F98
:100B300072747320213D2028554152544E616D65D9
:100B4000294E4300756172745F63747320213D20E8
:100B500028554152544E616D65294E430050696ECF
:100B60006D6170206572726F723A2077726F6E6776
:100B700020706F7274206E756D6265722E002E2E5D
:100B80002F6D6265642D6F732F7461726765747366
:100B90002F5441524745545F53544D2F6770696F2E
:100BA0005F6170692E630070696E20213D202850BE
:100BB000696E4E616D65294E43002E2E2F6D626564
:100BC000642D6F732F746172676574732F54415273
:100BD0004745545F53544D2F70696E6D61702E639D
:100BE00000000000010000000200000004000000FE
:100BF000080000001000000020000000400000007D
:100C0000800000000001000000020000000400005D
:100C1000000800000010000000200000004000005C
:100C20000080000043616E6E6F7420696E697469A4
:100C3000616C697A6520554152540A002E2E2F6D41
:100C40006265642D6F732F746172676574732F54BE
:100C500041524745545F53544D2F73657269616C1F
:100C60005F6170692E6300706172697479203D3D27
:100C700020554152545F5041524954595F4E4F4E96
:100C8000450000009002002043000000504F5349EF
:100C9000580000002E00000030303030303030304E
:100CA0003030303030303030494E4600696E6600AA
:100CB0004E414E006E616E0030313233343536377E
:100CC0003839414243444546000000003031323358
:100CD0003435363738396162636465660000000078
:100CE000286E756C6C290000300000002020202048
:100CF0002020202020202020202020200A00010069
:100D000002000300040005000600070008000900B7
:100D10000A000B000C000D000E000F001000000078
:100D200065256C64000000003030303030303030E9
:100D30003030303030303030202020202020202033
:100D400020202020202020200020202020202020C3
:100D5000202028282828282020202020202020206B
:100D6000202020202020202020881010101010107B
:100D700010101010101010101004040404040404C7
:100D80000404041010101010101041414141414161
:100D90000101010101010101010101010101010143
:100DA0000101010110101010101042424242424253
:100DB0000202020202020202020202020202020213
:100DC00002020202101010102000000000000000BB
:100DD0000000000000000000000000000000000013
:100DE0000000000000000000000000000000000003
:100DF00000000000000000000000000000000000F3
:100E000000000000000000000000000000000000E2
:100E100000000000000000000000000000000000D2
:100E200000000000000000000000000000000000C2
:100E300000000000000000000000000000000000B2
:100E4000000000000000000000000000496E66691C
:100E50006E697479000000004E614E0000000000D1
:100E6000000000000000F03F0000000000002440EF
:100E700000000000000059400000000000408F40CA
:100E8000000000000088C34000000000006AF84035
:100E90000000000080842E4100000000D012634159
:100EA0000000000084D797410000000065CDCD41CF
:100EB000000000205FA00242000000E876483742B0
:100EC000000000A2941A6D42000040E59C30A2424E
:100ED0000000901EC4BCD64200003426F56B0C43C3
:100EE0000080E03779C3414300A0D885573476436A
:100EF00000C84E676DC1AB43003D9160E458E143CB
:100F0000408CB5781DAF154450EFE2D6E41A4B443F
:100F100092D54D06CFF08044F64AE1C7022DB54484
:100F2000B49DD9794378EA440080E03779C34143DE
:100F3000176E05B5B5B89346F5F93FE9034F384D3F
:100F4000321D30F94877825A3CBF737FDD4F1575EB
:100F500005000000190000007D00000035000000C1
:100F6000CEFBFFFFCB0300000100000000000000EB
:100F70006E660000696E697479000000616E0000A1
:100F800034000000CEFBFFFFCB0300000100000097
:100F90000000000000000000BC89D897B2D29C3C41
:100FA00033A7A8D523F649393DA7F444FD0FA53250
:100FB0009D978CCF08BA5B25436FAC6428066811F7
:100FC0000000000000000000000000000000000021
:100FD0000000000000000000000000000000000011
:100FE0000000000000000000000000000000000001
:100FF0001011121314151617181900000000000024
:10100000001A1B1C1D1E1F00000000000000000035
:1010100000000000000000000000000000000000D0
:10102000001A1B1C1D1E1F00000000000000000015
:1010300000000000000000000000000000000000B0
:1010400000000000000000000000000000000000A0
:101050000000000000000000000000000000000090
:101060000000000000000000000000000000000080
:101070000000000000000000000000000000000070
:101080000000000000000000000000000000000060
:101090000000000000000000000000000000000050
:1010A0000000000000000000000000000000000040
:1010B0000000000000000000000000000000000030
:0410C000000000002C
:0810C4005CF1FE7F0100000059
:1010CC0000000000342A0020A115000800000000D8
:1010DC008F0601089117FB020000000000000000C1
:1010EC0000000000000000000000000000000000F4
:1010FC0000000000000000000000000000000000E4
:10110C0000000000000000000000000000000000D3
:10111C0000000000000000000000000000000000C3
:10112C0000000000000000000000000000000000B3
:10113C0000000000000000000000000000000000A3
:10114C000000000000000000000000000000000093
:10115C000000000000000000000000000000000083
:10116C000000000000000000000000000000000073
:10117C000000000000000000000000000000000063
:10118C000024F40000000000000000007C0500209A
:10119C00E40500204C0600200000000000000000C8
:1011AC000000000000000000000000000000000033
:1011BC000000000000000000000000000000000023
:1011CC000000000000000000000000000000000013
:1011DC000000000000000000000000000000000003
:1011EC0000000000000000000000000000000000F3
:1011FC0000000000000000000000000000000000E3
:10120C0000000000000000000000000000000000D2
:10121C0000000000000000000000000000000000C2
:10122C0000000000000000000000000000000000B2
:10123C0001000000000000000E33CDAB34126DE64F
:10124C00ECDE05000B0000000000000000000000B8
:10125C000000000000000000000000000000000082
:10126C000000000000000000000000000000000072
:10127C000000000000000000000000000000000062
:10128C000000000000000000000000000000000052
:1015BC00900200204300000000000000000000002A
:1015CC00000000000000000000000000000000000F
:1015DC0000000000430000000000000000000000BC
:1015EC0000000000000000000000000000000000EF
:1015FC00000000004300000000000000000000009C
:10160C0000000000000000000000000000000000CE
:10161C00000000004300000000000000000000007B
:10162C0000000000000000000000000000000000AE
:10163C00000000004300000000000000000000005B
:10164C00000000000000000000000000000000008E
:10165C00000000004300000000000000000000003B
:10166C00000000000000000000000000000000006E
:10167C00000000004300000000000000000000001B
:10168C00000000000000000000000000000000004E
:10169C00000000001DB700085168000800000000A1
:1016AC00480D0108940C0108C80C0108C80C01086D
:1016BC00C80C0108C80C0108C80C0108C80C0108AA
:1016CC00C80C0108C80C0108C80C0108FFFFFFFF7B
:1016DC00FFFFFFFFFFFFFFFFFFFF00000100415373
:1016EC004349490000000000000000000000000019
:1016FC00000000000000000000000000000041534A
:10170C0043494900000000000000000000000000F8
:10171C0000000000000000000000000000000000BD
:10172C00000000000000000028080020280800200D
:10173C00300800203008002038080020380800202D
:10174C0040080020400800204808002048080020DD
:10175C00500800205008002058080020580800208D
:10176C00600800206008002068080020680800203D
:10177C0070080020700800207808002078080020ED
:10178C00800800208008002088080020880800209D
:10179C00900800209008002098080020980800204D
:1017AC00A0080020A0080020A8080020A8080020FD
:1017BC00B0080020B0080020B8080020B8080020AD
:1017CC00C0080020C0080020C8080020C80800205D
:1017DC00D0080020D0080020D8080020D80800200D
:1017EC00E0080020E0080020E8080020E8080020BD
:1017FC00F0080020F0080020F8080020F80800206D
:10180C000009002000090020080900200809002018
:10181C0010090020100900201809002018090020C8
:10182C002009002020090020280900202809002078
:10183C003009002030090020380900203809002028
:10184C0040090020400900204809002048090020D8
:10185C005009002050090020580900205809002088
:10186C006009002060090020680900206809002038
:10187C0070090020700900207809002078090020E8
:10188C008009002080090020880900208809002098
:10189C009009002090090020980900209809002048
:1018AC00A0090020A0090020A8090020A8090020F8
:1018BC00B0090020B0090020B8090020B8090020A8
:1018CC00C0090020C0090020C8090020C809002058
:1018DC00D0090020D0090020D8090020D809002008
:1018EC00E0090020E0090020E8090020E8090020B8
:1018FC00F0090020F0090020F8090020F809002068
:10190C00000A0020000A0020080A0020080A002013
:10191C00100A0020100A0020180A0020180A0020C3
:10192C00200A0020200A0020280A0020280A002073
:10193C00300A0020300A0020380A0020380A002023
:10194C00400A0020400A0020480A0020480A0020D3
:10195C00500A0020500A0020580A0020580A002083
:10196C00600A0020600A0020680A0020680A002033
:10197C00700A0020700A0020780A0020780A0020E3
:10198C00800A0020800A0020880A0020880A002093
:10199C00900A0020900A0020980A0020980A002043
:1019AC00A00A0020A00A0020A80A0020A80A0020F3
:1019BC00B00A0020B00A0020B80A0020B80A0020A3
:1019CC00C00A0020C00A0020C80A0020C80A002053
:1019DC00D00A0020D00A0020D80A0020D80A002003
:1019EC00E00A0020E00A0020E80A0020E80A0020B3
:1019FC00F00A0020F00A0020F80A0020F80A002063
:101A0C00000B0020000B0020080B0020080B00200E
:101A1C00100B0020100B0020180B0020180B0020BE
:101A2C00200B0020200B0020280B0020280B00206E
:101A3C00300B0020300B0020380B0020380B00201E
:101A4C00400B0020400B0020480B0020480B0020CE
:101A5C00500B0020500B0020580B0020580B00207E
:101A6C00600B0020600B0020680B0020680B00202E
:101A7C00700B0020700B0020780B0020780B0020DE
:101A8C00800B0020800B0020880B0020880B00208E
:101A9C00900B0020900B0020980B0020980B00203E
:101AAC00A00B0020A00B0020A80B0020A80B0020EE
:101ABC00B00B0020B00B0020B80B0020B80B00209E
:101ACC00C00B0020C00B0020C80B0020C80B00204E
:101ADC00D00B0020D00B0020D80B0020D80B0020FE
:101AEC00E00B0020E00B0020E80B0020E80B0020AE
:101AFC00F00B0020F00B0020F80B0020F80B00205E
:101B0C00000C0020000C0020080C0020080C002009
:101B1C00100C0020100C0020180C0020180C0020B9
:101B2C00200C0020200C002000000200FFFFFFFF13
:101B3C00E9010008E1040008FD050008C5010008E2
:041B4C000000000095
:040000050800356D4D
:00000001FF
